{
  "_format": "hh-sol-artifact-1",
  "contractName": "LocalNounsToken",
  "sourceName": "contracts/LocalNounsToken.sol",
  "abi": [
    {
      "inputs": [
        {
          "internalType": "contract IAssetProviderExMint",
          "name": "_assetProvider",
          "type": "address"
        },
        {
          "internalType": "address",
          "name": "_minter",
          "type": "address"
        }
      ],
      "stateMutability": "nonpayable",
      "type": "constructor"
    },
    {
      "inputs": [],
      "name": "ApprovalCallerNotOwnerNorApproved",
      "type": "error"
    },
    {
      "inputs": [],
      "name": "ApprovalQueryForNonexistentToken",
      "type": "error"
    },
    {
      "inputs": [],
      "name": "BalanceQueryForZeroAddress",
      "type": "error"
    },
    {
      "inputs": [],
      "name": "MintERC2309QuantityExceedsLimit",
      "type": "error"
    },
    {
      "inputs": [],
      "name": "MintToZeroAddress",
      "type": "error"
    },
    {
      "inputs": [],
      "name": "MintZeroQuantity",
      "type": "error"
    },
    {
      "inputs": [],
      "name": "OwnerQueryForNonexistentToken",
      "type": "error"
    },
    {
      "inputs": [],
      "name": "OwnershipNotInitializedForExtraData",
      "type": "error"
    },
    {
      "inputs": [],
      "name": "TransferCallerNotOwnerNorApproved",
      "type": "error"
    },
    {
      "inputs": [],
      "name": "TransferFromIncorrectOwner",
      "type": "error"
    },
    {
      "inputs": [],
      "name": "TransferToNonERC721ReceiverImplementer",
      "type": "error"
    },
    {
      "inputs": [],
      "name": "TransferToZeroAddress",
      "type": "error"
    },
    {
      "inputs": [],
      "name": "URIQueryForNonexistentToken",
      "type": "error"
    },
    {
      "anonymous": false,
      "inputs": [
        {
          "indexed": true,
          "internalType": "address",
          "name": "owner",
          "type": "address"
        },
        {
          "indexed": true,
          "internalType": "address",
          "name": "approved",
          "type": "address"
        },
        {
          "indexed": true,
          "internalType": "uint256",
          "name": "tokenId",
          "type": "uint256"
        }
      ],
      "name": "Approval",
      "type": "event"
    },
    {
      "anonymous": false,
      "inputs": [
        {
          "indexed": true,
          "internalType": "address",
          "name": "owner",
          "type": "address"
        },
        {
          "indexed": true,
          "internalType": "address",
          "name": "operator",
          "type": "address"
        },
        {
          "indexed": false,
          "internalType": "bool",
          "name": "approved",
          "type": "bool"
        }
      ],
      "name": "ApprovalForAll",
      "type": "event"
    },
    {
      "anonymous": false,
      "inputs": [
        {
          "indexed": true,
          "internalType": "uint256",
          "name": "tokenId",
          "type": "uint256"
        }
      ],
      "name": "CancelTradePrefecture",
      "type": "event"
    },
    {
      "anonymous": false,
      "inputs": [
        {
          "indexed": true,
          "internalType": "uint256",
          "name": "fromTokenId",
          "type": "uint256"
        },
        {
          "indexed": false,
          "internalType": "uint256",
          "name": "toTokenId",
          "type": "uint256"
        },
        {
          "indexed": true,
          "internalType": "address",
          "name": "from",
          "type": "address"
        },
        {
          "indexed": true,
          "internalType": "address",
          "name": "to",
          "type": "address"
        }
      ],
      "name": "ConsecutiveTransfer",
      "type": "event"
    },
    {
      "anonymous": false,
      "inputs": [
        {
          "indexed": true,
          "internalType": "address",
          "name": "previousOwner",
          "type": "address"
        },
        {
          "indexed": true,
          "internalType": "address",
          "name": "newOwner",
          "type": "address"
        }
      ],
      "name": "OwnershipTransferred",
      "type": "event"
    },
    {
      "anonymous": false,
      "inputs": [
        {
          "indexed": true,
          "internalType": "uint256",
          "name": "tokenId",
          "type": "uint256"
        },
        {
          "indexed": false,
          "internalType": "bool",
          "name": "_isOnTrade",
          "type": "bool"
        }
      ],
      "name": "PutTrade",
      "type": "event"
    },
    {
      "anonymous": false,
      "inputs": [
        {
          "indexed": true,
          "internalType": "uint256",
          "name": "tokenId",
          "type": "uint256"
        },
        {
          "indexed": false,
          "internalType": "uint256[]",
          "name": "_prefectures",
          "type": "uint256[]"
        },
        {
          "indexed": false,
          "internalType": "address",
          "name": "_tradeAddress",
          "type": "address"
        }
      ],
      "name": "PutTradePrefecture",
      "type": "event"
    },
    {
      "anonymous": false,
      "inputs": [
        {
          "indexed": true,
          "internalType": "uint256",
          "name": "tokenId",
          "type": "uint256"
        },
        {
          "indexed": false,
          "internalType": "uint256",
          "name": "price",
          "type": "uint256"
        }
      ],
      "name": "SetPrice",
      "type": "event"
    },
    {
      "anonymous": false,
      "inputs": [
        {
          "indexed": true,
          "internalType": "address",
          "name": "from",
          "type": "address"
        },
        {
          "indexed": true,
          "internalType": "address",
          "name": "to",
          "type": "address"
        },
        {
          "indexed": true,
          "internalType": "uint256",
          "name": "tokenId",
          "type": "uint256"
        }
      ],
      "name": "Transfer",
      "type": "event"
    },
    {
      "inputs": [
        {
          "internalType": "uint256",
          "name": "_tokenId",
          "type": "uint256"
        },
        {
          "internalType": "contract IERC721Marketplace",
          "name": "_dealer",
          "type": "address"
        },
        {
          "internalType": "uint256",
          "name": "_price",
          "type": "uint256"
        }
      ],
      "name": "acceptOffer",
      "outputs": [],
      "stateMutability": "nonpayable",
      "type": "function"
    },
    {
      "inputs": [],
      "name": "administratorsAddress",
      "outputs": [
        {
          "internalType": "address",
          "name": "",
          "type": "address"
        }
      ],
      "stateMutability": "view",
      "type": "function"
    },
    {
      "inputs": [
        {
          "internalType": "address",
          "name": "to",
          "type": "address"
        },
        {
          "internalType": "uint256",
          "name": "tokenId",
          "type": "uint256"
        }
      ],
      "name": "approve",
      "outputs": [],
      "stateMutability": "payable",
      "type": "function"
    },
    {
      "inputs": [],
      "name": "assetProvider",
      "outputs": [
        {
          "internalType": "contract IAssetProvider",
          "name": "",
          "type": "address"
        }
      ],
      "stateMutability": "view",
      "type": "function"
    },
    {
      "inputs": [],
      "name": "assetProvider2",
      "outputs": [
        {
          "internalType": "contract IAssetProviderExMint",
          "name": "",
          "type": "address"
        }
      ],
      "stateMutability": "view",
      "type": "function"
    },
    {
      "inputs": [
        {
          "internalType": "address",
          "name": "owner",
          "type": "address"
        }
      ],
      "name": "balanceOf",
      "outputs": [
        {
          "internalType": "uint256",
          "name": "",
          "type": "uint256"
        }
      ],
      "stateMutability": "view",
      "type": "function"
    },
    {
      "inputs": [
        {
          "internalType": "uint256",
          "name": "_tokenId",
          "type": "uint256"
        }
      ],
      "name": "cancelTradeLocalNoun",
      "outputs": [],
      "stateMutability": "nonpayable",
      "type": "function"
    },
    {
      "inputs": [
        {
          "internalType": "uint256",
          "name": "_tokenId",
          "type": "uint256"
        }
      ],
      "name": "debugTokenURI",
      "outputs": [
        {
          "internalType": "string",
          "name": "uri",
          "type": "string"
        },
        {
          "internalType": "uint256",
          "name": "gas",
          "type": "uint256"
        }
      ],
      "stateMutability": "view",
      "type": "function"
    },
    {
      "inputs": [],
      "name": "description",
      "outputs": [
        {
          "internalType": "string",
          "name": "",
          "type": "string"
        }
      ],
      "stateMutability": "view",
      "type": "function"
    },
    {
      "inputs": [],
      "name": "developpersAddress",
      "outputs": [
        {
          "internalType": "address",
          "name": "",
          "type": "address"
        }
      ],
      "stateMutability": "view",
      "type": "function"
    },
    {
      "inputs": [
        {
          "internalType": "uint256",
          "name": "",
          "type": "uint256"
        },
        {
          "internalType": "uint256",
          "name": "",
          "type": "uint256"
        }
      ],
      "name": "executeTrade",
      "outputs": [],
      "stateMutability": "pure",
      "type": "function"
    },
    {
      "inputs": [
        {
          "internalType": "uint256",
          "name": "_myTokenId",
          "type": "uint256"
        },
        {
          "internalType": "uint256",
          "name": "_targetTokenId",
          "type": "uint256"
        }
      ],
      "name": "executeTradeLocalNoun",
      "outputs": [],
      "stateMutability": "payable",
      "type": "function"
    },
    {
      "inputs": [
        {
          "internalType": "uint256",
          "name": "tokenId",
          "type": "uint256"
        }
      ],
      "name": "getApproved",
      "outputs": [
        {
          "internalType": "address",
          "name": "",
          "type": "address"
        }
      ],
      "stateMutability": "view",
      "type": "function"
    },
    {
      "inputs": [
        {
          "internalType": "uint256",
          "name": "_tokenId",
          "type": "uint256"
        }
      ],
      "name": "getPriceOf",
      "outputs": [
        {
          "internalType": "uint256",
          "name": "",
          "type": "uint256"
        }
      ],
      "stateMutability": "view",
      "type": "function"
    },
    {
      "inputs": [
        {
          "internalType": "uint256",
          "name": "_tokenId",
          "type": "uint256"
        }
      ],
      "name": "getTradePrefectureFor",
      "outputs": [
        {
          "internalType": "uint256[]",
          "name": "",
          "type": "uint256[]"
        }
      ],
      "stateMutability": "view",
      "type": "function"
    },
    {
      "inputs": [
        {
          "internalType": "address",
          "name": "owner",
          "type": "address"
        },
        {
          "internalType": "address",
          "name": "operator",
          "type": "address"
        }
      ],
      "name": "isApprovedForAll",
      "outputs": [
        {
          "internalType": "bool",
          "name": "",
          "type": "bool"
        }
      ],
      "stateMutability": "view",
      "type": "function"
    },
    {
      "inputs": [],
      "name": "mint",
      "outputs": [
        {
          "internalType": "uint256",
          "name": "",
          "type": "uint256"
        }
      ],
      "stateMutability": "payable",
      "type": "function"
    },
    {
      "inputs": [],
      "name": "mintLimit",
      "outputs": [
        {
          "internalType": "uint256",
          "name": "",
          "type": "uint256"
        }
      ],
      "stateMutability": "view",
      "type": "function"
    },
    {
      "inputs": [],
      "name": "mintPrice",
      "outputs": [
        {
          "internalType": "uint256",
          "name": "",
          "type": "uint256"
        }
      ],
      "stateMutability": "view",
      "type": "function"
    },
    {
      "inputs": [
        {
          "internalType": "address",
          "name": "",
          "type": "address"
        }
      ],
      "name": "mintPriceFor",
      "outputs": [
        {
          "internalType": "uint256",
          "name": "",
          "type": "uint256"
        }
      ],
      "stateMutability": "view",
      "type": "function"
    },
    {
      "inputs": [
        {
          "internalType": "address",
          "name": "_to",
          "type": "address"
        },
        {
          "internalType": "uint256",
          "name": "_prefectureId",
          "type": "uint256"
        },
        {
          "internalType": "uint256",
          "name": "_amount",
          "type": "uint256"
        }
      ],
      "name": "mintSelectedPrefecture",
      "outputs": [
        {
          "internalType": "uint256",
          "name": "tokenId",
          "type": "uint256"
        }
      ],
      "stateMutability": "nonpayable",
      "type": "function"
    },
    {
      "inputs": [],
      "name": "minter",
      "outputs": [
        {
          "internalType": "address",
          "name": "",
          "type": "address"
        }
      ],
      "stateMutability": "view",
      "type": "function"
    },
    {
      "inputs": [],
      "name": "name",
      "outputs": [
        {
          "internalType": "string",
          "name": "",
          "type": "string"
        }
      ],
      "stateMutability": "view",
      "type": "function"
    },
    {
      "inputs": [],
      "name": "owner",
      "outputs": [
        {
          "internalType": "address",
          "name": "",
          "type": "address"
        }
      ],
      "stateMutability": "view",
      "type": "function"
    },
    {
      "inputs": [
        {
          "internalType": "address[]",
          "name": "_to",
          "type": "address[]"
        },
        {
          "internalType": "uint256[]",
          "name": "_prefectureId",
          "type": "uint256[]"
        },
        {
          "internalType": "uint256[]",
          "name": "_amount",
          "type": "uint256[]"
        }
      ],
      "name": "ownerMint",
      "outputs": [
        {
          "internalType": "uint256",
          "name": "tokenId",
          "type": "uint256"
        }
      ],
      "stateMutability": "nonpayable",
      "type": "function"
    },
    {
      "inputs": [
        {
          "internalType": "uint256",
          "name": "tokenId",
          "type": "uint256"
        }
      ],
      "name": "ownerOf",
      "outputs": [
        {
          "internalType": "address",
          "name": "",
          "type": "address"
        }
      ],
      "stateMutability": "view",
      "type": "function"
    },
    {
      "inputs": [
        {
          "internalType": "uint256",
          "name": "_tokenId",
          "type": "uint256"
        },
        {
          "internalType": "address",
          "name": "_buyer",
          "type": "address"
        },
        {
          "internalType": "address",
          "name": "_facilitator",
          "type": "address"
        }
      ],
      "name": "purchase",
      "outputs": [],
      "stateMutability": "payable",
      "type": "function"
    },
    {
      "inputs": [
        {
          "internalType": "uint256",
          "name": "",
          "type": "uint256"
        },
        {
          "internalType": "bool",
          "name": "",
          "type": "bool"
        }
      ],
      "name": "putTrade",
      "outputs": [],
      "stateMutability": "pure",
      "type": "function"
    },
    {
      "inputs": [
        {
          "internalType": "uint256",
          "name": "_tokenId",
          "type": "uint256"
        },
        {
          "internalType": "uint256[]",
          "name": "_prefectures",
          "type": "uint256[]"
        },
        {
          "internalType": "address",
          "name": "_tradeAddress",
          "type": "address"
        }
      ],
      "name": "putTradeLocalNoun",
      "outputs": [],
      "stateMutability": "nonpayable",
      "type": "function"
    },
    {
      "inputs": [],
      "name": "renounceOwnership",
      "outputs": [],
      "stateMutability": "nonpayable",
      "type": "function"
    },
    {
      "inputs": [
        {
          "internalType": "address",
          "name": "from",
          "type": "address"
        },
        {
          "internalType": "address",
          "name": "to",
          "type": "address"
        },
        {
          "internalType": "uint256",
          "name": "tokenId",
          "type": "uint256"
        }
      ],
      "name": "safeTransferFrom",
      "outputs": [],
      "stateMutability": "payable",
      "type": "function"
    },
    {
      "inputs": [
        {
          "internalType": "address",
          "name": "from",
          "type": "address"
        },
        {
          "internalType": "address",
          "name": "to",
          "type": "address"
        },
        {
          "internalType": "uint256",
          "name": "tokenId",
          "type": "uint256"
        },
        {
          "internalType": "bytes",
          "name": "_data",
          "type": "bytes"
        }
      ],
      "name": "safeTransferFrom",
      "outputs": [],
      "stateMutability": "payable",
      "type": "function"
    },
    {
      "inputs": [
        {
          "internalType": "address",
          "name": "_admin",
          "type": "address"
        }
      ],
      "name": "setAdministratorsAddress",
      "outputs": [],
      "stateMutability": "nonpayable",
      "type": "function"
    },
    {
      "inputs": [
        {
          "internalType": "address",
          "name": "operator",
          "type": "address"
        },
        {
          "internalType": "bool",
          "name": "approved",
          "type": "bool"
        }
      ],
      "name": "setApprovalForAll",
      "outputs": [],
      "stateMutability": "nonpayable",
      "type": "function"
    },
    {
      "inputs": [
        {
          "internalType": "contract IAssetProvider",
          "name": "_assetProvider",
          "type": "address"
        }
      ],
      "name": "setAssetProvider",
      "outputs": [],
      "stateMutability": "nonpayable",
      "type": "function"
    },
    {
      "inputs": [
        {
          "internalType": "string",
          "name": "_description",
          "type": "string"
        }
      ],
      "name": "setDescription",
      "outputs": [],
      "stateMutability": "nonpayable",
      "type": "function"
    },
    {
      "inputs": [
        {
          "internalType": "address",
          "name": "_developper",
          "type": "address"
        }
      ],
      "name": "setDeveloppersAddress",
      "outputs": [],
      "stateMutability": "nonpayable",
      "type": "function"
    },
    {
      "inputs": [
        {
          "internalType": "uint256",
          "name": "_limit",
          "type": "uint256"
        }
      ],
      "name": "setMintLimit",
      "outputs": [],
      "stateMutability": "nonpayable",
      "type": "function"
    },
    {
      "inputs": [
        {
          "internalType": "uint256",
          "name": "_price",
          "type": "uint256"
        }
      ],
      "name": "setMintPrice",
      "outputs": [],
      "stateMutability": "nonpayable",
      "type": "function"
    },
    {
      "inputs": [
        {
          "internalType": "address",
          "name": "_minter",
          "type": "address"
        }
      ],
      "name": "setMinter",
      "outputs": [],
      "stateMutability": "nonpayable",
      "type": "function"
    },
    {
      "inputs": [
        {
          "internalType": "uint256",
          "name": "_tokenId",
          "type": "uint256"
        },
        {
          "internalType": "uint256",
          "name": "_price",
          "type": "uint256"
        }
      ],
      "name": "setPriceOf",
      "outputs": [],
      "stateMutability": "nonpayable",
      "type": "function"
    },
    {
      "inputs": [
        {
          "internalType": "uint256",
          "name": "_royalty",
          "type": "uint256"
        }
      ],
      "name": "setTradeRoyalty",
      "outputs": [],
      "stateMutability": "nonpayable",
      "type": "function"
    },
    {
      "inputs": [
        {
          "internalType": "bytes4",
          "name": "interfaceId",
          "type": "bytes4"
        }
      ],
      "name": "supportsInterface",
      "outputs": [
        {
          "internalType": "bool",
          "name": "",
          "type": "bool"
        }
      ],
      "stateMutability": "view",
      "type": "function"
    },
    {
      "inputs": [],
      "name": "symbol",
      "outputs": [
        {
          "internalType": "string",
          "name": "",
          "type": "string"
        }
      ],
      "stateMutability": "view",
      "type": "function"
    },
    {
      "inputs": [
        {
          "internalType": "uint256",
          "name": "_tokenId",
          "type": "uint256"
        }
      ],
      "name": "tokenURI",
      "outputs": [
        {
          "internalType": "string",
          "name": "",
          "type": "string"
        }
      ],
      "stateMutability": "view",
      "type": "function"
    },
    {
      "inputs": [],
      "name": "totalSupply",
      "outputs": [
        {
          "internalType": "uint256",
          "name": "",
          "type": "uint256"
        }
      ],
      "stateMutability": "view",
      "type": "function"
    },
    {
      "inputs": [],
      "name": "totalSupply2",
      "outputs": [
        {
          "internalType": "uint256",
          "name": "",
          "type": "uint256"
        }
      ],
      "stateMutability": "view",
      "type": "function"
    },
    {
      "inputs": [
        {
          "internalType": "uint256",
          "name": "",
          "type": "uint256"
        }
      ],
      "name": "tradeAddress",
      "outputs": [
        {
          "internalType": "address",
          "name": "",
          "type": "address"
        }
      ],
      "stateMutability": "view",
      "type": "function"
    },
    {
      "inputs": [
        {
          "internalType": "uint256",
          "name": "",
          "type": "uint256"
        },
        {
          "internalType": "uint256",
          "name": "",
          "type": "uint256"
        }
      ],
      "name": "tradePrefecture",
      "outputs": [
        {
          "internalType": "uint256",
          "name": "",
          "type": "uint256"
        }
      ],
      "stateMutability": "view",
      "type": "function"
    },
    {
      "inputs": [],
      "name": "tradeRoyalty",
      "outputs": [
        {
          "internalType": "uint256",
          "name": "",
          "type": "uint256"
        }
      ],
      "stateMutability": "view",
      "type": "function"
    },
    {
      "inputs": [
        {
          "internalType": "uint256",
          "name": "",
          "type": "uint256"
        }
      ],
      "name": "trades",
      "outputs": [
        {
          "internalType": "bool",
          "name": "",
          "type": "bool"
        }
      ],
      "stateMutability": "view",
      "type": "function"
    },
    {
      "inputs": [
        {
          "internalType": "address",
          "name": "from",
          "type": "address"
        },
        {
          "internalType": "address",
          "name": "to",
          "type": "address"
        },
        {
          "internalType": "uint256",
          "name": "tokenId",
          "type": "uint256"
        }
      ],
      "name": "transferFrom",
      "outputs": [],
      "stateMutability": "payable",
      "type": "function"
    },
    {
      "inputs": [
        {
          "internalType": "address",
          "name": "newOwner",
          "type": "address"
        }
      ],
      "name": "transferOwnership",
      "outputs": [],
      "stateMutability": "nonpayable",
      "type": "function"
    },
    {
      "inputs": [],
      "name": "withdraw",
      "outputs": [],
      "stateMutability": "payable",
      "type": "function"
    }
  ],
  "bytecode": "0x6080604052660aa87bee5380006015553480156200001c57600080fd5b50604051620067b9380380620067b9833981810160405281019062000042919062000426565b816040518060400160405280600b81526020017f4c6f63616c204e6f756e730000000000000000000000000000000000000000008152506040518060400160405280600b81526020017f4c6f63616c204e6f756e7300000000000000000000000000000000000000000081525081818160029081620000c29190620006e7565b508060039081620000d49190620006e7565b50620000e5620002a460201b60201c565b60008190555050506200010d62000101620002a960201b60201c565b620002b160201b60201c565b82600e60006101000a81548173ffffffffffffffffffffffffffffffffffffffff021916908373ffffffffffffffffffffffffffffffffffffffff1602179055505050506040518060400160405280600b81526020017f4c6f63616c204e6f756e73000000000000000000000000000000000000000000815250600b9081620001979190620006e7565b5081600f60006101000a81548173ffffffffffffffffffffffffffffffffffffffff021916908373ffffffffffffffffffffffffffffffffffffffff16021790555080601060006101000a81548173ffffffffffffffffffffffffffffffffffffffff021916908373ffffffffffffffffffffffffffffffffffffffff16021790555033601360006101000a81548173ffffffffffffffffffffffffffffffffffffffff021916908373ffffffffffffffffffffffffffffffffffffffff16021790555033601460006101000a81548173ffffffffffffffffffffffffffffffffffffffff021916908373ffffffffffffffffffffffffffffffffffffffff1602179055505050620007ce565b600090565b600033905090565b6000600860009054906101000a900473ffffffffffffffffffffffffffffffffffffffff16905081600860006101000a81548173ffffffffffffffffffffffffffffffffffffffff021916908373ffffffffffffffffffffffffffffffffffffffff1602179055508173ffffffffffffffffffffffffffffffffffffffff168173ffffffffffffffffffffffffffffffffffffffff167f8be0079c531659141344cd1fd0a4f28419497f9722a3daafe3b4186f6b6457e060405160405180910390a35050565b600080fd5b600073ffffffffffffffffffffffffffffffffffffffff82169050919050565b6000620003a9826200037c565b9050919050565b6000620003bd826200039c565b9050919050565b620003cf81620003b0565b8114620003db57600080fd5b50565b600081519050620003ef81620003c4565b92915050565b62000400816200039c565b81146200040c57600080fd5b50565b6000815190506200042081620003f5565b92915050565b6000806040838503121562000440576200043f62000377565b5b60006200045085828601620003de565b925050602062000463858286016200040f565b9150509250929050565b600081519050919050565b7f4e487b7100000000000000000000000000000000000000000000000000000000600052604160045260246000fd5b7f4e487b7100000000000000000000000000000000000000000000000000000000600052602260045260246000fd5b60006002820490506001821680620004ef57607f821691505b602082108103620005055762000504620004a7565b5b50919050565b60008190508160005260206000209050919050565b60006020601f8301049050919050565b600082821b905092915050565b6000600883026200056f7fffffffffffffffffffffffffffffffffffffffffffffffffffffffffffffffff8262000530565b6200057b868362000530565b95508019841693508086168417925050509392505050565b6000819050919050565b6000819050919050565b6000620005c8620005c2620005bc8462000593565b6200059d565b62000593565b9050919050565b6000819050919050565b620005e483620005a7565b620005fc620005f382620005cf565b8484546200053d565b825550505050565b600090565b6200061362000604565b62000620818484620005d9565b505050565b5b8181101562000648576200063c60008262000609565b60018101905062000626565b5050565b601f821115620006975762000661816200050b565b6200066c8462000520565b810160208510156200067c578190505b620006946200068b8562000520565b83018262000625565b50505b505050565b600082821c905092915050565b6000620006bc600019846008026200069c565b1980831691505092915050565b6000620006d78383620006a9565b9150826002028217905092915050565b620006f2826200046d565b67ffffffffffffffff8111156200070e576200070d62000478565b5b6200071a8254620004d6565b620007278282856200064c565b600060209050601f8311600181146200075f57600084156200074a578287015190505b620007568582620006c9565b865550620007c6565b601f1984166200076f866200050b565b60005b82811015620007995784890151825560018201915060208501945060208101905062000772565b86831015620007b95784890151620007b5601f891682620006a9565b8355505b6001600288020188555050505b505050505050565b615fdb80620007de6000396000f3fe6080604052600436106103355760003560e01c8063843220b0116101ab578063b54b4fb9116100f7578063eba145eb11610095578063fba49e4f1161006f578063fba49e4f14610bf7578063fca3b5aa14610c20578063febced5d14610c49578063ff7047aa14610c7457610335565b8063eba145eb14610b7c578063f2fde38b14610ba5578063f4a0a52814610bce57610335565b8063cc44ab41116100d1578063cc44ab4114610a9b578063dc28de7014610ad9578063e4f71a0014610b02578063e985e9c514610b3f57610335565b8063b54b4fb914610a05578063b88d4fde14610a42578063c87b56dd14610a5e57610335565b806395d89b41116101645780639e6a1d7d1161013e5780639e6a1d7d1461095f578063a22cb46514610988578063a370f7d7146109b1578063b212cfc7146109dc57610335565b806395d89b41146108de57806396178c2014610909578063996517cf1461093457610335565b8063843220b0146107f15780638c4020781461081c5780638da5cb5b146108385780638dac58641461086357806390c3f38f1461088c5780639589d7b9146108b557610335565b806326df5b35116102855780635975814e116102235780636817c76c116101fd5780636817c76c1461074757806370a0823114610772578063715018a6146107af5780637284e416146107c657610335565b80635975814e146106b85780636352211e146106e157806367008d771461071e57610335565b80633b7f8f151161025f5780633b7f8f15146106395780633ccfd60b1461065557806342842e0e1461065f5780634d1317571461067b57610335565b806326df5b35146105a857806326fbd1d6146105d357806337fbf578146105fc57610335565b806311d7ef26116102f257806318160ddd116102cc57806318160ddd146104fb5780631e6c598e1461052657806323b872dd1461056357806323c563ab1461057f57610335565b806311d7ef26146104635780631249c58b146104a05780631346d8ea146104be57610335565b806301ffc9a71461033a578063055030881461037757806306fdde03146103b457806307546172146103df578063081812fc1461040a578063095ea7b314610447575b600080fd5b34801561034657600080fd5b50610361600480360381019061035c9190613e95565b610c9f565b60405161036e9190613edd565b60405180910390f35b34801561038357600080fd5b5061039e600480360381019061039991906141a8565b610d19565b6040516103ab919061425e565b60405180910390f35b3480156103c057600080fd5b506103c9610e0b565b6040516103d691906142f8565b60405180910390f35b3480156103eb57600080fd5b506103f4610e9d565b6040516104019190614329565b60405180910390f35b34801561041657600080fd5b50610431600480360381019061042c9190614344565b610ec3565b60405161043e9190614329565b60405180910390f35b610461600480360381019061045c9190614371565b610f42565b005b34801561046f57600080fd5b5061048a60048036038101906104859190614344565b611086565b6040516104979190614329565b60405180910390f35b6104a86110b9565b6040516104b5919061425e565b60405180910390f35b3480156104ca57600080fd5b506104e560048036038101906104e091906143b1565b6110f6565b6040516104f2919061425e565b60405180910390f35b34801561050757600080fd5b50610510611102565b60405161051d919061425e565b60405180910390f35b34801561053257600080fd5b5061054d60048036038101906105489190614344565b611111565b60405161055a9190613edd565b60405180910390f35b61057d600480360381019061057891906143de565b611131565b005b34801561058b57600080fd5b506105a660048036038101906105a19190614344565b611453565b005b3480156105b457600080fd5b506105bd611465565b6040516105ca9190614490565b60405180910390f35b3480156105df57600080fd5b506105fa60048036038101906105f591906144ab565b61148b565b005b34801561060857600080fd5b50610623600480360381019061061e91906144eb565b6114c6565b604051610630919061425e565b60405180910390f35b610653600480360381019061064e919061453e565b6116de565b005b61065d611835565b005b610679600480360381019061067491906143de565b61199f565b005b34801561068757600080fd5b506106a2600480360381019061069d9190614344565b6119bf565b6040516106af919061464f565b60405180910390f35b3480156106c457600080fd5b506106df60048036038101906106da9190614671565b611a2a565b005b3480156106ed57600080fd5b5061070860048036038101906107039190614344565b611bc7565b6040516107159190614329565b60405180910390f35b34801561072a57600080fd5b506107456004803603810190610740919061470c565b611bd9565b005b34801561075357600080fd5b5061075c611c14565b604051610769919061425e565b60405180910390f35b34801561077e57600080fd5b50610799600480360381019061079491906143b1565b611c1a565b6040516107a6919061425e565b60405180910390f35b3480156107bb57600080fd5b506107c4611cd2565b005b3480156107d257600080fd5b506107db611ce6565b6040516107e891906142f8565b60405180910390f35b3480156107fd57600080fd5b50610806611d74565b6040516108139190614329565b60405180910390f35b610836600480360381019061083191906144ab565b611d9a565b005b34801561084457600080fd5b5061084d61207a565b60405161085a9190614329565b60405180910390f35b34801561086f57600080fd5b5061088a60048036038101906108859190614344565b6120a4565b005b34801561089857600080fd5b506108b360048036038101906108ae9190614801565b61215d565b005b3480156108c157600080fd5b506108dc60048036038101906108d79190614888565b612178565b005b3480156108ea57600080fd5b506108f36121f6565b60405161090091906142f8565b60405180910390f35b34801561091557600080fd5b5061091e612288565b60405161092b919061425e565b60405180910390f35b34801561094057600080fd5b50610949612297565b604051610956919061425e565b60405180910390f35b34801561096b57600080fd5b5061098660048036038101906109819190614344565b61229d565b005b34801561099457600080fd5b506109af60048036038101906109aa91906148db565b6122af565b005b3480156109bd57600080fd5b506109c66123ba565b6040516109d3919061493c565b60405180910390f35b3480156109e857600080fd5b50610a0360048036038101906109fe9190614995565b6123e0565b005b348015610a1157600080fd5b50610a2c6004803603810190610a279190614344565b61242c565b604051610a39919061425e565b60405180910390f35b610a5c6004803603810190610a579190614a63565b612449565b005b348015610a6a57600080fd5b50610a856004803603810190610a809190614344565b6124bc565b604051610a9291906142f8565b60405180910390f35b348015610aa757600080fd5b50610ac26004803603810190610abd9190614344565b61261c565b604051610ad0929190614ae6565b60405180910390f35b348015610ae557600080fd5b50610b006004803603810190610afb91906143b1565b612641565b005b348015610b0e57600080fd5b50610b296004803603810190610b2491906144ab565b61268d565b604051610b36919061425e565b60405180910390f35b348015610b4b57600080fd5b50610b666004803603810190610b619190614b16565b6126be565b604051610b739190613edd565b60405180910390f35b348015610b8857600080fd5b50610ba36004803603810190610b9e91906143b1565b612752565b005b348015610bb157600080fd5b50610bcc6004803603810190610bc791906143b1565b61279e565b005b348015610bda57600080fd5b50610bf56004803603810190610bf09190614344565b612821565b005b348015610c0357600080fd5b50610c1e6004803603810190610c1991906144ab565b612833565b005b348015610c2c57600080fd5b50610c476004803603810190610c4291906143b1565b6128fd565b005b348015610c5557600080fd5b50610c5e612949565b604051610c6b9190614329565b60405180910390f35b348015610c8057600080fd5b50610c8961296f565b604051610c96919061425e565b60405180910390f35b60007f41fb5ca1000000000000000000000000000000000000000000000000000000007bffffffffffffffffffffffffffffffffffffffffffffffffffffffff1916827bffffffffffffffffffffffffffffffffffffffffffffffffffffffff19161480610d125750610d1182612975565b5b9050919050565b6000610d236129ef565b82518451148015610d35575081518451145b610d74576040517f08c379a0000000000000000000000000000000000000000000000000000000008152600401610d6b90614ba2565b60405180910390fd5b60005b8451811015610ded57610dd9858281518110610d9657610d95614bc2565b5b6020026020010151858381518110610db157610db0614bc2565b5b6020026020010151858481518110610dcc57610dcb614bc2565b5b60200260200101516114c6565b508080610de590614c20565b915050610d77565b506001610df8612a6d565b610e029190614c68565b90509392505050565b606060028054610e1a90614ccb565b80601f0160208091040260200160405190810160405280929190818152602001828054610e4690614ccb565b8015610e935780601f10610e6857610100808354040283529160200191610e93565b820191906000526020600020905b815481529060010190602001808311610e7657829003601f168201915b5050505050905090565b601060009054906101000a900473ffffffffffffffffffffffffffffffffffffffff1681565b6000610ece82612a76565b610f04576040517fcf4700e400000000000000000000000000000000000000000000000000000000815260040160405180910390fd5b6006600083815260200190815260200160002060000160009054906101000a900473ffffffffffffffffffffffffffffffffffffffff169050919050565b6000610f4d82611bc7565b90508073ffffffffffffffffffffffffffffffffffffffff16610f6e612ad5565b73ffffffffffffffffffffffffffffffffffffffff1614610fd157610f9a81610f95612ad5565b6126be565b610fd0576040517fcfb3b94200000000000000000000000000000000000000000000000000000000815260040160405180910390fd5b5b826006600084815260200190815260200160002060000160006101000a81548173ffffffffffffffffffffffffffffffffffffffff021916908373ffffffffffffffffffffffffffffffffffffffff160217905550818373ffffffffffffffffffffffffffffffffffffffff168273ffffffffffffffffffffffffffffffffffffffff167f8c5be1e5ebec7d5bd14f71427d1e84f3dd0314c0f7b2291e5b200ac8c7c3b92560405160405180910390a4505050565b60126020528060005260406000206000915054906101000a900473ffffffffffffffffffffffffffffffffffffffff1681565b60006040517f08c379a00000000000000000000000000000000000000000000000000000000081526004016110ed90614d48565b60405180910390fd5b6000600c549050919050565b600061110c612a6d565b905090565b600a6020528060005260406000206000915054906101000a900460ff1681565b600061113c82612add565b90508373ffffffffffffffffffffffffffffffffffffffff168173ffffffffffffffffffffffffffffffffffffffff16146111a3576040517fa114810000000000000000000000000000000000000000000000000000000000815260040160405180910390fd5b6000806111af84612ba9565b915091506111c581876111c0612ad5565b612bd0565b611211576111da866111d5612ad5565b6126be565b611210576040517f59c896be00000000000000000000000000000000000000000000000000000000815260040160405180910390fd5b5b600073ffffffffffffffffffffffffffffffffffffffff168573ffffffffffffffffffffffffffffffffffffffff1603611277576040517fea553b3400000000000000000000000000000000000000000000000000000000815260040160405180910390fd5b6112848686866001612c14565b801561128f57600082555b600560008773ffffffffffffffffffffffffffffffffffffffff1673ffffffffffffffffffffffffffffffffffffffff168152602001908152602001600020600081546001900391905081905550600560008673ffffffffffffffffffffffffffffffffffffffff1673ffffffffffffffffffffffffffffffffffffffff168152602001908152602001600020600081546001019190508190555061135d85611339888887612ca4565b7c020000000000000000000000000000000000000000000000000000000017612ccc565b600460008681526020019081526020016000208190555060007c02000000000000000000000000000000000000000000000000000000008416036113e357600060018501905060006004600083815260200190815260200160002054036113e15760005481146113e0578360046000838152602001908152602001600020819055505b5b505b838573ffffffffffffffffffffffffffffffffffffffff168773ffffffffffffffffffffffffffffffffffffffff167fddf252ad1be2c89b69c2b068fc378daa952ba7f163c4a11628f55a4df523b3ef60405160405180910390a461144b8686866001612cf7565b505050505050565b61145b6129ef565b8060158190555050565b600f60009054906101000a900473ffffffffffffffffffffffffffffffffffffffff1681565b6040517f08c379a00000000000000000000000000000000000000000000000000000000081526004016114bd90614d48565b60405180910390fd5b6000601060009054906101000a900473ffffffffffffffffffffffffffffffffffffffff1673ffffffffffffffffffffffffffffffffffffffff163373ffffffffffffffffffffffffffffffffffffffff161480611556575061152761207a565b73ffffffffffffffffffffffffffffffffffffffff163373ffffffffffffffffffffffffffffffffffffffff16145b611595576040517f08c379a000000000000000000000000000000000000000000000000000000000815260040161158c90614db4565b60405180910390fd5b602f6064846115a49190614e03565b11156115e5576040517f08c379a00000000000000000000000000000000000000000000000000000000081526004016115dc90614e80565b60405180910390fd5b60005b828110156116b657600f60009054906101000a900473ffffffffffffffffffffffffffffffffffffffff1673ffffffffffffffffffffffffffffffffffffffff16631b2ef1ca8583611638612a6d565b6116429190614ea0565b6040518363ffffffff1660e01b815260040161165f929190614ed4565b6020604051808303816000875af115801561167e573d6000803e3d6000fd5b505050506040513d601f19601f820116820180604052508101906116a29190614f12565b5080806116ae90614c20565b9150506115e8565b506116c18483612cfd565b60016116cb612a6d565b6116d59190614c68565b90509392505050565b60006009600085815260200190815260200160002054905060008111611739576040517f08c379a000000000000000000000000000000000000000000000000000000000815260040161173090614f8b565b60405180910390fd5b8034101561177c576040517f08c379a000000000000000000000000000000000000000000000000000000000815260040161177390614ff7565b60405180910390fd5b60006117883484612d1b565b905060006117963487612dc0565b905060006117a387611bc7565b905060008190508073ffffffffffffffffffffffffffffffffffffffff166108fc8486346117d19190614c68565b6117db9190614c68565b9081150290604051600060405180830381858888f19350505050158015611806573d6000803e3d6000fd5b506000600960008a81526020019081526020016000208190555061182b82888a612ded565b5050505050505050565b61183d6129ef565b600073ffffffffffffffffffffffffffffffffffffffff16601360009054906101000a900473ffffffffffffffffffffffffffffffffffffffff1673ffffffffffffffffffffffffffffffffffffffff16036118ce576040517f08c379a00000000000000000000000000000000000000000000000000000000081526004016118c590615063565b60405180910390fd5b6000601360009054906101000a900473ffffffffffffffffffffffffffffffffffffffff1673ffffffffffffffffffffffffffffffffffffffff1647604051611916906150b4565b60006040518083038185875af1925050503d8060008114611953576040519150601f19603f3d011682016040523d82523d6000602084013e611958565b606091505b505090508061199c576040517f08c379a000000000000000000000000000000000000000000000000000000000815260040161199390615115565b60405180910390fd5b50565b6119ba83838360405180602001604052806000815250612449565b505050565b606060116000838152602001908152602001600020805480602002602001604051908101604052809291908181526020018280548015611a1e57602002820191906000526020600020905b815481526020019060010190808311611a0a575b50505050509050919050565b60005b8251811015611acd576000838281518110611a4b57611a4a614bc2565b5b6020026020010151118015611a7b5750602f838281518110611a7057611a6f614bc2565b5b602002602001015111155b611aba576040517f08c379a0000000000000000000000000000000000000000000000000000000008152600401611ab190615181565b60405180910390fd5b8080611ac590614c20565b915050611a2d565b50611ad98360016130b1565b81601160008581526020019081526020016000209080519060200190611b00929190613dbf565b50600073ffffffffffffffffffffffffffffffffffffffff168173ffffffffffffffffffffffffffffffffffffffff1614611b8857806012600085815260200190815260200160002060006101000a81548173ffffffffffffffffffffffffffffffffffffffff021916908373ffffffffffffffffffffffffffffffffffffffff1602179055505b827fc02d04215aef5676b10fa9457659d93003c9f8e4b6e36600757e93351ea663be8383604051611bba9291906151a1565b60405180910390a2505050565b6000611bd282612add565b9050919050565b6040517f08c379a0000000000000000000000000000000000000000000000000000000008152600401611c0b90614d48565b60405180910390fd5b600c5481565b60008073ffffffffffffffffffffffffffffffffffffffff168273ffffffffffffffffffffffffffffffffffffffff1603611c81576040517f8f4eb60400000000000000000000000000000000000000000000000000000000815260040160405180910390fd5b67ffffffffffffffff600560008473ffffffffffffffffffffffffffffffffffffffff1673ffffffffffffffffffffffffffffffffffffffff16815260200190815260200160002054169050919050565b611cda6129ef565b611ce4600061318e565b565b600b8054611cf390614ccb565b80601f0160208091040260200160405190810160405280929190818152602001828054611d1f90614ccb565b8015611d6c5780601f10611d4157610100808354040283529160200191611d6c565b820191906000526020600020905b815481529060010190602001808311611d4f57829003601f168201915b505050505081565b601460009054906101000a900473ffffffffffffffffffffffffffffffffffffffff1681565b601554341015611ddf576040517f08c379a0000000000000000000000000000000000000000000000000000000008152600401611dd69061521d565b60405180910390fd5b600073ffffffffffffffffffffffffffffffffffffffff166012600083815260200190815260200160002060009054906101000a900473ffffffffffffffffffffffffffffffffffffffff1673ffffffffffffffffffffffffffffffffffffffff161480611eab57506012600082815260200190815260200160002060009054906101000a900473ffffffffffffffffffffffffffffffffffffffff1673ffffffffffffffffffffffffffffffffffffffff163373ffffffffffffffffffffffffffffffffffffffff16145b611eea576040517f08c379a0000000000000000000000000000000000000000000000000000000008152600401611ee190615289565b60405180910390fd5b600060116000838152602001908152602001600020805490501115612063576000600f60009054906101000a900473ffffffffffffffffffffffffffffffffffffffff1673ffffffffffffffffffffffffffffffffffffffff1663957b3b23846040518263ffffffff1660e01b8152600401611f66919061425e565b6020604051808303816000875af1158015611f85573d6000803e3d6000fd5b505050506040513d601f19601f82011682018060405250810190611fa99190614f12565b90506000805b601160008581526020019081526020016000208054905081101561201f57601160008581526020019081526020016000208181548110611ff257611ff1614bc2565b5b9060005260206000200154830361200c576001915061201f565b808061201790614c20565b915050611faf565b5080612060576040517f08c379a0000000000000000000000000000000000000000000000000000000008152600401612057906152f5565b60405180910390fd5b50505b61206d8282613254565b61207634613359565b5050565b6000600860009054906101000a900473ffffffffffffffffffffffffffffffffffffffff16905090565b6120af8160006130b1565b6060806011600084815260200190815260200160002090805190602001906120d8929190613dbf565b5060006012600084815260200190815260200160002060006101000a81548173ffffffffffffffffffffffffffffffffffffffff021916908373ffffffffffffffffffffffffffffffffffffffff160217905550817f28dad92e7cc5308a2998d22449801e54e49034de5d8586493e68e8a24ac2d41660405160405180910390a25050565b6121656129ef565b80600b908161217491906154b7565b5050565b6121828382612833565b8173ffffffffffffffffffffffffffffffffffffffff16633c6fc8173085846040518463ffffffff1660e01b81526004016121bf939291906155aa565b600060405180830381600087803b1580156121d957600080fd5b505af11580156121ed573d6000803e3d6000fd5b50505050505050565b60606003805461220590614ccb565b80601f016020809104026020016040519081016040528092919081815260200182805461223190614ccb565b801561227e5780601f106122535761010080835404028352916020019161227e565b820191906000526020600020905b81548152906001019060200180831161226157829003601f168201915b5050505050905090565b6000612292611102565b905090565b600d5481565b6122a56129ef565b80600d8190555050565b80600760006122bc612ad5565b73ffffffffffffffffffffffffffffffffffffffff1673ffffffffffffffffffffffffffffffffffffffff16815260200190815260200160002060008473ffffffffffffffffffffffffffffffffffffffff1673ffffffffffffffffffffffffffffffffffffffff16815260200190815260200160002060006101000a81548160ff0219169083151502179055508173ffffffffffffffffffffffffffffffffffffffff16612369612ad5565b73ffffffffffffffffffffffffffffffffffffffff167f17307eab39ab6107e8899845ad3d59bd9653f200f220920489ca2b5937696c31836040516123ae9190613edd565b60405180910390a35050565b600e60009054906101000a900473ffffffffffffffffffffffffffffffffffffffff1681565b6123e86129ef565b80600e60006101000a81548173ffffffffffffffffffffffffffffffffffffffff021916908373ffffffffffffffffffffffffffffffffffffffff16021790555050565b600060096000838152602001908152602001600020549050919050565b612454848484611131565b60008373ffffffffffffffffffffffffffffffffffffffff163b146124b65761247f84848484613365565b6124b5576040517fd1a57ed600000000000000000000000000000000000000000000000000000000815260040160405180910390fd5b5b50505050565b60606124c6612a6d565b8210612507576040517f08c379a00000000000000000000000000000000000000000000000000000000081526004016124fe9061562d565b60405180910390fd5b600080600f60009054906101000a900473ffffffffffffffffffffffffffffffffffffffff1673ffffffffffffffffffffffffffffffffffffffff1663e3f24f02856040518263ffffffff1660e01b8152600401612565919061425e565b600060405180830381865afa158015612582573d6000803e3d6000fd5b505050506040513d6000823e3d601f19601f820116820180604052508101906125ab91906156bd565b9150915060008290506125f36125c0866134b5565b600b6125cb886134e6565b846040516020016125df94939291906159d2565b604051602081830303815290604052613590565b6040516020016126039190615a93565b6040516020818303038152906040529350505050919050565b606060005a905061262c836124bc565b91505a8161263a9190614c68565b9050915091565b6126496129ef565b80601460006101000a81548173ffffffffffffffffffffffffffffffffffffffff021916908373ffffffffffffffffffffffffffffffffffffffff16021790555050565b601160205281600052604060002081815481106126a957600080fd5b90600052602060002001600091509150505481565b6000600760008473ffffffffffffffffffffffffffffffffffffffff1673ffffffffffffffffffffffffffffffffffffffff16815260200190815260200160002060008373ffffffffffffffffffffffffffffffffffffffff1673ffffffffffffffffffffffffffffffffffffffff16815260200190815260200160002060009054906101000a900460ff16905092915050565b61275a6129ef565b80601360006101000a81548173ffffffffffffffffffffffffffffffffffffffff021916908373ffffffffffffffffffffffffffffffffffffffff16021790555050565b6127a66129ef565b600073ffffffffffffffffffffffffffffffffffffffff168173ffffffffffffffffffffffffffffffffffffffff1603612815576040517f08c379a000000000000000000000000000000000000000000000000000000000815260040161280c90615b27565b60405180910390fd5b61281e8161318e565b50565b6128296129ef565b80600c8190555050565b3373ffffffffffffffffffffffffffffffffffffffff1661285383611bc7565b73ffffffffffffffffffffffffffffffffffffffff16146128a9576040517f08c379a00000000000000000000000000000000000000000000000000000000081526004016128a090615b93565b60405180910390fd5b806009600084815260200190815260200160002081905550817ff9317dc3bc6dda0e00e43855c2c30847aeafb8dcea9d2ce86e9ce7a83d549f01826040516128f1919061425e565b60405180910390a25050565b6129056129ef565b80601060006101000a81548173ffffffffffffffffffffffffffffffffffffffff021916908373ffffffffffffffffffffffffffffffffffffffff16021790555050565b601360009054906101000a900473ffffffffffffffffffffffffffffffffffffffff1681565b60155481565b60007fe019895a000000000000000000000000000000000000000000000000000000007bffffffffffffffffffffffffffffffffffffffffffffffffffffffff1916827bffffffffffffffffffffffffffffffffffffffffffffffffffffffff191614806129e857506129e782613708565b5b9050919050565b6129f761379a565b73ffffffffffffffffffffffffffffffffffffffff16612a1561207a565b73ffffffffffffffffffffffffffffffffffffffff1614612a6b576040517f08c379a0000000000000000000000000000000000000000000000000000000008152600401612a6290615bff565b60405180910390fd5b565b60008054905090565b600081612a816137a2565b11158015612a90575060005482105b8015612ace575060007c0100000000000000000000000000000000000000000000000000000000600460008581526020019081526020016000205416145b9050919050565b600033905090565b60008082905080612aec6137a2565b11612b7257600054811015612b715760006004600083815260200190815260200160002054905060007c0100000000000000000000000000000000000000000000000000000000821603612b6f575b60008103612b65576004600083600190039350838152602001908152602001600020549050612b3b565b8092505050612ba4565b505b5b6040517fdf2d9b4200000000000000000000000000000000000000000000000000000000815260040160405180910390fd5b919050565b60008060006006600085815260200190815260200160002090508092508254915050915091565b600073ffffffffffffffffffffffffffffffffffffffff8316925073ffffffffffffffffffffffffffffffffffffffff821691508382148383141790509392505050565b606080601160008581526020019081526020016000209080519060200190612c3d929190613dbf565b5060006012600085815260200190815260200160002060006101000a81548173ffffffffffffffffffffffffffffffffffffffff021916908373ffffffffffffffffffffffffffffffffffffffff160217905550612c9d858585856137a7565b5050505050565b60008060e883901c905060e8612cbb8686846137fe565b62ffffff16901b9150509392505050565b600073ffffffffffffffffffffffffffffffffffffffff83169250814260a01b178317905092915050565b50505050565b612d17828260405180602001604052806000815250613807565b5050565b60008073ffffffffffffffffffffffffffffffffffffffff168273ffffffffffffffffffffffffffffffffffffffff1614612dba576103e8601984612d609190615c1f565b612d6a9190615c61565b905060008290508073ffffffffffffffffffffffffffffffffffffffff166108fc839081150290604051600060405180830381858888f19350505050158015612db7573d6000803e3d6000fd5b50505b92915050565b60006103e8606484612dd29190615c1f565b612ddc9190615c61565b9050612de7816138a4565b92915050565b6000612df882612add565b90508373ffffffffffffffffffffffffffffffffffffffff168173ffffffffffffffffffffffffffffffffffffffff1614612e5f576040517fa114810000000000000000000000000000000000000000000000000000000000815260040160405180910390fd5b600080612e6b84612ba9565b91509150600073ffffffffffffffffffffffffffffffffffffffff168573ffffffffffffffffffffffffffffffffffffffff1603612ed5576040517fea553b3400000000000000000000000000000000000000000000000000000000815260040160405180910390fd5b612ee28686866001612c14565b8015612eed57600082555b600560008773ffffffffffffffffffffffffffffffffffffffff1673ffffffffffffffffffffffffffffffffffffffff168152602001908152602001600020600081546001900391905081905550600560008673ffffffffffffffffffffffffffffffffffffffff1673ffffffffffffffffffffffffffffffffffffffff1681526020019081526020016000206000815460010191905081905550612fbb85612f97888887612ca4565b7c020000000000000000000000000000000000000000000000000000000017612ccc565b600460008681526020019081526020016000208190555060007c0200000000000000000000000000000000000000000000000000000000841603613041576000600185019050600060046000838152602001908152602001600020540361303f57600054811461303e578360046000838152602001908152602001600020819055505b5b505b838573ffffffffffffffffffffffffffffffffffffffff168773ffffffffffffffffffffffffffffffffffffffff167fddf252ad1be2c89b69c2b068fc378daa952ba7f163c4a11628f55a4df523b3ef60405160405180910390a46130a98686866001612cf7565b505050505050565b3373ffffffffffffffffffffffffffffffffffffffff166130d183611bc7565b73ffffffffffffffffffffffffffffffffffffffff1614613127576040517f08c379a000000000000000000000000000000000000000000000000000000000815260040161311e90615cde565b60405180910390fd5b80600a600084815260200190815260200160002060006101000a81548160ff021916908315150217905550817f0931e6600146b3ef83884d0f5e5c304a68cbc6c0ebba0617323021751e9a7917826040516131829190613edd565b60405180910390a25050565b6000600860009054906101000a900473ffffffffffffffffffffffffffffffffffffffff16905081600860006101000a81548173ffffffffffffffffffffffffffffffffffffffff021916908373ffffffffffffffffffffffffffffffffffffffff1602179055508173ffffffffffffffffffffffffffffffffffffffff168173ffffffffffffffffffffffffffffffffffffffff167f8be0079c531659141344cd1fd0a4f28419497f9722a3daafe3b4186f6b6457e060405160405180910390a35050565b3373ffffffffffffffffffffffffffffffffffffffff1661327483611bc7565b73ffffffffffffffffffffffffffffffffffffffff16146132ca576040517f08c379a00000000000000000000000000000000000000000000000000000000081526004016132c190615cde565b60405180910390fd5b60011515600a600083815260200190815260200160002060009054906101000a900460ff16151514613331576040517f08c379a000000000000000000000000000000000000000000000000000000000815260040161332890615d4a565b60405180910390fd5b600061333c82611bc7565b9050613349338285612ded565b613354813384612ded565b505050565b613362816138a4565b50565b60008373ffffffffffffffffffffffffffffffffffffffff1663150b7a0261338b612ad5565b8786866040518563ffffffff1660e01b81526004016133ad9493929190615db4565b6020604051808303816000875af19250505080156133e957506040513d601f19601f820116820180604052508101906133e69190615e15565b60015b613462573d8060008114613419576040519150601f19603f3d011682016040523d82523d6000602084013e61341e565b606091505b50600081510361345a576040517fd1a57ed600000000000000000000000000000000000000000000000000000000815260040160405180910390fd5b805181602001fd5b63150b7a0260e01b7bffffffffffffffffffffffffffffffffffffffffffffffffffffffff1916817bffffffffffffffffffffffffffffffffffffffffffffffffffffffff191614915050949350505050565b60606134c08261391c565b6040516020016134d09190615e8e565b6040516020818303038152906040529050919050565b6060600e60009054906101000a900473ffffffffffffffffffffffffffffffffffffffff1673ffffffffffffffffffffffffffffffffffffffff166379b92f27836040518263ffffffff1660e01b8152600401613543919061425e565b600060405180830381865afa158015613560573d6000803e3d6000fd5b505050506040513d6000823e3d601f19601f820116820180604052508101906135899190615eb0565b9050919050565b606060008251036135b257604051806020016040528060008152509050613703565b6000604051806060016040528060408152602001615f6660409139905060006003600285516135e19190614ea0565b6135eb9190615c61565b60046135f79190615c1f565b905060006020826136089190614ea0565b67ffffffffffffffff81111561362157613620613f0e565b5b6040519080825280601f01601f1916602001820160405280156136535781602001600182028036833780820191505090505b509050818152600183018586518101602084015b818310156136c2576003830192508251603f8160121c168501518253600182019150603f81600c1c168501518253600182019150603f8160061c168501518253600182019150603f8116850151825360018201915050613667565b6003895106600181146136dc57600281146136ec576136f7565b613d3d60f01b60028303526136f7565b603d60f81b60018303525b50505050508093505050505b919050565b60006301ffc9a760e01b827bffffffffffffffffffffffffffffffffffffffffffffffffffffffff1916148061376357506380ac58cd60e01b827bffffffffffffffffffffffffffffffffffffffffffffffffffffffff1916145b806137935750635b5e139f60e01b827bffffffffffffffffffffffffffffffffffffffffffffffffffffffff1916145b9050919050565b600033905090565b600090565b6000600a600084815260200190815260200160002060006101000a81548160ff021916908315150217905550600060096000848152602001908152602001600020819055506137f8848484846139ea565b50505050565b60009392505050565b61381183836139f0565b60008373ffffffffffffffffffffffffffffffffffffffff163b1461389f57600080549050600083820390505b6138516000868380600101945086613365565b613887576040517fd1a57ed600000000000000000000000000000000000000000000000000000000815260040160405180910390fd5b81811061383e57816000541461389c57600080fd5b50505b505050565b60006002826138b39190615c61565b90506138e1601360009054906101000a900473ffffffffffffffffffffffffffffffffffffffff1682613bab565b613918601460009054906101000a900473ffffffffffffffffffffffffffffffffffffffff1682846139139190614c68565b613bab565b5050565b60606000600161392b84613c5c565b01905060008167ffffffffffffffff81111561394a57613949613f0e565b5b6040519080825280601f01601f19166020018201604052801561397c5781602001600182028036833780820191505090505b509050600082602001820190505b6001156139df578080600190039150507f3031323334353637383961626364656600000000000000000000000000000000600a86061a8153600a85816139d3576139d2614dd4565b5b0494506000850361398a575b819350505050919050565b50505050565b60008054905060008203613a30576040517fb562e8dd00000000000000000000000000000000000000000000000000000000815260040160405180910390fd5b613a3d6000848385612c14565b600160406001901b178202600560008573ffffffffffffffffffffffffffffffffffffffff1673ffffffffffffffffffffffffffffffffffffffff16815260200190815260200160002060008282540192505081905550613ab483613aa56000866000612ca4565b613aae85613daf565b17612ccc565b6004600083815260200190815260200160002081905550600080838301905073ffffffffffffffffffffffffffffffffffffffff85169150828260007fddf252ad1be2c89b69c2b068fc378daa952ba7f163c4a11628f55a4df523b3ef600080a4600183015b818114613b5557808360007fddf252ad1be2c89b69c2b068fc378daa952ba7f163c4a11628f55a4df523b3ef600080a4600181019050613b1a565b5060008203613b90576040517f2e07630000000000000000000000000000000000000000000000000000000000815260040160405180910390fd5b806000819055505050613ba66000848385612cf7565b505050565b60008273ffffffffffffffffffffffffffffffffffffffff1682604051613bd1906150b4565b60006040518083038185875af1925050503d8060008114613c0e576040519150601f19603f3d011682016040523d82523d6000602084013e613c13565b606091505b5050905080613c57576040517f08c379a0000000000000000000000000000000000000000000000000000000008152600401613c4e90615f45565b60405180910390fd5b505050565b600080600090507a184f03e93ff9f4daa797ed6e38ed64bf6a1f0100000000000000008310613cba577a184f03e93ff9f4daa797ed6e38ed64bf6a1f0100000000000000008381613cb057613caf614dd4565b5b0492506040810190505b6d04ee2d6d415b85acef81000000008310613cf7576d04ee2d6d415b85acef81000000008381613ced57613cec614dd4565b5b0492506020810190505b662386f26fc100008310613d2657662386f26fc100008381613d1c57613d1b614dd4565b5b0492506010810190505b6305f5e1008310613d4f576305f5e1008381613d4557613d44614dd4565b5b0492506008810190505b6127108310613d74576127108381613d6a57613d69614dd4565b5b0492506004810190505b60648310613d975760648381613d8d57613d8c614dd4565b5b0492506002810190505b600a8310613da6576001810190505b80915050919050565b60006001821460e11b9050919050565b828054828255906000526020600020908101928215613dfb579160200282015b82811115613dfa578251825591602001919060010190613ddf565b5b509050613e089190613e0c565b5090565b5b80821115613e25576000816000905550600101613e0d565b5090565b6000604051905090565b600080fd5b600080fd5b60007fffffffff0000000000000000000000000000000000000000000000000000000082169050919050565b613e7281613e3d565b8114613e7d57600080fd5b50565b600081359050613e8f81613e69565b92915050565b600060208284031215613eab57613eaa613e33565b5b6000613eb984828501613e80565b91505092915050565b60008115159050919050565b613ed781613ec2565b82525050565b6000602082019050613ef26000830184613ece565b92915050565b600080fd5b6000601f19601f8301169050919050565b7f4e487b7100000000000000000000000000000000000000000000000000000000600052604160045260246000fd5b613f4682613efd565b810181811067ffffffffffffffff82111715613f6557613f64613f0e565b5b80604052505050565b6000613f78613e29565b9050613f848282613f3d565b919050565b600067ffffffffffffffff821115613fa457613fa3613f0e565b5b602082029050602081019050919050565b600080fd5b600073ffffffffffffffffffffffffffffffffffffffff82169050919050565b6000613fe582613fba565b9050919050565b613ff581613fda565b811461400057600080fd5b50565b60008135905061401281613fec565b92915050565b600061402b61402684613f89565b613f6e565b9050808382526020820190506020840283018581111561404e5761404d613fb5565b5b835b8181101561407757806140638882614003565b845260208401935050602081019050614050565b5050509392505050565b600082601f83011261409657614095613ef8565b5b81356140a6848260208601614018565b91505092915050565b600067ffffffffffffffff8211156140ca576140c9613f0e565b5b602082029050602081019050919050565b6000819050919050565b6140ee816140db565b81146140f957600080fd5b50565b60008135905061410b816140e5565b92915050565b600061412461411f846140af565b613f6e565b9050808382526020820190506020840283018581111561414757614146613fb5565b5b835b81811015614170578061415c88826140fc565b845260208401935050602081019050614149565b5050509392505050565b600082601f83011261418f5761418e613ef8565b5b813561419f848260208601614111565b91505092915050565b6000806000606084860312156141c1576141c0613e33565b5b600084013567ffffffffffffffff8111156141df576141de613e38565b5b6141eb86828701614081565b935050602084013567ffffffffffffffff81111561420c5761420b613e38565b5b6142188682870161417a565b925050604084013567ffffffffffffffff81111561423957614238613e38565b5b6142458682870161417a565b9150509250925092565b614258816140db565b82525050565b6000602082019050614273600083018461424f565b92915050565b600081519050919050565b600082825260208201905092915050565b60005b838110156142b3578082015181840152602081019050614298565b60008484015250505050565b60006142ca82614279565b6142d48185614284565b93506142e4818560208601614295565b6142ed81613efd565b840191505092915050565b6000602082019050818103600083015261431281846142bf565b905092915050565b61432381613fda565b82525050565b600060208201905061433e600083018461431a565b92915050565b60006020828403121561435a57614359613e33565b5b6000614368848285016140fc565b91505092915050565b6000806040838503121561438857614387613e33565b5b600061439685828601614003565b92505060206143a7858286016140fc565b9150509250929050565b6000602082840312156143c7576143c6613e33565b5b60006143d584828501614003565b91505092915050565b6000806000606084860312156143f7576143f6613e33565b5b600061440586828701614003565b935050602061441686828701614003565b9250506040614427868287016140fc565b9150509250925092565b6000819050919050565b600061445661445161444c84613fba565b614431565b613fba565b9050919050565b60006144688261443b565b9050919050565b600061447a8261445d565b9050919050565b61448a8161446f565b82525050565b60006020820190506144a56000830184614481565b92915050565b600080604083850312156144c2576144c1613e33565b5b60006144d0858286016140fc565b92505060206144e1858286016140fc565b9150509250929050565b60008060006060848603121561450457614503613e33565b5b600061451286828701614003565b9350506020614523868287016140fc565b9250506040614534868287016140fc565b9150509250925092565b60008060006060848603121561455757614556613e33565b5b6000614565868287016140fc565b935050602061457686828701614003565b925050604061458786828701614003565b9150509250925092565b600081519050919050565b600082825260208201905092915050565b6000819050602082019050919050565b6145c6816140db565b82525050565b60006145d883836145bd565b60208301905092915050565b6000602082019050919050565b60006145fc82614591565b614606818561459c565b9350614611836145ad565b8060005b8381101561464257815161462988826145cc565b9750614634836145e4565b925050600181019050614615565b5085935050505092915050565b6000602082019050818103600083015261466981846145f1565b905092915050565b60008060006060848603121561468a57614689613e33565b5b6000614698868287016140fc565b935050602084013567ffffffffffffffff8111156146b9576146b8613e38565b5b6146c58682870161417a565b92505060406146d686828701614003565b9150509250925092565b6146e981613ec2565b81146146f457600080fd5b50565b600081359050614706816146e0565b92915050565b6000806040838503121561472357614722613e33565b5b6000614731858286016140fc565b9250506020614742858286016146f7565b9150509250929050565b600080fd5b600067ffffffffffffffff82111561476c5761476b613f0e565b5b61477582613efd565b9050602081019050919050565b82818337600083830152505050565b60006147a461479f84614751565b613f6e565b9050828152602081018484840111156147c0576147bf61474c565b5b6147cb848285614782565b509392505050565b600082601f8301126147e8576147e7613ef8565b5b81356147f8848260208601614791565b91505092915050565b60006020828403121561481757614816613e33565b5b600082013567ffffffffffffffff81111561483557614834613e38565b5b614841848285016147d3565b91505092915050565b600061485582613fda565b9050919050565b6148658161484a565b811461487057600080fd5b50565b6000813590506148828161485c565b92915050565b6000806000606084860312156148a1576148a0613e33565b5b60006148af868287016140fc565b93505060206148c086828701614873565b92505060406148d1868287016140fc565b9150509250925092565b600080604083850312156148f2576148f1613e33565b5b600061490085828601614003565b9250506020614911858286016146f7565b9150509250929050565b60006149268261445d565b9050919050565b6149368161491b565b82525050565b6000602082019050614951600083018461492d565b92915050565b600061496282613fda565b9050919050565b61497281614957565b811461497d57600080fd5b50565b60008135905061498f81614969565b92915050565b6000602082840312156149ab576149aa613e33565b5b60006149b984828501614980565b91505092915050565b600067ffffffffffffffff8211156149dd576149dc613f0e565b5b6149e682613efd565b9050602081019050919050565b6000614a06614a01846149c2565b613f6e565b905082815260208101848484011115614a2257614a2161474c565b5b614a2d848285614782565b509392505050565b600082601f830112614a4a57614a49613ef8565b5b8135614a5a8482602086016149f3565b91505092915050565b60008060008060808587031215614a7d57614a7c613e33565b5b6000614a8b87828801614003565b9450506020614a9c87828801614003565b9350506040614aad878288016140fc565b925050606085013567ffffffffffffffff811115614ace57614acd613e38565b5b614ada87828801614a35565b91505092959194509250565b60006040820190508181036000830152614b0081856142bf565b9050614b0f602083018461424f565b9392505050565b60008060408385031215614b2d57614b2c613e33565b5b6000614b3b85828601614003565b9250506020614b4c85828601614003565b9150509250929050565b7f496e76616c696420417272617973206c656e6774680000000000000000000000600082015250565b6000614b8c601583614284565b9150614b9782614b56565b602082019050919050565b60006020820190508181036000830152614bbb81614b7f565b9050919050565b7f4e487b7100000000000000000000000000000000000000000000000000000000600052603260045260246000fd5b7f4e487b7100000000000000000000000000000000000000000000000000000000600052601160045260246000fd5b6000614c2b826140db565b91507fffffffffffffffffffffffffffffffffffffffffffffffffffffffffffffffff8203614c5d57614c5c614bf1565b5b600182019050919050565b6000614c73826140db565b9150614c7e836140db565b9250828203905081811115614c9657614c95614bf1565b5b92915050565b7f4e487b7100000000000000000000000000000000000000000000000000000000600052602260045260246000fd5b60006002820490506001821680614ce357607f821691505b602082108103614cf657614cf5614c9c565b5b50919050565b7f43616e6e6f742075736500000000000000000000000000000000000000000000600082015250565b6000614d32600a83614284565b9150614d3d82614cfc565b602082019050919050565b60006020820190508181036000830152614d6181614d25565b9050919050565b7f496e76616c69642073656e646572000000000000000000000000000000000000600082015250565b6000614d9e600e83614284565b9150614da982614d68565b602082019050919050565b60006020820190508181036000830152614dcd81614d91565b9050919050565b7f4e487b7100000000000000000000000000000000000000000000000000000000600052601260045260246000fd5b6000614e0e826140db565b9150614e19836140db565b925082614e2957614e28614dd4565b5b828206905092915050565b7f496e76616c696420707265666563747572654964000000000000000000000000600082015250565b6000614e6a601483614284565b9150614e7582614e34565b602082019050919050565b60006020820190508181036000830152614e9981614e5d565b9050919050565b6000614eab826140db565b9150614eb6836140db565b9250828201905080821115614ece57614ecd614bf1565b5b92915050565b6000604082019050614ee9600083018561424f565b614ef6602083018461424f565b9392505050565b600081519050614f0c816140e5565b92915050565b600060208284031215614f2857614f27613e33565b5b6000614f3684828501614efd565b91505092915050565b7f546f6b656e206973206e6f74206f6e2073616c65000000000000000000000000600082015250565b6000614f75601483614284565b9150614f8082614f3f565b602082019050919050565b60006020820190508181036000830152614fa481614f68565b9050919050565b7f4e6f7420656e6f7567682066756e640000000000000000000000000000000000600082015250565b6000614fe1600f83614284565b9150614fec82614fab565b602082019050919050565b6000602082019050818103600083015261501081614fd4565b9050919050565b7f53686f756c646e27742062652030000000000000000000000000000000000000600082015250565b600061504d600e83614284565b915061505882615017565b602082019050919050565b6000602082019050818103600083015261507c81615040565b9050919050565b600081905092915050565b50565b600061509e600083615083565b91506150a98261508e565b600082019050919050565b60006150bf82615091565b9150819050919050565b7f6661696c656420746f206d6f76652066756e6400000000000000000000000000600082015250565b60006150ff601383614284565b915061510a826150c9565b602082019050919050565b6000602082019050818103600083015261512e816150f2565b9050919050565b7f696e636f72726563742070726566656375747265206964000000000000000000600082015250565b600061516b601783614284565b915061517682615135565b602082019050919050565b6000602082019050818103600083015261519a8161515e565b9050919050565b600060408201905081810360008301526151bb81856145f1565b90506151ca602083018461431a565b9392505050565b7f496e73756666696369616c20726f79616c747900000000000000000000000000600082015250565b6000615207601383614284565b9150615212826151d1565b602082019050919050565b60006020820190508181036000830152615236816151fa565b9050919050565b7f4c696d6974656420616464726573732063616e20747261646500000000000000600082015250565b6000615273601983614284565b915061527e8261523d565b602082019050919050565b600060208201905081810360008301526152a281615266565b9050919050565b7f756e6d6174636820746f207468652077616e7473206c69737400000000000000600082015250565b60006152df601983614284565b91506152ea826152a9565b602082019050919050565b6000602082019050818103600083015261530e816152d2565b9050919050565b60008190508160005260206000209050919050565b60006020601f8301049050919050565b600082821b905092915050565b6000600883026153777fffffffffffffffffffffffffffffffffffffffffffffffffffffffffffffffff8261533a565b615381868361533a565b95508019841693508086168417925050509392505050565b60006153b46153af6153aa846140db565b614431565b6140db565b9050919050565b6000819050919050565b6153ce83615399565b6153e26153da826153bb565b848454615347565b825550505050565b600090565b6153f76153ea565b6154028184846153c5565b505050565b5b818110156154265761541b6000826153ef565b600181019050615408565b5050565b601f82111561546b5761543c81615315565b6154458461532a565b81016020851015615454578190505b6154686154608561532a565b830182615407565b50505b505050565b600082821c905092915050565b600061548e60001984600802615470565b1980831691505092915050565b60006154a7838361547d565b9150826002028217905092915050565b6154c082614279565b67ffffffffffffffff8111156154d9576154d8613f0e565b5b6154e38254614ccb565b6154ee82828561542a565b600060209050601f831160018114615521576000841561550f578287015190505b615519858261549b565b865550615581565b601f19841661552f86615315565b60005b8281101561555757848901518255600182019150602085019450602081019050615532565b868310156155745784890151615570601f89168261547d565b8355505b6001600288020188555050505b505050505050565b60006155948261445d565b9050919050565b6155a481615589565b82525050565b60006060820190506155bf600083018661559b565b6155cc602083018561424f565b6155d9604083018461424f565b949350505050565b7f6e6f6e6578697374656e7420746f6b656e000000000000000000000000000000600082015250565b6000615617601183614284565b9150615622826155e1565b602082019050919050565b600060208201905081810360008301526156468161560a565b9050919050565b600061566061565b84614751565b613f6e565b90508281526020810184848401111561567c5761567b61474c565b5b615687848285614295565b509392505050565b600082601f8301126156a4576156a3613ef8565b5b81516156b484826020860161564d565b91505092915050565b600080604083850312156156d4576156d3613e33565b5b600083015167ffffffffffffffff8111156156f2576156f1613e38565b5b6156fe8582860161568f565b925050602083015167ffffffffffffffff81111561571f5761571e613e38565b5b61572b8582860161568f565b9150509250929050565b600081905092915050565b7f7b226e616d65223a220000000000000000000000000000000000000000000000600082015250565b6000615776600983615735565b915061578182615740565b600982019050919050565b600061579782614279565b6157a18185615735565b93506157b1818560208601614295565b80840191505092915050565b7f222c226465736372697074696f6e223a22000000000000000000000000000000600082015250565b60006157f3601183615735565b91506157fe826157bd565b601182019050919050565b6000815461581681614ccb565b6158208186615735565b9450600182166000811461583b576001811461585057615883565b60ff1983168652811515820286019350615883565b61585985615315565b60005b8381101561587b5781548189015260018201915060208101905061585c565b838801955050505b50505092915050565b7f222c2261747472696275746573223a5b00000000000000000000000000000000600082015250565b60006158c2601083615735565b91506158cd8261588c565b601082019050919050565b600081519050919050565b60006158ee826158d8565b6158f88185615083565b9350615908818560208601614295565b80840191505092915050565b7f5d2c22696d616765223a22646174613a696d6167652f7376672b786d6c3b626160008201527f736536342c000000000000000000000000000000000000000000000000000000602082015250565b6000615970602583615735565b915061597b82615914565b602582019050919050565b7f227d000000000000000000000000000000000000000000000000000000000000600082015250565b60006159bc600283615735565b91506159c782615986565b600282019050919050565b60006159dd82615769565b91506159e9828761578c565b91506159f4826157e6565b9150615a008286615809565b9150615a0b826158b5565b9150615a1782856158e3565b9150615a2282615963565b9150615a2e82846158e3565b9150615a39826159af565b915081905095945050505050565b7f646174613a6170706c69636174696f6e2f6a736f6e3b6261736536342c000000600082015250565b6000615a7d601d83615735565b9150615a8882615a47565b601d82019050919050565b6000615a9e82615a70565b9150615aaa828461578c565b915081905092915050565b7f4f776e61626c653a206e6577206f776e657220697320746865207a65726f206160008201527f6464726573730000000000000000000000000000000000000000000000000000602082015250565b6000615b11602683614284565b9150615b1c82615ab5565b604082019050919050565b60006020820190508181036000830152615b4081615b04565b9050919050565b7f4f6e6c7920746865206f6e7765722063616e2073657420746865207072696365600082015250565b6000615b7d602083614284565b9150615b8882615b47565b602082019050919050565b60006020820190508181036000830152615bac81615b70565b9050919050565b7f4f776e61626c653a2063616c6c6572206973206e6f7420746865206f776e6572600082015250565b6000615be9602083614284565b9150615bf482615bb3565b602082019050919050565b60006020820190508181036000830152615c1881615bdc565b9050919050565b6000615c2a826140db565b9150615c35836140db565b9250828202615c43816140db565b91508282048414831517615c5a57615c59614bf1565b5b5092915050565b6000615c6c826140db565b9150615c77836140db565b925082615c8757615c86614dd4565b5b828204905092915050565b7f4f6e6c7920746865206f6e7765722063616e2074726164650000000000000000600082015250565b6000615cc8601883614284565b9150615cd382615c92565b602082019050919050565b60006020820190508181036000830152615cf781615cbb565b9050919050565b7f546172676574546f6b656e4964206973206e6f74206f6e207472616465000000600082015250565b6000615d34601d83614284565b9150615d3f82615cfe565b602082019050919050565b60006020820190508181036000830152615d6381615d27565b9050919050565b600082825260208201905092915050565b6000615d86826158d8565b615d908185615d6a565b9350615da0818560208601614295565b615da981613efd565b840191505092915050565b6000608082019050615dc9600083018761431a565b615dd6602083018661431a565b615de3604083018561424f565b8181036060830152615df58184615d7b565b905095945050505050565b600081519050615e0f81613e69565b92915050565b600060208284031215615e2b57615e2a613e33565b5b6000615e3984828501615e00565b91505092915050565b7f4c6f63616c204e6f756e73200000000000000000000000000000000000000000600082015250565b6000615e78600c83615735565b9150615e8382615e42565b600c82019050919050565b6000615e9982615e6b565b9150615ea5828461578c565b915081905092915050565b600060208284031215615ec657615ec5613e33565b5b600082015167ffffffffffffffff811115615ee457615ee3613e38565b5b615ef08482850161568f565b91505092915050565b7f4661696c656420746f2073656e64000000000000000000000000000000000000600082015250565b6000615f2f600e83614284565b9150615f3a82615ef9565b602082019050919050565b60006020820190508181036000830152615f5e81615f22565b905091905056fe4142434445464748494a4b4c4d4e4f505152535455565758595a6162636465666768696a6b6c6d6e6f707172737475767778797a303132333435363738392b2fa2646970667358221220d35c7596d066f10fe0ccf26636da8faedb896341fddd35d961d4fef80751f49064736f6c63430008110033",
  "linkReferences": {},
  "deployedLinkReferences": {}
}