{
  "_format": "hh-sol-artifact-1",
  "contractName": "LocalNounsToken",
  "sourceName": "contracts/LocalNounsToken.sol",
  "abi": [
    {
      "inputs": [
        {
          "internalType": "contract IAssetProviderExMint",
          "name": "_assetProvider",
          "type": "address"
        },
        {
          "internalType": "address",
          "name": "_minter",
          "type": "address"
        }
      ],
      "stateMutability": "nonpayable",
      "type": "constructor"
    },
    {
      "inputs": [],
      "name": "ApprovalCallerNotOwnerNorApproved",
      "type": "error"
    },
    {
      "inputs": [],
      "name": "ApprovalQueryForNonexistentToken",
      "type": "error"
    },
    {
      "inputs": [],
      "name": "BalanceQueryForZeroAddress",
      "type": "error"
    },
    {
      "inputs": [],
      "name": "MintERC2309QuantityExceedsLimit",
      "type": "error"
    },
    {
      "inputs": [],
      "name": "MintToZeroAddress",
      "type": "error"
    },
    {
      "inputs": [],
      "name": "MintZeroQuantity",
      "type": "error"
    },
    {
      "inputs": [],
      "name": "OwnerQueryForNonexistentToken",
      "type": "error"
    },
    {
      "inputs": [],
      "name": "OwnershipNotInitializedForExtraData",
      "type": "error"
    },
    {
      "inputs": [],
      "name": "TransferCallerNotOwnerNorApproved",
      "type": "error"
    },
    {
      "inputs": [],
      "name": "TransferFromIncorrectOwner",
      "type": "error"
    },
    {
      "inputs": [],
      "name": "TransferToNonERC721ReceiverImplementer",
      "type": "error"
    },
    {
      "inputs": [],
      "name": "TransferToZeroAddress",
      "type": "error"
    },
    {
      "inputs": [],
      "name": "URIQueryForNonexistentToken",
      "type": "error"
    },
    {
      "anonymous": false,
      "inputs": [
        {
          "indexed": true,
          "internalType": "address",
          "name": "owner",
          "type": "address"
        },
        {
          "indexed": true,
          "internalType": "address",
          "name": "approved",
          "type": "address"
        },
        {
          "indexed": true,
          "internalType": "uint256",
          "name": "tokenId",
          "type": "uint256"
        }
      ],
      "name": "Approval",
      "type": "event"
    },
    {
      "anonymous": false,
      "inputs": [
        {
          "indexed": true,
          "internalType": "address",
          "name": "owner",
          "type": "address"
        },
        {
          "indexed": true,
          "internalType": "address",
          "name": "operator",
          "type": "address"
        },
        {
          "indexed": false,
          "internalType": "bool",
          "name": "approved",
          "type": "bool"
        }
      ],
      "name": "ApprovalForAll",
      "type": "event"
    },
    {
      "anonymous": false,
      "inputs": [
        {
          "indexed": true,
          "internalType": "uint256",
          "name": "tokenId",
          "type": "uint256"
        }
      ],
      "name": "CancelTradePrefecture",
      "type": "event"
    },
    {
      "anonymous": false,
      "inputs": [
        {
          "indexed": true,
          "internalType": "uint256",
          "name": "fromTokenId",
          "type": "uint256"
        },
        {
          "indexed": false,
          "internalType": "uint256",
          "name": "toTokenId",
          "type": "uint256"
        },
        {
          "indexed": true,
          "internalType": "address",
          "name": "from",
          "type": "address"
        },
        {
          "indexed": true,
          "internalType": "address",
          "name": "to",
          "type": "address"
        }
      ],
      "name": "ConsecutiveTransfer",
      "type": "event"
    },
    {
      "anonymous": false,
      "inputs": [
        {
          "indexed": true,
          "internalType": "address",
          "name": "previousOwner",
          "type": "address"
        },
        {
          "indexed": true,
          "internalType": "address",
          "name": "newOwner",
          "type": "address"
        }
      ],
      "name": "OwnershipTransferred",
      "type": "event"
    },
    {
      "anonymous": false,
      "inputs": [
        {
          "indexed": true,
          "internalType": "uint256",
          "name": "tokenId",
          "type": "uint256"
        },
        {
          "indexed": false,
          "internalType": "bool",
          "name": "_isOnTrade",
          "type": "bool"
        }
      ],
      "name": "PutTrade",
      "type": "event"
    },
    {
      "anonymous": false,
      "inputs": [
        {
          "indexed": true,
          "internalType": "uint256",
          "name": "tokenId",
          "type": "uint256"
        },
        {
          "indexed": false,
          "internalType": "uint256[]",
          "name": "_prefectures",
          "type": "uint256[]"
        }
      ],
      "name": "PutTradePrefecture",
      "type": "event"
    },
    {
      "anonymous": false,
      "inputs": [
        {
          "indexed": true,
          "internalType": "uint256",
          "name": "tokenId",
          "type": "uint256"
        },
        {
          "indexed": false,
          "internalType": "uint256",
          "name": "price",
          "type": "uint256"
        }
      ],
      "name": "SetPrice",
      "type": "event"
    },
    {
      "anonymous": false,
      "inputs": [
        {
          "indexed": true,
          "internalType": "address",
          "name": "from",
          "type": "address"
        },
        {
          "indexed": true,
          "internalType": "address",
          "name": "to",
          "type": "address"
        },
        {
          "indexed": true,
          "internalType": "uint256",
          "name": "tokenId",
          "type": "uint256"
        }
      ],
      "name": "Transfer",
      "type": "event"
    },
    {
      "inputs": [
        {
          "internalType": "uint256",
          "name": "_tokenId",
          "type": "uint256"
        },
        {
          "internalType": "contract IERC721Marketplace",
          "name": "_dealer",
          "type": "address"
        },
        {
          "internalType": "uint256",
          "name": "_price",
          "type": "uint256"
        }
      ],
      "name": "acceptOffer",
      "outputs": [],
      "stateMutability": "nonpayable",
      "type": "function"
    },
    {
      "inputs": [],
      "name": "administratorsAddress",
      "outputs": [
        {
          "internalType": "address",
          "name": "",
          "type": "address"
        }
      ],
      "stateMutability": "view",
      "type": "function"
    },
    {
      "inputs": [
        {
          "internalType": "address",
          "name": "to",
          "type": "address"
        },
        {
          "internalType": "uint256",
          "name": "tokenId",
          "type": "uint256"
        }
      ],
      "name": "approve",
      "outputs": [],
      "stateMutability": "payable",
      "type": "function"
    },
    {
      "inputs": [],
      "name": "assetProvider",
      "outputs": [
        {
          "internalType": "contract IAssetProvider",
          "name": "",
          "type": "address"
        }
      ],
      "stateMutability": "view",
      "type": "function"
    },
    {
      "inputs": [],
      "name": "assetProvider2",
      "outputs": [
        {
          "internalType": "contract IAssetProviderExMint",
          "name": "",
          "type": "address"
        }
      ],
      "stateMutability": "view",
      "type": "function"
    },
    {
      "inputs": [
        {
          "internalType": "address",
          "name": "owner",
          "type": "address"
        }
      ],
      "name": "balanceOf",
      "outputs": [
        {
          "internalType": "uint256",
          "name": "",
          "type": "uint256"
        }
      ],
      "stateMutability": "view",
      "type": "function"
    },
    {
      "inputs": [
        {
          "internalType": "uint256",
          "name": "_tokenId",
          "type": "uint256"
        }
      ],
      "name": "cancelTradeLocalNoun",
      "outputs": [],
      "stateMutability": "nonpayable",
      "type": "function"
    },
    {
      "inputs": [
        {
          "internalType": "uint256",
          "name": "_tokenId",
          "type": "uint256"
        }
      ],
      "name": "debugTokenURI",
      "outputs": [
        {
          "internalType": "string",
          "name": "uri",
          "type": "string"
        },
        {
          "internalType": "uint256",
          "name": "gas",
          "type": "uint256"
        }
      ],
      "stateMutability": "view",
      "type": "function"
    },
    {
      "inputs": [],
      "name": "description",
      "outputs": [
        {
          "internalType": "string",
          "name": "",
          "type": "string"
        }
      ],
      "stateMutability": "view",
      "type": "function"
    },
    {
      "inputs": [
        {
          "internalType": "uint256",
          "name": "_myTokenId",
          "type": "uint256"
        },
        {
          "internalType": "uint256",
          "name": "_targetTokenId",
          "type": "uint256"
        }
      ],
      "name": "executeTrade",
      "outputs": [],
      "stateMutability": "nonpayable",
      "type": "function"
    },
    {
      "inputs": [
        {
          "internalType": "uint256",
          "name": "_myTokenId",
          "type": "uint256"
        },
        {
          "internalType": "uint256",
          "name": "_targetTokenId",
          "type": "uint256"
        }
      ],
      "name": "executeTradeLocalNoun",
      "outputs": [],
      "stateMutability": "nonpayable",
      "type": "function"
    },
    {
      "inputs": [
        {
          "internalType": "uint256",
          "name": "tokenId",
          "type": "uint256"
        }
      ],
      "name": "getApproved",
      "outputs": [
        {
          "internalType": "address",
          "name": "",
          "type": "address"
        }
      ],
      "stateMutability": "view",
      "type": "function"
    },
    {
      "inputs": [
        {
          "internalType": "uint256",
          "name": "_tokenId",
          "type": "uint256"
        }
      ],
      "name": "getPriceOf",
      "outputs": [
        {
          "internalType": "uint256",
          "name": "",
          "type": "uint256"
        }
      ],
      "stateMutability": "view",
      "type": "function"
    },
    {
      "inputs": [
        {
          "internalType": "uint256",
          "name": "_tokenId",
          "type": "uint256"
        }
      ],
      "name": "getTradePrefectureFor",
      "outputs": [
        {
          "internalType": "uint256[]",
          "name": "",
          "type": "uint256[]"
        }
      ],
      "stateMutability": "view",
      "type": "function"
    },
    {
      "inputs": [
        {
          "internalType": "address",
          "name": "owner",
          "type": "address"
        },
        {
          "internalType": "address",
          "name": "operator",
          "type": "address"
        }
      ],
      "name": "isApprovedForAll",
      "outputs": [
        {
          "internalType": "bool",
          "name": "",
          "type": "bool"
        }
      ],
      "stateMutability": "view",
      "type": "function"
    },
    {
      "inputs": [],
      "name": "mint",
      "outputs": [
        {
          "internalType": "uint256",
          "name": "tokenId",
          "type": "uint256"
        }
      ],
      "stateMutability": "payable",
      "type": "function"
    },
    {
      "inputs": [],
      "name": "mintLimit",
      "outputs": [
        {
          "internalType": "uint256",
          "name": "",
          "type": "uint256"
        }
      ],
      "stateMutability": "view",
      "type": "function"
    },
    {
      "inputs": [],
      "name": "mintPrice",
      "outputs": [
        {
          "internalType": "uint256",
          "name": "",
          "type": "uint256"
        }
      ],
      "stateMutability": "view",
      "type": "function"
    },
    {
      "inputs": [
        {
          "internalType": "address",
          "name": "",
          "type": "address"
        }
      ],
      "name": "mintPriceFor",
      "outputs": [
        {
          "internalType": "uint256",
          "name": "",
          "type": "uint256"
        }
      ],
      "stateMutability": "view",
      "type": "function"
    },
    {
      "inputs": [
        {
          "internalType": "address",
          "name": "_to",
          "type": "address"
        },
        {
          "internalType": "uint256",
          "name": "_prefectureId",
          "type": "uint256"
        }
      ],
      "name": "mintSelectedPrefecture",
      "outputs": [
        {
          "internalType": "uint256",
          "name": "tokenId",
          "type": "uint256"
        }
      ],
      "stateMutability": "nonpayable",
      "type": "function"
    },
    {
      "inputs": [
        {
          "internalType": "address",
          "name": "_to",
          "type": "address"
        },
        {
          "internalType": "uint256[]",
          "name": "_prefectureId",
          "type": "uint256[]"
        },
        {
          "internalType": "uint256[]",
          "name": "_amount",
          "type": "uint256[]"
        }
      ],
      "name": "mintSelectedPrefectureBatch",
      "outputs": [
        {
          "internalType": "uint256",
          "name": "tokenId",
          "type": "uint256"
        }
      ],
      "stateMutability": "nonpayable",
      "type": "function"
    },
    {
      "inputs": [],
      "name": "minter",
      "outputs": [
        {
          "internalType": "address",
          "name": "",
          "type": "address"
        }
      ],
      "stateMutability": "view",
      "type": "function"
    },
    {
      "inputs": [],
      "name": "name",
      "outputs": [
        {
          "internalType": "string",
          "name": "",
          "type": "string"
        }
      ],
      "stateMutability": "view",
      "type": "function"
    },
    {
      "inputs": [],
      "name": "owner",
      "outputs": [
        {
          "internalType": "address",
          "name": "",
          "type": "address"
        }
      ],
      "stateMutability": "view",
      "type": "function"
    },
    {
      "inputs": [
        {
          "internalType": "uint256",
          "name": "tokenId",
          "type": "uint256"
        }
      ],
      "name": "ownerOf",
      "outputs": [
        {
          "internalType": "address",
          "name": "",
          "type": "address"
        }
      ],
      "stateMutability": "view",
      "type": "function"
    },
    {
      "inputs": [
        {
          "internalType": "uint256",
          "name": "_tokenId",
          "type": "uint256"
        },
        {
          "internalType": "address",
          "name": "_buyer",
          "type": "address"
        },
        {
          "internalType": "address",
          "name": "_facilitator",
          "type": "address"
        }
      ],
      "name": "purchase",
      "outputs": [],
      "stateMutability": "payable",
      "type": "function"
    },
    {
      "inputs": [
        {
          "internalType": "uint256",
          "name": "_tokenId",
          "type": "uint256"
        },
        {
          "internalType": "bool",
          "name": "_isOnTrade",
          "type": "bool"
        }
      ],
      "name": "putTrade",
      "outputs": [],
      "stateMutability": "nonpayable",
      "type": "function"
    },
    {
      "inputs": [
        {
          "internalType": "uint256",
          "name": "_tokenId",
          "type": "uint256"
        },
        {
          "internalType": "uint256[]",
          "name": "_prefectures",
          "type": "uint256[]"
        }
      ],
      "name": "putTradeLocalNoun",
      "outputs": [],
      "stateMutability": "nonpayable",
      "type": "function"
    },
    {
      "inputs": [],
      "name": "renounceOwnership",
      "outputs": [],
      "stateMutability": "nonpayable",
      "type": "function"
    },
    {
      "inputs": [
        {
          "internalType": "address",
          "name": "from",
          "type": "address"
        },
        {
          "internalType": "address",
          "name": "to",
          "type": "address"
        },
        {
          "internalType": "uint256",
          "name": "tokenId",
          "type": "uint256"
        }
      ],
      "name": "safeTransferFrom",
      "outputs": [],
      "stateMutability": "payable",
      "type": "function"
    },
    {
      "inputs": [
        {
          "internalType": "address",
          "name": "from",
          "type": "address"
        },
        {
          "internalType": "address",
          "name": "to",
          "type": "address"
        },
        {
          "internalType": "uint256",
          "name": "tokenId",
          "type": "uint256"
        },
        {
          "internalType": "bytes",
          "name": "_data",
          "type": "bytes"
        }
      ],
      "name": "safeTransferFrom",
      "outputs": [],
      "stateMutability": "payable",
      "type": "function"
    },
    {
      "inputs": [
        {
          "internalType": "address",
          "name": "_admin",
          "type": "address"
        }
      ],
      "name": "setAdministratorsAddress",
      "outputs": [],
      "stateMutability": "nonpayable",
      "type": "function"
    },
    {
      "inputs": [
        {
          "internalType": "address",
          "name": "operator",
          "type": "address"
        },
        {
          "internalType": "bool",
          "name": "approved",
          "type": "bool"
        }
      ],
      "name": "setApprovalForAll",
      "outputs": [],
      "stateMutability": "nonpayable",
      "type": "function"
    },
    {
      "inputs": [
        {
          "internalType": "contract IAssetProvider",
          "name": "_assetProvider",
          "type": "address"
        }
      ],
      "name": "setAssetProvider",
      "outputs": [],
      "stateMutability": "nonpayable",
      "type": "function"
    },
    {
      "inputs": [
        {
          "internalType": "string",
          "name": "_description",
          "type": "string"
        }
      ],
      "name": "setDescription",
      "outputs": [],
      "stateMutability": "nonpayable",
      "type": "function"
    },
    {
      "inputs": [
        {
          "internalType": "uint256",
          "name": "_limit",
          "type": "uint256"
        }
      ],
      "name": "setMintLimit",
      "outputs": [],
      "stateMutability": "nonpayable",
      "type": "function"
    },
    {
      "inputs": [
        {
          "internalType": "uint256",
          "name": "_price",
          "type": "uint256"
        }
      ],
      "name": "setMintPrice",
      "outputs": [],
      "stateMutability": "nonpayable",
      "type": "function"
    },
    {
      "inputs": [
        {
          "internalType": "address",
          "name": "_minter",
          "type": "address"
        }
      ],
      "name": "setMinter",
      "outputs": [],
      "stateMutability": "nonpayable",
      "type": "function"
    },
    {
      "inputs": [
        {
          "internalType": "uint256",
          "name": "_tokenId",
          "type": "uint256"
        },
        {
          "internalType": "uint256",
          "name": "_price",
          "type": "uint256"
        }
      ],
      "name": "setPriceOf",
      "outputs": [],
      "stateMutability": "nonpayable",
      "type": "function"
    },
    {
      "inputs": [
        {
          "internalType": "bytes4",
          "name": "interfaceId",
          "type": "bytes4"
        }
      ],
      "name": "supportsInterface",
      "outputs": [
        {
          "internalType": "bool",
          "name": "",
          "type": "bool"
        }
      ],
      "stateMutability": "view",
      "type": "function"
    },
    {
      "inputs": [],
      "name": "symbol",
      "outputs": [
        {
          "internalType": "string",
          "name": "",
          "type": "string"
        }
      ],
      "stateMutability": "view",
      "type": "function"
    },
    {
      "inputs": [
        {
          "internalType": "uint256",
          "name": "_tokenId",
          "type": "uint256"
        }
      ],
      "name": "tokenURI",
      "outputs": [
        {
          "internalType": "string",
          "name": "",
          "type": "string"
        }
      ],
      "stateMutability": "view",
      "type": "function"
    },
    {
      "inputs": [],
      "name": "totalSupply",
      "outputs": [
        {
          "internalType": "uint256",
          "name": "",
          "type": "uint256"
        }
      ],
      "stateMutability": "view",
      "type": "function"
    },
    {
      "inputs": [
        {
          "internalType": "uint256",
          "name": "",
          "type": "uint256"
        },
        {
          "internalType": "uint256",
          "name": "",
          "type": "uint256"
        }
      ],
      "name": "tradePrefecture",
      "outputs": [
        {
          "internalType": "uint256",
          "name": "",
          "type": "uint256"
        }
      ],
      "stateMutability": "view",
      "type": "function"
    },
    {
      "inputs": [
        {
          "internalType": "uint256",
          "name": "",
          "type": "uint256"
        }
      ],
      "name": "trades",
      "outputs": [
        {
          "internalType": "bool",
          "name": "",
          "type": "bool"
        }
      ],
      "stateMutability": "view",
      "type": "function"
    },
    {
      "inputs": [
        {
          "internalType": "address",
          "name": "from",
          "type": "address"
        },
        {
          "internalType": "address",
          "name": "to",
          "type": "address"
        },
        {
          "internalType": "uint256",
          "name": "tokenId",
          "type": "uint256"
        }
      ],
      "name": "transferFrom",
      "outputs": [],
      "stateMutability": "payable",
      "type": "function"
    },
    {
      "inputs": [
        {
          "internalType": "address",
          "name": "newOwner",
          "type": "address"
        }
      ],
      "name": "transferOwnership",
      "outputs": [],
      "stateMutability": "nonpayable",
      "type": "function"
    },
    {
      "inputs": [],
      "name": "withdraw",
      "outputs": [],
      "stateMutability": "payable",
      "type": "function"
    }
  ],
  "bytecode": "0x60806040523480156200001157600080fd5b5060405162006009380380620060098339818101604052810190620000379190620003eb565b816040518060400160405280600b81526020017f4c6f63616c204e6f756e730000000000000000000000000000000000000000008152506040518060400160405280600b81526020017f4c6f63616c204e6f756e7300000000000000000000000000000000000000000081525081818160029081620000b79190620006ac565b508060039081620000c99190620006ac565b50620000da6200026960201b60201c565b600081905550505062000102620000f66200026e60201b60201c565b6200027660201b60201c565b82600e60006101000a81548173ffffffffffffffffffffffffffffffffffffffff021916908373ffffffffffffffffffffffffffffffffffffffff1602179055505050506040518060400160405280601281526020017f4c6f63616c204e6f756e7320546f6b656e2e0000000000000000000000000000815250600b90816200018c9190620006ac565b5081600f60006101000a81548173ffffffffffffffffffffffffffffffffffffffff021916908373ffffffffffffffffffffffffffffffffffffffff1602179055506000600c81905550611388600d8190555080601060006101000a81548173ffffffffffffffffffffffffffffffffffffffff021916908373ffffffffffffffffffffffffffffffffffffffff16021790555033601260006101000a81548173ffffffffffffffffffffffffffffffffffffffff021916908373ffffffffffffffffffffffffffffffffffffffff160217905550505062000793565b600090565b600033905090565b6000600860009054906101000a900473ffffffffffffffffffffffffffffffffffffffff16905081600860006101000a81548173ffffffffffffffffffffffffffffffffffffffff021916908373ffffffffffffffffffffffffffffffffffffffff1602179055508173ffffffffffffffffffffffffffffffffffffffff168173ffffffffffffffffffffffffffffffffffffffff167f8be0079c531659141344cd1fd0a4f28419497f9722a3daafe3b4186f6b6457e060405160405180910390a35050565b600080fd5b600073ffffffffffffffffffffffffffffffffffffffff82169050919050565b60006200036e8262000341565b9050919050565b6000620003828262000361565b9050919050565b620003948162000375565b8114620003a057600080fd5b50565b600081519050620003b48162000389565b92915050565b620003c58162000361565b8114620003d157600080fd5b50565b600081519050620003e581620003ba565b92915050565b600080604083850312156200040557620004046200033c565b5b60006200041585828601620003a3565b92505060206200042885828601620003d4565b9150509250929050565b600081519050919050565b7f4e487b7100000000000000000000000000000000000000000000000000000000600052604160045260246000fd5b7f4e487b7100000000000000000000000000000000000000000000000000000000600052602260045260246000fd5b60006002820490506001821680620004b457607f821691505b602082108103620004ca57620004c96200046c565b5b50919050565b60008190508160005260206000209050919050565b60006020601f8301049050919050565b600082821b905092915050565b600060088302620005347fffffffffffffffffffffffffffffffffffffffffffffffffffffffffffffffff82620004f5565b620005408683620004f5565b95508019841693508086168417925050509392505050565b6000819050919050565b6000819050919050565b60006200058d62000587620005818462000558565b62000562565b62000558565b9050919050565b6000819050919050565b620005a9836200056c565b620005c1620005b88262000594565b84845462000502565b825550505050565b600090565b620005d8620005c9565b620005e58184846200059e565b505050565b5b818110156200060d5762000601600082620005ce565b600181019050620005eb565b5050565b601f8211156200065c576200062681620004d0565b6200063184620004e5565b8101602085101562000641578190505b620006596200065085620004e5565b830182620005ea565b50505b505050565b600082821c905092915050565b6000620006816000198460080262000661565b1980831691505092915050565b60006200069c83836200066e565b9150826002028217905092915050565b620006b78262000432565b67ffffffffffffffff811115620006d357620006d26200043d565b5b620006df82546200049b565b620006ec82828562000611565b600060209050601f8311600181146200072457600084156200070f578287015190505b6200071b85826200068e565b8655506200078b565b601f1984166200073486620004d0565b60005b828110156200075e5784890151825560018201915060208501945060208101905062000737565b868310156200077e57848901516200077a601f8916826200066e565b8355505b6001600288020188555050505b505050505050565b61586680620007a36000396000f3fe6080604052600436106102935760003560e01c80637c504f001161015a578063b54b4fb9116100c1578063eba145eb1161007a578063eba145eb14610a02578063f2fde38b14610a2b578063f4a0a52814610a54578063fba49e4f14610a7d578063fca3b5aa14610aa6578063febced5d14610acf57610293565b8063b54b4fb9146108b4578063b88d4fde146108f1578063c87b56dd1461090d578063cc44ab411461094a578063e4f71a0014610988578063e985e9c5146109c557610293565b806395d89b411161011357806395d89b41146107b8578063996517cf146107e35780639e6a1d7d1461080e578063a22cb46514610837578063a370f7d714610860578063b212cfc71461088b57610293565b80637c504f00146106ac5780638c402078146106e95780638da5cb5b146107125780638dac58641461073d57806390c3f38f146107665780639589d7b91461078f57610293565b80633b7f8f15116101fe5780636352211e116101b75780636352211e1461059c57806367008d77146105d95780636817c76c1461060257806370a082311461062d578063715018a61461066a5780637284e4161461068157610293565b80633b7f8f15146104b75780633ccfd60b146104d357806342842e0e146104dd5780634d131757146104f95780634df490281461053657806350d62a0d1461057357610293565b80631346d8ea116102505780631346d8ea146103a257806318160ddd146103df5780631e6c598e1461040a57806323b872dd1461044757806326df5b351461046357806326fbd1d61461048e57610293565b806301ffc9a71461029857806306fdde03146102d55780630754617214610300578063081812fc1461032b578063095ea7b3146103685780631249c58b14610384575b600080fd5b3480156102a457600080fd5b506102bf60048036038101906102ba9190613998565b610afa565b6040516102cc91906139e0565b60405180910390f35b3480156102e157600080fd5b506102ea610b74565b6040516102f79190613a8b565b60405180910390f35b34801561030c57600080fd5b50610315610c06565b6040516103229190613aee565b60405180910390f35b34801561033757600080fd5b50610352600480360381019061034d9190613b3f565b610c2c565b60405161035f9190613aee565b60405180910390f35b610382600480360381019061037d9190613b98565b610cab565b005b61038c610def565b6040516103999190613be7565b60405180910390f35b3480156103ae57600080fd5b506103c960048036038101906103c49190613c02565b610e2c565b6040516103d69190613be7565b60405180910390f35b3480156103eb57600080fd5b506103f4610e38565b6040516104019190613be7565b60405180910390f35b34801561041657600080fd5b50610431600480360381019061042c9190613b3f565b610e47565b60405161043e91906139e0565b60405180910390f35b610461600480360381019061045c9190613c2f565b610e67565b005b34801561046f57600080fd5b50610478611189565b6040516104859190613ce1565b60405180910390f35b34801561049a57600080fd5b506104b560048036038101906104b09190613cfc565b6111af565b005b6104d160048036038101906104cc9190613d3c565b6111ea565b005b6104db611341565b005b6104f760048036038101906104f29190613c2f565b6114ab565b005b34801561050557600080fd5b50610520600480360381019061051b9190613b3f565b6114cb565b60405161052d9190613e4d565b60405180910390f35b34801561054257600080fd5b5061055d60048036038101906105589190613b98565b611536565b60405161056a9190613be7565b60405180910390f35b34801561057f57600080fd5b5061059a60048036038101906105959190613fb7565b611697565b005b3480156105a857600080fd5b506105c360048036038101906105be9190613b3f565b6117aa565b6040516105d09190613aee565b60405180910390f35b3480156105e557600080fd5b5061060060048036038101906105fb919061403f565b6117bc565b005b34801561060e57600080fd5b506106176117f7565b6040516106249190613be7565b60405180910390f35b34801561063957600080fd5b50610654600480360381019061064f9190613c02565b6117fd565b6040516106619190613be7565b60405180910390f35b34801561067657600080fd5b5061067f6118b5565b005b34801561068d57600080fd5b506106966118c9565b6040516106a39190613a8b565b60405180910390f35b3480156106b857600080fd5b506106d360048036038101906106ce919061407f565b611957565b6040516106e09190613be7565b60405180910390f35b3480156106f557600080fd5b50610710600480360381019061070b9190613cfc565b611bcc565b005b34801561071e57600080fd5b50610727611d53565b6040516107349190613aee565b60405180910390f35b34801561074957600080fd5b50610764600480360381019061075f9190613b3f565b611d7d565b005b34801561077257600080fd5b5061078d600480360381019061078891906141bf565b611de3565b005b34801561079b57600080fd5b506107b660048036038101906107b19190614246565b611dfe565b005b3480156107c457600080fd5b506107cd611e7c565b6040516107da9190613a8b565b60405180910390f35b3480156107ef57600080fd5b506107f8611f0e565b6040516108059190613be7565b60405180910390f35b34801561081a57600080fd5b5061083560048036038101906108309190613b3f565b611f14565b005b34801561084357600080fd5b5061085e60048036038101906108599190614299565b611f26565b005b34801561086c57600080fd5b50610875612031565b60405161088291906142fa565b60405180910390f35b34801561089757600080fd5b506108b260048036038101906108ad9190614353565b612057565b005b3480156108c057600080fd5b506108db60048036038101906108d69190613b3f565b6120a3565b6040516108e89190613be7565b60405180910390f35b61090b60048036038101906109069190614421565b6120c0565b005b34801561091957600080fd5b50610934600480360381019061092f9190613b3f565b612133565b6040516109419190613a8b565b60405180910390f35b34801561095657600080fd5b50610971600480360381019061096c9190613b3f565b612293565b60405161097f9291906144a4565b60405180910390f35b34801561099457600080fd5b506109af60048036038101906109aa9190613cfc565b6122b8565b6040516109bc9190613be7565b60405180910390f35b3480156109d157600080fd5b506109ec60048036038101906109e791906144d4565b6122e9565b6040516109f991906139e0565b60405180910390f35b348015610a0e57600080fd5b50610a296004803603810190610a249190613c02565b61237d565b005b348015610a3757600080fd5b50610a526004803603810190610a4d9190613c02565b6123c9565b005b348015610a6057600080fd5b50610a7b6004803603810190610a769190613b3f565b61244c565b005b348015610a8957600080fd5b50610aa46004803603810190610a9f9190613cfc565b61245e565b005b348015610ab257600080fd5b50610acd6004803603810190610ac89190613c02565b612528565b005b348015610adb57600080fd5b50610ae4612574565b604051610af19190613aee565b60405180910390f35b60007f41fb5ca1000000000000000000000000000000000000000000000000000000007bffffffffffffffffffffffffffffffffffffffffffffffffffffffff1916827bffffffffffffffffffffffffffffffffffffffffffffffffffffffff19161480610b6d5750610b6c8261259a565b5b9050919050565b606060028054610b8390614543565b80601f0160208091040260200160405190810160405280929190818152602001828054610baf90614543565b8015610bfc5780601f10610bd157610100808354040283529160200191610bfc565b820191906000526020600020905b815481529060010190602001808311610bdf57829003601f168201915b5050505050905090565b601060009054906101000a900473ffffffffffffffffffffffffffffffffffffffff1681565b6000610c3782612614565b610c6d576040517fcf4700e400000000000000000000000000000000000000000000000000000000815260040160405180910390fd5b6006600083815260200190815260200160002060000160009054906101000a900473ffffffffffffffffffffffffffffffffffffffff169050919050565b6000610cb6826117aa565b90508073ffffffffffffffffffffffffffffffffffffffff16610cd7612673565b73ffffffffffffffffffffffffffffffffffffffff1614610d3a57610d0381610cfe612673565b6122e9565b610d39576040517fcfb3b94200000000000000000000000000000000000000000000000000000000815260040160405180910390fd5b5b826006600084815260200190815260200160002060000160006101000a81548173ffffffffffffffffffffffffffffffffffffffff021916908373ffffffffffffffffffffffffffffffffffffffff160217905550818373ffffffffffffffffffffffffffffffffffffffff168273ffffffffffffffffffffffffffffffffffffffff167f8c5be1e5ebec7d5bd14f71427d1e84f3dd0314c0f7b2291e5b200ac8c7c3b92560405160405180910390a4505050565b60006040517f08c379a0000000000000000000000000000000000000000000000000000000008152600401610e23906145c0565b60405180910390fd5b6000600c549050919050565b6000610e4261267b565b905090565b600a6020528060005260406000206000915054906101000a900460ff1681565b6000610e7282612684565b90508373ffffffffffffffffffffffffffffffffffffffff168173ffffffffffffffffffffffffffffffffffffffff1614610ed9576040517fa114810000000000000000000000000000000000000000000000000000000000815260040160405180910390fd5b600080610ee584612750565b91509150610efb8187610ef6612673565b612777565b610f4757610f1086610f0b612673565b6122e9565b610f46576040517f59c896be00000000000000000000000000000000000000000000000000000000815260040160405180910390fd5b5b600073ffffffffffffffffffffffffffffffffffffffff168573ffffffffffffffffffffffffffffffffffffffff1603610fad576040517fea553b3400000000000000000000000000000000000000000000000000000000815260040160405180910390fd5b610fba86868660016127bb565b8015610fc557600082555b600560008773ffffffffffffffffffffffffffffffffffffffff1673ffffffffffffffffffffffffffffffffffffffff168152602001908152602001600020600081546001900391905081905550600560008673ffffffffffffffffffffffffffffffffffffffff1673ffffffffffffffffffffffffffffffffffffffff16815260200190815260200160002060008154600101919050819055506110938561106f8888876127f8565b7c020000000000000000000000000000000000000000000000000000000017612820565b600460008681526020019081526020016000208190555060007c02000000000000000000000000000000000000000000000000000000008416036111195760006001850190506000600460008381526020019081526020016000205403611117576000548114611116578360046000838152602001908152602001600020819055505b5b505b838573ffffffffffffffffffffffffffffffffffffffff168773ffffffffffffffffffffffffffffffffffffffff167fddf252ad1be2c89b69c2b068fc378daa952ba7f163c4a11628f55a4df523b3ef60405160405180910390a4611181868686600161284b565b505050505050565b600f60009054906101000a900473ffffffffffffffffffffffffffffffffffffffff1681565b6040517f08c379a00000000000000000000000000000000000000000000000000000000081526004016111e1906145c0565b60405180910390fd5b60006009600085815260200190815260200160002054905060008111611245576040517f08c379a000000000000000000000000000000000000000000000000000000000815260040161123c9061462c565b60405180910390fd5b80341015611288576040517f08c379a000000000000000000000000000000000000000000000000000000000815260040161127f90614698565b60405180910390fd5b60006112943484612851565b905060006112a234876128f6565b905060006112af876117aa565b905060008190508073ffffffffffffffffffffffffffffffffffffffff166108fc8486346112dd91906146e7565b6112e791906146e7565b9081150290604051600060405180830381858888f19350505050158015611312573d6000803e3d6000fd5b506000600960008a81526020019081526020016000208190555061133782888a612989565b5050505050505050565b611349612c4d565b600073ffffffffffffffffffffffffffffffffffffffff16601260009054906101000a900473ffffffffffffffffffffffffffffffffffffffff1673ffffffffffffffffffffffffffffffffffffffff16036113da576040517f08c379a00000000000000000000000000000000000000000000000000000000081526004016113d19061478d565b60405180910390fd5b6000601260009054906101000a900473ffffffffffffffffffffffffffffffffffffffff1673ffffffffffffffffffffffffffffffffffffffff1647604051611422906147de565b60006040518083038185875af1925050503d806000811461145f576040519150601f19603f3d011682016040523d82523d6000602084013e611464565b606091505b50509050806114a8576040517f08c379a000000000000000000000000000000000000000000000000000000000815260040161149f90614865565b60405180910390fd5b50565b6114c6838383604051806020016040528060008152506120c0565b505050565b60606011600083815260200190815260200160002080548060200260200160405190810160405280929190818152602001828054801561152a57602002820191906000526020600020905b815481526020019060010190808311611516575b50505050509050919050565b6000601060009054906101000a900473ffffffffffffffffffffffffffffffffffffffff1673ffffffffffffffffffffffffffffffffffffffff163373ffffffffffffffffffffffffffffffffffffffff16146115c8576040517f08c379a00000000000000000000000000000000000000000000000000000000081526004016115bf906148d1565b60405180910390fd5b600f60009054906101000a900473ffffffffffffffffffffffffffffffffffffffff1673ffffffffffffffffffffffffffffffffffffffff16631b2ef1ca8361160f61267b565b6040518363ffffffff1660e01b815260040161162c9291906148f1565b6020604051808303816000875af115801561164b573d6000803e3d6000fd5b505050506040513d601f19601f8201168201806040525081019061166f919061492f565b5061167b836001612ccb565b600161168561267b565b61168f91906146e7565b905092915050565b60005b815181101561173a5760008282815181106116b8576116b761495c565b5b60200260200101511180156116e85750602f8282815181106116dd576116dc61495c565b5b602002602001015111155b611727576040517f08c379a000000000000000000000000000000000000000000000000000000000815260040161171e906149d7565b60405180910390fd5b8080611732906149f7565b91505061169a565b50611746826001612ce9565b8060116000848152602001908152602001600020908051906020019061176d9291906138c2565b50817f91db5e91903ed54fcf9969e96b8151be5b8670d196ffe35ced4dd9e906f543638260405161179e9190613e4d565b60405180910390a25050565b60006117b582612684565b9050919050565b6040517f08c379a00000000000000000000000000000000000000000000000000000000081526004016117ee906145c0565b60405180910390fd5b600c5481565b60008073ffffffffffffffffffffffffffffffffffffffff168273ffffffffffffffffffffffffffffffffffffffff1603611864576040517f8f4eb60400000000000000000000000000000000000000000000000000000000815260040160405180910390fd5b67ffffffffffffffff600560008473ffffffffffffffffffffffffffffffffffffffff1673ffffffffffffffffffffffffffffffffffffffff16815260200190815260200160002054169050919050565b6118bd612c4d565b6118c76000612dc6565b565b600b80546118d690614543565b80601f016020809104026020016040519081016040528092919081815260200182805461190290614543565b801561194f5780601f106119245761010080835404028352916020019161194f565b820191906000526020600020905b81548152906001019060200180831161193257829003601f168201915b505050505081565b6000601060009054906101000a900473ffffffffffffffffffffffffffffffffffffffff1673ffffffffffffffffffffffffffffffffffffffff163373ffffffffffffffffffffffffffffffffffffffff16146119e9576040517f08c379a00000000000000000000000000000000000000000000000000000000081526004016119e0906148d1565b60405180910390fd5b8151835114611a2d576040517f08c379a0000000000000000000000000000000000000000000000000000000008152600401611a2490614a8b565b60405180910390fd5b6000835111611a71576040517f08c379a0000000000000000000000000000000000000000000000000000000008152600401611a6890614af7565b60405180910390fd5b6000805b8451811015611ba35760005b848281518110611a9457611a9361495c565b5b6020026020010151811015611b8f57600f60009054906101000a900473ffffffffffffffffffffffffffffffffffffffff1673ffffffffffffffffffffffffffffffffffffffff16631b2ef1ca878481518110611af457611af361495c565b5b60200260200101518580611b07906149f7565b9650611b1161267b565b611b1b9190614b17565b6040518363ffffffff1660e01b8152600401611b389291906148f1565b6020604051808303816000875af1158015611b57573d6000803e3d6000fd5b505050506040513d601f19601f82011682018060405250810190611b7b919061492f565b508080611b87906149f7565b915050611a81565b508080611b9b906149f7565b915050611a75565b50611bae8582612ccb565b6001611bb861267b565b611bc291906146e7565b9150509392505050565b600060116000838152602001908152602001600020805490501115611d45576000600f60009054906101000a900473ffffffffffffffffffffffffffffffffffffffff1673ffffffffffffffffffffffffffffffffffffffff1663957b3b23846040518263ffffffff1660e01b8152600401611c489190613be7565b6020604051808303816000875af1158015611c67573d6000803e3d6000fd5b505050506040513d601f19601f82011682018060405250810190611c8b919061492f565b90506000805b6011600085815260200190815260200160002080549050811015611d0157601160008581526020019081526020016000208181548110611cd457611cd361495c565b5b90600052602060002001548303611cee5760019150611d01565b8080611cf9906149f7565b915050611c91565b5080611d42576040517f08c379a0000000000000000000000000000000000000000000000000000000008152600401611d3990614b97565b60405180910390fd5b50505b611d4f8282612e8c565b5050565b6000600860009054906101000a900473ffffffffffffffffffffffffffffffffffffffff16905090565b611d88816000612ce9565b606080601160008481526020019081526020016000209080519060200190611db19291906138c2565b50817f28dad92e7cc5308a2998d22449801e54e49034de5d8586493e68e8a24ac2d41660405160405180910390a25050565b611deb612c4d565b80600b9081611dfa9190614d59565b5050565b611e08838261245e565b8173ffffffffffffffffffffffffffffffffffffffff16633c6fc8173085846040518463ffffffff1660e01b8152600401611e4593929190614e4c565b600060405180830381600087803b158015611e5f57600080fd5b505af1158015611e73573d6000803e3d6000fd5b50505050505050565b606060038054611e8b90614543565b80601f0160208091040260200160405190810160405280929190818152602001828054611eb790614543565b8015611f045780601f10611ed957610100808354040283529160200191611f04565b820191906000526020600020905b815481529060010190602001808311611ee757829003601f168201915b5050505050905090565b600d5481565b611f1c612c4d565b80600d8190555050565b8060076000611f33612673565b73ffffffffffffffffffffffffffffffffffffffff1673ffffffffffffffffffffffffffffffffffffffff16815260200190815260200160002060008473ffffffffffffffffffffffffffffffffffffffff1673ffffffffffffffffffffffffffffffffffffffff16815260200190815260200160002060006101000a81548160ff0219169083151502179055508173ffffffffffffffffffffffffffffffffffffffff16611fe0612673565b73ffffffffffffffffffffffffffffffffffffffff167f17307eab39ab6107e8899845ad3d59bd9653f200f220920489ca2b5937696c318360405161202591906139e0565b60405180910390a35050565b600e60009054906101000a900473ffffffffffffffffffffffffffffffffffffffff1681565b61205f612c4d565b80600e60006101000a81548173ffffffffffffffffffffffffffffffffffffffff021916908373ffffffffffffffffffffffffffffffffffffffff16021790555050565b600060096000838152602001908152602001600020549050919050565b6120cb848484610e67565b60008373ffffffffffffffffffffffffffffffffffffffff163b1461212d576120f684848484612f91565b61212c576040517fd1a57ed600000000000000000000000000000000000000000000000000000000815260040160405180910390fd5b5b50505050565b606061213d61267b565b821061217e576040517f08c379a000000000000000000000000000000000000000000000000000000000815260040161217590614ef5565b60405180910390fd5b600080600f60009054906101000a900473ffffffffffffffffffffffffffffffffffffffff1673ffffffffffffffffffffffffffffffffffffffff1663e3f24f02856040518263ffffffff1660e01b81526004016121dc9190613be7565b600060405180830381865afa1580156121f9573d6000803e3d6000fd5b505050506040513d6000823e3d601f19601f820116820180604052508101906122229190614f85565b91509150600082905061226a612237866130e1565b600b61224288613112565b84604051602001612256949392919061529a565b6040516020818303038152906040526131bc565b60405160200161227a919061535b565b6040516020818303038152906040529350505050919050565b606060005a90506122a383612133565b91505a816122b191906146e7565b9050915091565b601160205281600052604060002081815481106122d457600080fd5b90600052602060002001600091509150505481565b6000600760008473ffffffffffffffffffffffffffffffffffffffff1673ffffffffffffffffffffffffffffffffffffffff16815260200190815260200160002060008373ffffffffffffffffffffffffffffffffffffffff1673ffffffffffffffffffffffffffffffffffffffff16815260200190815260200160002060009054906101000a900460ff16905092915050565b612385612c4d565b80601260006101000a81548173ffffffffffffffffffffffffffffffffffffffff021916908373ffffffffffffffffffffffffffffffffffffffff16021790555050565b6123d1612c4d565b600073ffffffffffffffffffffffffffffffffffffffff168173ffffffffffffffffffffffffffffffffffffffff1603612440576040517f08c379a0000000000000000000000000000000000000000000000000000000008152600401612437906153ef565b60405180910390fd5b61244981612dc6565b50565b612454612c4d565b80600c8190555050565b3373ffffffffffffffffffffffffffffffffffffffff1661247e836117aa565b73ffffffffffffffffffffffffffffffffffffffff16146124d4576040517f08c379a00000000000000000000000000000000000000000000000000000000081526004016124cb9061545b565b60405180910390fd5b806009600084815260200190815260200160002081905550817ff9317dc3bc6dda0e00e43855c2c30847aeafb8dcea9d2ce86e9ce7a83d549f018260405161251c9190613be7565b60405180910390a25050565b612530612c4d565b80601060006101000a81548173ffffffffffffffffffffffffffffffffffffffff021916908373ffffffffffffffffffffffffffffffffffffffff16021790555050565b601260009054906101000a900473ffffffffffffffffffffffffffffffffffffffff1681565b60007fe019895a000000000000000000000000000000000000000000000000000000007bffffffffffffffffffffffffffffffffffffffffffffffffffffffff1916827bffffffffffffffffffffffffffffffffffffffffffffffffffffffff1916148061260d575061260c82613334565b5b9050919050565b60008161261f6133c6565b1115801561262e575060005482105b801561266c575060007c0100000000000000000000000000000000000000000000000000000000600460008581526020019081526020016000205416145b9050919050565b600033905090565b60008054905090565b600080829050806126936133c6565b11612719576000548110156127185760006004600083815260200190815260200160002054905060007c0100000000000000000000000000000000000000000000000000000000821603612716575b6000810361270c5760046000836001900393508381526020019081526020016000205490506126e2565b809250505061274b565b505b5b6040517fdf2d9b4200000000000000000000000000000000000000000000000000000000815260040160405180910390fd5b919050565b60008060006006600085815260200190815260200160002090508092508254915050915091565b600073ffffffffffffffffffffffffffffffffffffffff8316925073ffffffffffffffffffffffffffffffffffffffff821691508382148383141790509392505050565b6060806011600085815260200190815260200160002090805190602001906127e49291906138c2565b506127f1858585856133cb565b5050505050565b60008060e883901c905060e861280f868684613422565b62ffffff16901b9150509392505050565b600073ffffffffffffffffffffffffffffffffffffffff83169250814260a01b178317905092915050565b50505050565b60008073ffffffffffffffffffffffffffffffffffffffff168273ffffffffffffffffffffffffffffffffffffffff16146128f0576103e8601984612896919061547b565b6128a091906154ec565b905060008290508073ffffffffffffffffffffffffffffffffffffffff166108fc839081150290604051600060405180830381858888f193505050501580156128ed573d6000803e3d6000fd5b50505b92915050565b60006103e8603284612908919061547b565b61291291906154ec565b90506000601260009054906101000a900473ffffffffffffffffffffffffffffffffffffffff1690508073ffffffffffffffffffffffffffffffffffffffff166108fc839081150290604051600060405180830381858888f19350505050158015612981573d6000803e3d6000fd5b505092915050565b600061299482612684565b90508373ffffffffffffffffffffffffffffffffffffffff168173ffffffffffffffffffffffffffffffffffffffff16146129fb576040517fa114810000000000000000000000000000000000000000000000000000000000815260040160405180910390fd5b600080612a0784612750565b91509150600073ffffffffffffffffffffffffffffffffffffffff168573ffffffffffffffffffffffffffffffffffffffff1603612a71576040517fea553b3400000000000000000000000000000000000000000000000000000000815260040160405180910390fd5b612a7e86868660016127bb565b8015612a8957600082555b600560008773ffffffffffffffffffffffffffffffffffffffff1673ffffffffffffffffffffffffffffffffffffffff168152602001908152602001600020600081546001900391905081905550600560008673ffffffffffffffffffffffffffffffffffffffff1673ffffffffffffffffffffffffffffffffffffffff1681526020019081526020016000206000815460010191905081905550612b5785612b338888876127f8565b7c020000000000000000000000000000000000000000000000000000000017612820565b600460008681526020019081526020016000208190555060007c0200000000000000000000000000000000000000000000000000000000841603612bdd5760006001850190506000600460008381526020019081526020016000205403612bdb576000548114612bda578360046000838152602001908152602001600020819055505b5b505b838573ffffffffffffffffffffffffffffffffffffffff168773ffffffffffffffffffffffffffffffffffffffff167fddf252ad1be2c89b69c2b068fc378daa952ba7f163c4a11628f55a4df523b3ef60405160405180910390a4612c45868686600161284b565b505050505050565b612c5561342b565b73ffffffffffffffffffffffffffffffffffffffff16612c73611d53565b73ffffffffffffffffffffffffffffffffffffffff1614612cc9576040517f08c379a0000000000000000000000000000000000000000000000000000000008152600401612cc090615569565b60405180910390fd5b565b612ce5828260405180602001604052806000815250613433565b5050565b3373ffffffffffffffffffffffffffffffffffffffff16612d09836117aa565b73ffffffffffffffffffffffffffffffffffffffff1614612d5f576040517f08c379a0000000000000000000000000000000000000000000000000000000008152600401612d56906155d5565b60405180910390fd5b80600a600084815260200190815260200160002060006101000a81548160ff021916908315150217905550817f0931e6600146b3ef83884d0f5e5c304a68cbc6c0ebba0617323021751e9a791782604051612dba91906139e0565b60405180910390a25050565b6000600860009054906101000a900473ffffffffffffffffffffffffffffffffffffffff16905081600860006101000a81548173ffffffffffffffffffffffffffffffffffffffff021916908373ffffffffffffffffffffffffffffffffffffffff1602179055508173ffffffffffffffffffffffffffffffffffffffff168173ffffffffffffffffffffffffffffffffffffffff167f8be0079c531659141344cd1fd0a4f28419497f9722a3daafe3b4186f6b6457e060405160405180910390a35050565b3373ffffffffffffffffffffffffffffffffffffffff16612eac836117aa565b73ffffffffffffffffffffffffffffffffffffffff1614612f02576040517f08c379a0000000000000000000000000000000000000000000000000000000008152600401612ef9906155d5565b60405180910390fd5b60011515600a600083815260200190815260200160002060009054906101000a900460ff16151514612f69576040517f08c379a0000000000000000000000000000000000000000000000000000000008152600401612f6090615641565b60405180910390fd5b6000612f74826117aa565b9050612f81338285612989565b612f8c813384612989565b505050565b60008373ffffffffffffffffffffffffffffffffffffffff1663150b7a02612fb7612673565b8786866040518563ffffffff1660e01b8152600401612fd994939291906156ab565b6020604051808303816000875af192505050801561301557506040513d601f19601f82011682018060405250810190613012919061570c565b60015b61308e573d8060008114613045576040519150601f19603f3d011682016040523d82523d6000602084013e61304a565b606091505b506000815103613086576040517fd1a57ed600000000000000000000000000000000000000000000000000000000815260040160405180910390fd5b805181602001fd5b63150b7a0260e01b7bffffffffffffffffffffffffffffffffffffffffffffffffffffffff1916817bffffffffffffffffffffffffffffffffffffffffffffffffffffffff191614915050949350505050565b60606130ec826134d0565b6040516020016130fc9190615785565b6040516020818303038152906040529050919050565b6060600e60009054906101000a900473ffffffffffffffffffffffffffffffffffffffff1673ffffffffffffffffffffffffffffffffffffffff166379b92f27836040518263ffffffff1660e01b815260040161316f9190613be7565b600060405180830381865afa15801561318c573d6000803e3d6000fd5b505050506040513d6000823e3d601f19601f820116820180604052508101906131b591906157a7565b9050919050565b606060008251036131de5760405180602001604052806000815250905061332f565b60006040518060600160405280604081526020016157f1604091399050600060036002855161320d9190614b17565b61321791906154ec565b6004613223919061547b565b905060006020826132349190614b17565b67ffffffffffffffff81111561324d5761324c613e74565b5b6040519080825280601f01601f19166020018201604052801561327f5781602001600182028036833780820191505090505b509050818152600183018586518101602084015b818310156132ee576003830192508251603f8160121c168501518253600182019150603f81600c1c168501518253600182019150603f8160061c168501518253600182019150603f8116850151825360018201915050613293565b600389510660018114613308576002811461331857613323565b613d3d60f01b6002830352613323565b603d60f81b60018303525b50505050508093505050505b919050565b60006301ffc9a760e01b827bffffffffffffffffffffffffffffffffffffffffffffffffffffffff1916148061338f57506380ac58cd60e01b827bffffffffffffffffffffffffffffffffffffffffffffffffffffffff1916145b806133bf5750635b5e139f60e01b827bffffffffffffffffffffffffffffffffffffffffffffffffffffffff1916145b9050919050565b600090565b6000600a600084815260200190815260200160002060006101000a81548160ff0219169083151502179055506000600960008481526020019081526020016000208190555061341c8484848461359e565b50505050565b60009392505050565b600033905090565b61343d83836135a4565b60008373ffffffffffffffffffffffffffffffffffffffff163b146134cb57600080549050600083820390505b61347d6000868380600101945086612f91565b6134b3576040517fd1a57ed600000000000000000000000000000000000000000000000000000000815260040160405180910390fd5b81811061346a5781600054146134c857600080fd5b50505b505050565b6060600060016134df8461375f565b01905060008167ffffffffffffffff8111156134fe576134fd613e74565b5b6040519080825280601f01601f1916602001820160405280156135305781602001600182028036833780820191505090505b509050600082602001820190505b600115613593578080600190039150507f3031323334353637383961626364656600000000000000000000000000000000600a86061a8153600a8581613587576135866154bd565b5b0494506000850361353e575b819350505050919050565b50505050565b600080549050600082036135e4576040517fb562e8dd00000000000000000000000000000000000000000000000000000000815260040160405180910390fd5b6135f160008483856127bb565b600160406001901b178202600560008573ffffffffffffffffffffffffffffffffffffffff1673ffffffffffffffffffffffffffffffffffffffff168152602001908152602001600020600082825401925050819055506136688361365960008660006127f8565b613662856138b2565b17612820565b6004600083815260200190815260200160002081905550600080838301905073ffffffffffffffffffffffffffffffffffffffff85169150828260007fddf252ad1be2c89b69c2b068fc378daa952ba7f163c4a11628f55a4df523b3ef600080a4600183015b81811461370957808360007fddf252ad1be2c89b69c2b068fc378daa952ba7f163c4a11628f55a4df523b3ef600080a46001810190506136ce565b5060008203613744576040517f2e07630000000000000000000000000000000000000000000000000000000000815260040160405180910390fd5b80600081905550505061375a600084838561284b565b505050565b600080600090507a184f03e93ff9f4daa797ed6e38ed64bf6a1f01000000000000000083106137bd577a184f03e93ff9f4daa797ed6e38ed64bf6a1f01000000000000000083816137b3576137b26154bd565b5b0492506040810190505b6d04ee2d6d415b85acef810000000083106137fa576d04ee2d6d415b85acef810000000083816137f0576137ef6154bd565b5b0492506020810190505b662386f26fc10000831061382957662386f26fc10000838161381f5761381e6154bd565b5b0492506010810190505b6305f5e1008310613852576305f5e1008381613848576138476154bd565b5b0492506008810190505b612710831061387757612710838161386d5761386c6154bd565b5b0492506004810190505b6064831061389a57606483816138905761388f6154bd565b5b0492506002810190505b600a83106138a9576001810190505b80915050919050565b60006001821460e11b9050919050565b8280548282559060005260206000209081019282156138fe579160200282015b828111156138fd5782518255916020019190600101906138e2565b5b50905061390b919061390f565b5090565b5b80821115613928576000816000905550600101613910565b5090565b6000604051905090565b600080fd5b600080fd5b60007fffffffff0000000000000000000000000000000000000000000000000000000082169050919050565b61397581613940565b811461398057600080fd5b50565b6000813590506139928161396c565b92915050565b6000602082840312156139ae576139ad613936565b5b60006139bc84828501613983565b91505092915050565b60008115159050919050565b6139da816139c5565b82525050565b60006020820190506139f560008301846139d1565b92915050565b600081519050919050565b600082825260208201905092915050565b60005b83811015613a35578082015181840152602081019050613a1a565b60008484015250505050565b6000601f19601f8301169050919050565b6000613a5d826139fb565b613a678185613a06565b9350613a77818560208601613a17565b613a8081613a41565b840191505092915050565b60006020820190508181036000830152613aa58184613a52565b905092915050565b600073ffffffffffffffffffffffffffffffffffffffff82169050919050565b6000613ad882613aad565b9050919050565b613ae881613acd565b82525050565b6000602082019050613b036000830184613adf565b92915050565b6000819050919050565b613b1c81613b09565b8114613b2757600080fd5b50565b600081359050613b3981613b13565b92915050565b600060208284031215613b5557613b54613936565b5b6000613b6384828501613b2a565b91505092915050565b613b7581613acd565b8114613b8057600080fd5b50565b600081359050613b9281613b6c565b92915050565b60008060408385031215613baf57613bae613936565b5b6000613bbd85828601613b83565b9250506020613bce85828601613b2a565b9150509250929050565b613be181613b09565b82525050565b6000602082019050613bfc6000830184613bd8565b92915050565b600060208284031215613c1857613c17613936565b5b6000613c2684828501613b83565b91505092915050565b600080600060608486031215613c4857613c47613936565b5b6000613c5686828701613b83565b9350506020613c6786828701613b83565b9250506040613c7886828701613b2a565b9150509250925092565b6000819050919050565b6000613ca7613ca2613c9d84613aad565b613c82565b613aad565b9050919050565b6000613cb982613c8c565b9050919050565b6000613ccb82613cae565b9050919050565b613cdb81613cc0565b82525050565b6000602082019050613cf66000830184613cd2565b92915050565b60008060408385031215613d1357613d12613936565b5b6000613d2185828601613b2a565b9250506020613d3285828601613b2a565b9150509250929050565b600080600060608486031215613d5557613d54613936565b5b6000613d6386828701613b2a565b9350506020613d7486828701613b83565b9250506040613d8586828701613b83565b9150509250925092565b600081519050919050565b600082825260208201905092915050565b6000819050602082019050919050565b613dc481613b09565b82525050565b6000613dd68383613dbb565b60208301905092915050565b6000602082019050919050565b6000613dfa82613d8f565b613e048185613d9a565b9350613e0f83613dab565b8060005b83811015613e40578151613e278882613dca565b9750613e3283613de2565b925050600181019050613e13565b5085935050505092915050565b60006020820190508181036000830152613e678184613def565b905092915050565b600080fd5b7f4e487b7100000000000000000000000000000000000000000000000000000000600052604160045260246000fd5b613eac82613a41565b810181811067ffffffffffffffff82111715613ecb57613eca613e74565b5b80604052505050565b6000613ede61392c565b9050613eea8282613ea3565b919050565b600067ffffffffffffffff821115613f0a57613f09613e74565b5b602082029050602081019050919050565b600080fd5b6000613f33613f2e84613eef565b613ed4565b90508083825260208201905060208402830185811115613f5657613f55613f1b565b5b835b81811015613f7f5780613f6b8882613b2a565b845260208401935050602081019050613f58565b5050509392505050565b600082601f830112613f9e57613f9d613e6f565b5b8135613fae848260208601613f20565b91505092915050565b60008060408385031215613fce57613fcd613936565b5b6000613fdc85828601613b2a565b925050602083013567ffffffffffffffff811115613ffd57613ffc61393b565b5b61400985828601613f89565b9150509250929050565b61401c816139c5565b811461402757600080fd5b50565b60008135905061403981614013565b92915050565b6000806040838503121561405657614055613936565b5b600061406485828601613b2a565b92505060206140758582860161402a565b9150509250929050565b60008060006060848603121561409857614097613936565b5b60006140a686828701613b83565b935050602084013567ffffffffffffffff8111156140c7576140c661393b565b5b6140d386828701613f89565b925050604084013567ffffffffffffffff8111156140f4576140f361393b565b5b61410086828701613f89565b9150509250925092565b600080fd5b600067ffffffffffffffff82111561412a57614129613e74565b5b61413382613a41565b9050602081019050919050565b82818337600083830152505050565b600061416261415d8461410f565b613ed4565b90508281526020810184848401111561417e5761417d61410a565b5b614189848285614140565b509392505050565b600082601f8301126141a6576141a5613e6f565b5b81356141b684826020860161414f565b91505092915050565b6000602082840312156141d5576141d4613936565b5b600082013567ffffffffffffffff8111156141f3576141f261393b565b5b6141ff84828501614191565b91505092915050565b600061421382613acd565b9050919050565b61422381614208565b811461422e57600080fd5b50565b6000813590506142408161421a565b92915050565b60008060006060848603121561425f5761425e613936565b5b600061426d86828701613b2a565b935050602061427e86828701614231565b925050604061428f86828701613b2a565b9150509250925092565b600080604083850312156142b0576142af613936565b5b60006142be85828601613b83565b92505060206142cf8582860161402a565b9150509250929050565b60006142e482613cae565b9050919050565b6142f4816142d9565b82525050565b600060208201905061430f60008301846142eb565b92915050565b600061432082613acd565b9050919050565b61433081614315565b811461433b57600080fd5b50565b60008135905061434d81614327565b92915050565b60006020828403121561436957614368613936565b5b60006143778482850161433e565b91505092915050565b600067ffffffffffffffff82111561439b5761439a613e74565b5b6143a482613a41565b9050602081019050919050565b60006143c46143bf84614380565b613ed4565b9050828152602081018484840111156143e0576143df61410a565b5b6143eb848285614140565b509392505050565b600082601f83011261440857614407613e6f565b5b81356144188482602086016143b1565b91505092915050565b6000806000806080858703121561443b5761443a613936565b5b600061444987828801613b83565b945050602061445a87828801613b83565b935050604061446b87828801613b2a565b925050606085013567ffffffffffffffff81111561448c5761448b61393b565b5b614498878288016143f3565b91505092959194509250565b600060408201905081810360008301526144be8185613a52565b90506144cd6020830184613bd8565b9392505050565b600080604083850312156144eb576144ea613936565b5b60006144f985828601613b83565b925050602061450a85828601613b83565b9150509250929050565b7f4e487b7100000000000000000000000000000000000000000000000000000000600052602260045260246000fd5b6000600282049050600182168061455b57607f821691505b60208210810361456e5761456d614514565b5b50919050565b7f43616e6e6f742075736520746869732066756e6374696f6e0000000000000000600082015250565b60006145aa601883613a06565b91506145b582614574565b602082019050919050565b600060208201905081810360008301526145d98161459d565b9050919050565b7f546f6b656e206973206e6f74206f6e2073616c65000000000000000000000000600082015250565b6000614616601483613a06565b9150614621826145e0565b602082019050919050565b6000602082019050818103600083015261464581614609565b9050919050565b7f4e6f7420656e6f7567682066756e640000000000000000000000000000000000600082015250565b6000614682600f83613a06565b915061468d8261464c565b602082019050919050565b600060208201905081810360008301526146b181614675565b9050919050565b7f4e487b7100000000000000000000000000000000000000000000000000000000600052601160045260246000fd5b60006146f282613b09565b91506146fd83613b09565b9250828203905081811115614715576147146146b8565b5b92915050565b7f61646d696e6973747261746f7273416464726573732073686f756c646e27742060008201527f6265203000000000000000000000000000000000000000000000000000000000602082015250565b6000614777602483613a06565b91506147828261471b565b604082019050919050565b600060208201905081810360008301526147a68161476a565b9050919050565b600081905092915050565b50565b60006147c86000836147ad565b91506147d3826147b8565b600082019050919050565b60006147e9826147bb565b9150819050919050565b7f6661696c656420746f206d6f76652066756e6420746f2061646d696e6973747260008201527f61746f72734164647265737320636f6e74726163740000000000000000000000602082015250565b600061484f603583613a06565b915061485a826147f3565b604082019050919050565b6000602082019050818103600083015261487e81614842565b9050919050565b7f53656e646572206973206e6f7420746865206d696e7465720000000000000000600082015250565b60006148bb601883613a06565b91506148c682614885565b602082019050919050565b600060208201905081810360008301526148ea816148ae565b9050919050565b60006040820190506149066000830185613bd8565b6149136020830184613bd8565b9392505050565b60008151905061492981613b13565b92915050565b60006020828403121561494557614944613936565b5b60006149538482850161491a565b91505092915050565b7f4e487b7100000000000000000000000000000000000000000000000000000000600052603260045260246000fd5b7f696e636f72726563742070726566656375747265206964000000000000000000600082015250565b60006149c1601783613a06565b91506149cc8261498b565b602082019050919050565b600060208201905081810360008301526149f0816149b4565b9050919050565b6000614a0282613b09565b91507fffffffffffffffffffffffffffffffffffffffffffffffffffffffffffffffff8203614a3457614a336146b8565b5b600182019050919050565b7f706172616d6574617273206c656e6774682061726520646966666572656e7400600082015250565b6000614a75601f83613a06565b9150614a8082614a3f565b602082019050919050565b60006020820190508181036000830152614aa481614a68565b9050919050565b7f706172616d6574617273206c656e677468206973207a65726f00000000000000600082015250565b6000614ae1601983613a06565b9150614aec82614aab565b602082019050919050565b60006020820190508181036000830152614b1081614ad4565b9050919050565b6000614b2282613b09565b9150614b2d83613b09565b9250828201905080821115614b4557614b446146b8565b5b92915050565b7f756e6d6174636820746f207468652077616e7473206c69737400000000000000600082015250565b6000614b81601983613a06565b9150614b8c82614b4b565b602082019050919050565b60006020820190508181036000830152614bb081614b74565b9050919050565b60008190508160005260206000209050919050565b60006020601f8301049050919050565b600082821b905092915050565b600060088302614c197fffffffffffffffffffffffffffffffffffffffffffffffffffffffffffffffff82614bdc565b614c238683614bdc565b95508019841693508086168417925050509392505050565b6000614c56614c51614c4c84613b09565b613c82565b613b09565b9050919050565b6000819050919050565b614c7083614c3b565b614c84614c7c82614c5d565b848454614be9565b825550505050565b600090565b614c99614c8c565b614ca4818484614c67565b505050565b5b81811015614cc857614cbd600082614c91565b600181019050614caa565b5050565b601f821115614d0d57614cde81614bb7565b614ce784614bcc565b81016020851015614cf6578190505b614d0a614d0285614bcc565b830182614ca9565b50505b505050565b600082821c905092915050565b6000614d3060001984600802614d12565b1980831691505092915050565b6000614d498383614d1f565b9150826002028217905092915050565b614d62826139fb565b67ffffffffffffffff811115614d7b57614d7a613e74565b5b614d858254614543565b614d90828285614ccc565b600060209050601f831160018114614dc35760008415614db1578287015190505b614dbb8582614d3d565b865550614e23565b601f198416614dd186614bb7565b60005b82811015614df957848901518255600182019150602085019450602081019050614dd4565b86831015614e165784890151614e12601f891682614d1f565b8355505b6001600288020188555050505b505050505050565b6000614e3682613cae565b9050919050565b614e4681614e2b565b82525050565b6000606082019050614e616000830186614e3d565b614e6e6020830185613bd8565b614e7b6040830184613bd8565b949350505050565b7f4c6f63616c4e6f756e73546f6b656e2e746f6b656e5552493a206e6f6e65786960008201527f7374656e7420746f6b656e000000000000000000000000000000000000000000602082015250565b6000614edf602b83613a06565b9150614eea82614e83565b604082019050919050565b60006020820190508181036000830152614f0e81614ed2565b9050919050565b6000614f28614f238461410f565b613ed4565b905082815260208101848484011115614f4457614f4361410a565b5b614f4f848285613a17565b509392505050565b600082601f830112614f6c57614f6b613e6f565b5b8151614f7c848260208601614f15565b91505092915050565b60008060408385031215614f9c57614f9b613936565b5b600083015167ffffffffffffffff811115614fba57614fb961393b565b5b614fc685828601614f57565b925050602083015167ffffffffffffffff811115614fe757614fe661393b565b5b614ff385828601614f57565b9150509250929050565b600081905092915050565b7f7b226e616d65223a220000000000000000000000000000000000000000000000600082015250565b600061503e600983614ffd565b915061504982615008565b600982019050919050565b600061505f826139fb565b6150698185614ffd565b9350615079818560208601613a17565b80840191505092915050565b7f222c226465736372697074696f6e223a22000000000000000000000000000000600082015250565b60006150bb601183614ffd565b91506150c682615085565b601182019050919050565b600081546150de81614543565b6150e88186614ffd565b9450600182166000811461510357600181146151185761514b565b60ff198316865281151582028601935061514b565b61512185614bb7565b60005b8381101561514357815481890152600182019150602081019050615124565b838801955050505b50505092915050565b7f222c2261747472696275746573223a5b00000000000000000000000000000000600082015250565b600061518a601083614ffd565b915061519582615154565b601082019050919050565b600081519050919050565b60006151b6826151a0565b6151c081856147ad565b93506151d0818560208601613a17565b80840191505092915050565b7f5d2c22696d616765223a22646174613a696d6167652f7376672b786d6c3b626160008201527f736536342c000000000000000000000000000000000000000000000000000000602082015250565b6000615238602583614ffd565b9150615243826151dc565b602582019050919050565b7f227d000000000000000000000000000000000000000000000000000000000000600082015250565b6000615284600283614ffd565b915061528f8261524e565b600282019050919050565b60006152a582615031565b91506152b18287615054565b91506152bc826150ae565b91506152c882866150d1565b91506152d38261517d565b91506152df82856151ab565b91506152ea8261522b565b91506152f682846151ab565b915061530182615277565b915081905095945050505050565b7f646174613a6170706c69636174696f6e2f6a736f6e3b6261736536342c000000600082015250565b6000615345601d83614ffd565b91506153508261530f565b601d82019050919050565b600061536682615338565b91506153728284615054565b915081905092915050565b7f4f776e61626c653a206e6577206f776e657220697320746865207a65726f206160008201527f6464726573730000000000000000000000000000000000000000000000000000602082015250565b60006153d9602683613a06565b91506153e48261537d565b604082019050919050565b60006020820190508181036000830152615408816153cc565b9050919050565b7f4f6e6c7920746865206f6e7765722063616e2073657420746865207072696365600082015250565b6000615445602083613a06565b91506154508261540f565b602082019050919050565b6000602082019050818103600083015261547481615438565b9050919050565b600061548682613b09565b915061549183613b09565b925082820261549f81613b09565b915082820484148315176154b6576154b56146b8565b5b5092915050565b7f4e487b7100000000000000000000000000000000000000000000000000000000600052601260045260246000fd5b60006154f782613b09565b915061550283613b09565b925082615512576155116154bd565b5b828204905092915050565b7f4f776e61626c653a2063616c6c6572206973206e6f7420746865206f776e6572600082015250565b6000615553602083613a06565b915061555e8261551d565b602082019050919050565b6000602082019050818103600083015261558281615546565b9050919050565b7f4f6e6c7920746865206f6e7765722063616e2074726164650000000000000000600082015250565b60006155bf601883613a06565b91506155ca82615589565b602082019050919050565b600060208201905081810360008301526155ee816155b2565b9050919050565b7f546172676574546f6b656e4964206973206e6f74206f6e207472616465000000600082015250565b600061562b601d83613a06565b9150615636826155f5565b602082019050919050565b6000602082019050818103600083015261565a8161561e565b9050919050565b600082825260208201905092915050565b600061567d826151a0565b6156878185615661565b9350615697818560208601613a17565b6156a081613a41565b840191505092915050565b60006080820190506156c06000830187613adf565b6156cd6020830186613adf565b6156da6040830185613bd8565b81810360608301526156ec8184615672565b905095945050505050565b6000815190506157068161396c565b92915050565b60006020828403121561572257615721613936565b5b6000615730848285016156f7565b91505092915050565b7f4c6f63616c204e6f756e73200000000000000000000000000000000000000000600082015250565b600061576f600c83614ffd565b915061577a82615739565b600c82019050919050565b600061579082615762565b915061579c8284615054565b915081905092915050565b6000602082840312156157bd576157bc613936565b5b600082015167ffffffffffffffff8111156157db576157da61393b565b5b6157e784828501614f57565b9150509291505056fe4142434445464748494a4b4c4d4e4f505152535455565758595a6162636465666768696a6b6c6d6e6f707172737475767778797a303132333435363738392b2fa2646970667358221220b08d23b67d24f7afe922f5bc915e0b4ca4548869489f6472c6ec515d53b9fbaa64736f6c63430008110033",
  "linkReferences": {},
  "deployedLinkReferences": {}
}