{
  "_format": "hh-sol-artifact-1",
  "contractName": "LocalNounsToken",
  "sourceName": "contracts/LocalNounsToken.sol",
  "abi": [
    {
      "inputs": [
        {
          "internalType": "contract IAssetProviderExMint",
          "name": "_assetProvider",
          "type": "address"
        },
        {
          "internalType": "address",
          "name": "_minter",
          "type": "address"
        }
      ],
      "stateMutability": "nonpayable",
      "type": "constructor"
    },
    {
      "inputs": [],
      "name": "ApprovalCallerNotOwnerNorApproved",
      "type": "error"
    },
    {
      "inputs": [],
      "name": "ApprovalQueryForNonexistentToken",
      "type": "error"
    },
    {
      "inputs": [],
      "name": "BalanceQueryForZeroAddress",
      "type": "error"
    },
    {
      "inputs": [],
      "name": "MintERC2309QuantityExceedsLimit",
      "type": "error"
    },
    {
      "inputs": [],
      "name": "MintToZeroAddress",
      "type": "error"
    },
    {
      "inputs": [],
      "name": "MintZeroQuantity",
      "type": "error"
    },
    {
      "inputs": [],
      "name": "OwnerQueryForNonexistentToken",
      "type": "error"
    },
    {
      "inputs": [],
      "name": "OwnershipNotInitializedForExtraData",
      "type": "error"
    },
    {
      "inputs": [],
      "name": "TransferCallerNotOwnerNorApproved",
      "type": "error"
    },
    {
      "inputs": [],
      "name": "TransferFromIncorrectOwner",
      "type": "error"
    },
    {
      "inputs": [],
      "name": "TransferToNonERC721ReceiverImplementer",
      "type": "error"
    },
    {
      "inputs": [],
      "name": "TransferToZeroAddress",
      "type": "error"
    },
    {
      "inputs": [],
      "name": "URIQueryForNonexistentToken",
      "type": "error"
    },
    {
      "anonymous": false,
      "inputs": [
        {
          "indexed": true,
          "internalType": "address",
          "name": "owner",
          "type": "address"
        },
        {
          "indexed": true,
          "internalType": "address",
          "name": "approved",
          "type": "address"
        },
        {
          "indexed": true,
          "internalType": "uint256",
          "name": "tokenId",
          "type": "uint256"
        }
      ],
      "name": "Approval",
      "type": "event"
    },
    {
      "anonymous": false,
      "inputs": [
        {
          "indexed": true,
          "internalType": "address",
          "name": "owner",
          "type": "address"
        },
        {
          "indexed": true,
          "internalType": "address",
          "name": "operator",
          "type": "address"
        },
        {
          "indexed": false,
          "internalType": "bool",
          "name": "approved",
          "type": "bool"
        }
      ],
      "name": "ApprovalForAll",
      "type": "event"
    },
    {
      "anonymous": false,
      "inputs": [
        {
          "indexed": true,
          "internalType": "uint256",
          "name": "tokenId",
          "type": "uint256"
        }
      ],
      "name": "CancelTradePrefecture",
      "type": "event"
    },
    {
      "anonymous": false,
      "inputs": [
        {
          "indexed": true,
          "internalType": "uint256",
          "name": "fromTokenId",
          "type": "uint256"
        },
        {
          "indexed": false,
          "internalType": "uint256",
          "name": "toTokenId",
          "type": "uint256"
        },
        {
          "indexed": true,
          "internalType": "address",
          "name": "from",
          "type": "address"
        },
        {
          "indexed": true,
          "internalType": "address",
          "name": "to",
          "type": "address"
        }
      ],
      "name": "ConsecutiveTransfer",
      "type": "event"
    },
    {
      "anonymous": false,
      "inputs": [
        {
          "indexed": true,
          "internalType": "uint256",
          "name": "targetTokenId",
          "type": "uint256"
        },
        {
          "indexed": false,
          "internalType": "address",
          "name": "_lister",
          "type": "address"
        },
        {
          "indexed": true,
          "internalType": "uint256",
          "name": "ownedTokenId",
          "type": "uint256"
        },
        {
          "indexed": false,
          "internalType": "address",
          "name": "_executer",
          "type": "address"
        }
      ],
      "name": "ExecuteTrade",
      "type": "event"
    },
    {
      "anonymous": false,
      "inputs": [
        {
          "indexed": true,
          "internalType": "address",
          "name": "previousOwner",
          "type": "address"
        },
        {
          "indexed": true,
          "internalType": "address",
          "name": "newOwner",
          "type": "address"
        }
      ],
      "name": "OwnershipTransferred",
      "type": "event"
    },
    {
      "anonymous": false,
      "inputs": [
        {
          "indexed": true,
          "internalType": "uint256",
          "name": "tokenId",
          "type": "uint256"
        },
        {
          "indexed": false,
          "internalType": "address",
          "name": "_buyer",
          "type": "address"
        }
      ],
      "name": "Purchase",
      "type": "event"
    },
    {
      "anonymous": false,
      "inputs": [
        {
          "indexed": true,
          "internalType": "uint256",
          "name": "tokenId",
          "type": "uint256"
        },
        {
          "indexed": false,
          "internalType": "bool",
          "name": "_isOnTrade",
          "type": "bool"
        }
      ],
      "name": "PutTrade",
      "type": "event"
    },
    {
      "anonymous": false,
      "inputs": [
        {
          "indexed": true,
          "internalType": "uint256",
          "name": "tokenId",
          "type": "uint256"
        },
        {
          "indexed": false,
          "internalType": "uint256[]",
          "name": "_prefectures",
          "type": "uint256[]"
        },
        {
          "indexed": false,
          "internalType": "address",
          "name": "_tradeAddress",
          "type": "address"
        }
      ],
      "name": "PutTradePrefecture",
      "type": "event"
    },
    {
      "anonymous": false,
      "inputs": [
        {
          "indexed": true,
          "internalType": "uint256",
          "name": "tokenId",
          "type": "uint256"
        },
        {
          "indexed": false,
          "internalType": "uint256",
          "name": "price",
          "type": "uint256"
        }
      ],
      "name": "SetPrice",
      "type": "event"
    },
    {
      "anonymous": false,
      "inputs": [
        {
          "indexed": true,
          "internalType": "address",
          "name": "from",
          "type": "address"
        },
        {
          "indexed": true,
          "internalType": "address",
          "name": "to",
          "type": "address"
        },
        {
          "indexed": true,
          "internalType": "uint256",
          "name": "tokenId",
          "type": "uint256"
        }
      ],
      "name": "Transfer",
      "type": "event"
    },
    {
      "inputs": [
        {
          "internalType": "uint256",
          "name": "_tokenId",
          "type": "uint256"
        },
        {
          "internalType": "contract IERC721Marketplace",
          "name": "_dealer",
          "type": "address"
        },
        {
          "internalType": "uint256",
          "name": "_price",
          "type": "uint256"
        }
      ],
      "name": "acceptOffer",
      "outputs": [],
      "stateMutability": "nonpayable",
      "type": "function"
    },
    {
      "inputs": [
        {
          "internalType": "address",
          "name": "to",
          "type": "address"
        },
        {
          "internalType": "uint256",
          "name": "tokenId",
          "type": "uint256"
        }
      ],
      "name": "approve",
      "outputs": [],
      "stateMutability": "payable",
      "type": "function"
    },
    {
      "inputs": [
        {
          "internalType": "address",
          "name": "",
          "type": "address"
        }
      ],
      "name": "approveWhiteList",
      "outputs": [
        {
          "internalType": "bool",
          "name": "",
          "type": "bool"
        }
      ],
      "stateMutability": "view",
      "type": "function"
    },
    {
      "inputs": [],
      "name": "assetProvider",
      "outputs": [
        {
          "internalType": "contract IAssetProvider",
          "name": "",
          "type": "address"
        }
      ],
      "stateMutability": "view",
      "type": "function"
    },
    {
      "inputs": [],
      "name": "assetProvider2",
      "outputs": [
        {
          "internalType": "contract IAssetProviderExMint",
          "name": "",
          "type": "address"
        }
      ],
      "stateMutability": "view",
      "type": "function"
    },
    {
      "inputs": [
        {
          "internalType": "address",
          "name": "owner",
          "type": "address"
        }
      ],
      "name": "balanceOf",
      "outputs": [
        {
          "internalType": "uint256",
          "name": "",
          "type": "uint256"
        }
      ],
      "stateMutability": "view",
      "type": "function"
    },
    {
      "inputs": [],
      "name": "canSetApproval",
      "outputs": [
        {
          "internalType": "bool",
          "name": "",
          "type": "bool"
        }
      ],
      "stateMutability": "view",
      "type": "function"
    },
    {
      "inputs": [
        {
          "internalType": "uint256",
          "name": "_tokenId",
          "type": "uint256"
        }
      ],
      "name": "cancelTradeLocalNoun",
      "outputs": [],
      "stateMutability": "nonpayable",
      "type": "function"
    },
    {
      "inputs": [
        {
          "internalType": "uint256",
          "name": "_tokenId",
          "type": "uint256"
        }
      ],
      "name": "debugTokenURI",
      "outputs": [
        {
          "internalType": "string",
          "name": "uri",
          "type": "string"
        },
        {
          "internalType": "uint256",
          "name": "gas",
          "type": "uint256"
        }
      ],
      "stateMutability": "view",
      "type": "function"
    },
    {
      "inputs": [],
      "name": "description",
      "outputs": [
        {
          "internalType": "string",
          "name": "",
          "type": "string"
        }
      ],
      "stateMutability": "view",
      "type": "function"
    },
    {
      "inputs": [
        {
          "internalType": "uint256",
          "name": "",
          "type": "uint256"
        },
        {
          "internalType": "uint256",
          "name": "",
          "type": "uint256"
        }
      ],
      "name": "executeTrade",
      "outputs": [],
      "stateMutability": "pure",
      "type": "function"
    },
    {
      "inputs": [
        {
          "internalType": "uint256",
          "name": "_myTokenId",
          "type": "uint256"
        },
        {
          "internalType": "uint256",
          "name": "_targetTokenId",
          "type": "uint256"
        }
      ],
      "name": "executeTradeLocalNoun",
      "outputs": [],
      "stateMutability": "payable",
      "type": "function"
    },
    {
      "inputs": [
        {
          "internalType": "uint256",
          "name": "tokenId",
          "type": "uint256"
        }
      ],
      "name": "getApproved",
      "outputs": [
        {
          "internalType": "address",
          "name": "",
          "type": "address"
        }
      ],
      "stateMutability": "view",
      "type": "function"
    },
    {
      "inputs": [
        {
          "internalType": "uint256",
          "name": "_tokenId",
          "type": "uint256"
        }
      ],
      "name": "getPriceOf",
      "outputs": [
        {
          "internalType": "uint256",
          "name": "",
          "type": "uint256"
        }
      ],
      "stateMutability": "view",
      "type": "function"
    },
    {
      "inputs": [
        {
          "internalType": "uint256",
          "name": "_tokenId",
          "type": "uint256"
        }
      ],
      "name": "getTradePrefectureFor",
      "outputs": [
        {
          "internalType": "uint256[]",
          "name": "",
          "type": "uint256[]"
        }
      ],
      "stateMutability": "view",
      "type": "function"
    },
    {
      "inputs": [
        {
          "internalType": "address",
          "name": "owner",
          "type": "address"
        },
        {
          "internalType": "address",
          "name": "operator",
          "type": "address"
        }
      ],
      "name": "isApprovedForAll",
      "outputs": [
        {
          "internalType": "bool",
          "name": "",
          "type": "bool"
        }
      ],
      "stateMutability": "view",
      "type": "function"
    },
    {
      "inputs": [],
      "name": "mint",
      "outputs": [
        {
          "internalType": "uint256",
          "name": "",
          "type": "uint256"
        }
      ],
      "stateMutability": "payable",
      "type": "function"
    },
    {
      "inputs": [],
      "name": "mintLimit",
      "outputs": [
        {
          "internalType": "uint256",
          "name": "",
          "type": "uint256"
        }
      ],
      "stateMutability": "view",
      "type": "function"
    },
    {
      "inputs": [],
      "name": "mintPrice",
      "outputs": [
        {
          "internalType": "uint256",
          "name": "",
          "type": "uint256"
        }
      ],
      "stateMutability": "view",
      "type": "function"
    },
    {
      "inputs": [
        {
          "internalType": "address",
          "name": "",
          "type": "address"
        }
      ],
      "name": "mintPriceFor",
      "outputs": [
        {
          "internalType": "uint256",
          "name": "",
          "type": "uint256"
        }
      ],
      "stateMutability": "view",
      "type": "function"
    },
    {
      "inputs": [
        {
          "internalType": "address",
          "name": "_to",
          "type": "address"
        },
        {
          "internalType": "uint256",
          "name": "_prefectureId",
          "type": "uint256"
        },
        {
          "internalType": "uint256",
          "name": "_amount",
          "type": "uint256"
        }
      ],
      "name": "mintSelectedPrefecture",
      "outputs": [
        {
          "internalType": "uint256",
          "name": "tokenId",
          "type": "uint256"
        }
      ],
      "stateMutability": "nonpayable",
      "type": "function"
    },
    {
      "inputs": [],
      "name": "minter",
      "outputs": [
        {
          "internalType": "address",
          "name": "",
          "type": "address"
        }
      ],
      "stateMutability": "view",
      "type": "function"
    },
    {
      "inputs": [],
      "name": "name",
      "outputs": [
        {
          "internalType": "string",
          "name": "",
          "type": "string"
        }
      ],
      "stateMutability": "view",
      "type": "function"
    },
    {
      "inputs": [],
      "name": "owner",
      "outputs": [
        {
          "internalType": "address",
          "name": "",
          "type": "address"
        }
      ],
      "stateMutability": "view",
      "type": "function"
    },
    {
      "inputs": [
        {
          "internalType": "address[]",
          "name": "_to",
          "type": "address[]"
        },
        {
          "internalType": "uint256[]",
          "name": "_prefectureId",
          "type": "uint256[]"
        },
        {
          "internalType": "uint256[]",
          "name": "_amount",
          "type": "uint256[]"
        }
      ],
      "name": "ownerMint",
      "outputs": [
        {
          "internalType": "uint256",
          "name": "tokenId",
          "type": "uint256"
        }
      ],
      "stateMutability": "nonpayable",
      "type": "function"
    },
    {
      "inputs": [
        {
          "internalType": "uint256",
          "name": "tokenId",
          "type": "uint256"
        }
      ],
      "name": "ownerOf",
      "outputs": [
        {
          "internalType": "address",
          "name": "",
          "type": "address"
        }
      ],
      "stateMutability": "view",
      "type": "function"
    },
    {
      "inputs": [
        {
          "internalType": "uint256",
          "name": "_tokenId",
          "type": "uint256"
        },
        {
          "internalType": "address",
          "name": "_buyer",
          "type": "address"
        },
        {
          "internalType": "address",
          "name": "_facilitator",
          "type": "address"
        }
      ],
      "name": "purchase",
      "outputs": [],
      "stateMutability": "payable",
      "type": "function"
    },
    {
      "inputs": [
        {
          "internalType": "uint256",
          "name": "",
          "type": "uint256"
        },
        {
          "internalType": "bool",
          "name": "",
          "type": "bool"
        }
      ],
      "name": "putTrade",
      "outputs": [],
      "stateMutability": "pure",
      "type": "function"
    },
    {
      "inputs": [
        {
          "internalType": "uint256",
          "name": "_tokenId",
          "type": "uint256"
        },
        {
          "internalType": "uint256[]",
          "name": "_prefectures",
          "type": "uint256[]"
        },
        {
          "internalType": "address",
          "name": "_tradeAddress",
          "type": "address"
        }
      ],
      "name": "putTradeLocalNoun",
      "outputs": [],
      "stateMutability": "nonpayable",
      "type": "function"
    },
    {
      "inputs": [],
      "name": "renounceOwnership",
      "outputs": [],
      "stateMutability": "nonpayable",
      "type": "function"
    },
    {
      "inputs": [
        {
          "internalType": "uint256",
          "name": "",
          "type": "uint256"
        }
      ],
      "name": "royaltyAddresses",
      "outputs": [
        {
          "internalType": "address",
          "name": "",
          "type": "address"
        }
      ],
      "stateMutability": "view",
      "type": "function"
    },
    {
      "inputs": [
        {
          "internalType": "address",
          "name": "",
          "type": "address"
        }
      ],
      "name": "royaltyRatio",
      "outputs": [
        {
          "internalType": "uint256",
          "name": "",
          "type": "uint256"
        }
      ],
      "stateMutability": "view",
      "type": "function"
    },
    {
      "inputs": [
        {
          "internalType": "address",
          "name": "from",
          "type": "address"
        },
        {
          "internalType": "address",
          "name": "to",
          "type": "address"
        },
        {
          "internalType": "uint256",
          "name": "tokenId",
          "type": "uint256"
        }
      ],
      "name": "safeTransferFrom",
      "outputs": [],
      "stateMutability": "payable",
      "type": "function"
    },
    {
      "inputs": [
        {
          "internalType": "address",
          "name": "from",
          "type": "address"
        },
        {
          "internalType": "address",
          "name": "to",
          "type": "address"
        },
        {
          "internalType": "uint256",
          "name": "tokenId",
          "type": "uint256"
        },
        {
          "internalType": "bytes",
          "name": "_data",
          "type": "bytes"
        }
      ],
      "name": "safeTransferFrom",
      "outputs": [],
      "stateMutability": "payable",
      "type": "function"
    },
    {
      "inputs": [],
      "name": "salesRoyaltyBasisPoint",
      "outputs": [
        {
          "internalType": "uint256",
          "name": "",
          "type": "uint256"
        }
      ],
      "stateMutability": "view",
      "type": "function"
    },
    {
      "inputs": [
        {
          "internalType": "address",
          "name": "operator",
          "type": "address"
        },
        {
          "internalType": "bool",
          "name": "approved",
          "type": "bool"
        }
      ],
      "name": "setApprovalForAll",
      "outputs": [],
      "stateMutability": "nonpayable",
      "type": "function"
    },
    {
      "inputs": [
        {
          "internalType": "address",
          "name": "_address",
          "type": "address"
        },
        {
          "internalType": "bool",
          "name": "approve",
          "type": "bool"
        }
      ],
      "name": "setApproveWhiteList",
      "outputs": [],
      "stateMutability": "nonpayable",
      "type": "function"
    },
    {
      "inputs": [
        {
          "internalType": "contract IAssetProvider",
          "name": "_assetProvider",
          "type": "address"
        }
      ],
      "name": "setAssetProvider",
      "outputs": [],
      "stateMutability": "nonpayable",
      "type": "function"
    },
    {
      "inputs": [
        {
          "internalType": "bool",
          "name": "_canSetApproval",
          "type": "bool"
        }
      ],
      "name": "setCanSetAproval",
      "outputs": [],
      "stateMutability": "nonpayable",
      "type": "function"
    },
    {
      "inputs": [
        {
          "internalType": "string",
          "name": "_description",
          "type": "string"
        }
      ],
      "name": "setDescription",
      "outputs": [],
      "stateMutability": "nonpayable",
      "type": "function"
    },
    {
      "inputs": [
        {
          "internalType": "uint256",
          "name": "_limit",
          "type": "uint256"
        }
      ],
      "name": "setMintLimit",
      "outputs": [],
      "stateMutability": "nonpayable",
      "type": "function"
    },
    {
      "inputs": [
        {
          "internalType": "uint256",
          "name": "_price",
          "type": "uint256"
        }
      ],
      "name": "setMintPrice",
      "outputs": [],
      "stateMutability": "nonpayable",
      "type": "function"
    },
    {
      "inputs": [
        {
          "internalType": "address",
          "name": "_minter",
          "type": "address"
        }
      ],
      "name": "setMinter",
      "outputs": [],
      "stateMutability": "nonpayable",
      "type": "function"
    },
    {
      "inputs": [
        {
          "internalType": "uint256",
          "name": "_tokenId",
          "type": "uint256"
        },
        {
          "internalType": "uint256",
          "name": "_price",
          "type": "uint256"
        }
      ],
      "name": "setPriceOf",
      "outputs": [],
      "stateMutability": "nonpayable",
      "type": "function"
    },
    {
      "inputs": [
        {
          "internalType": "address[]",
          "name": "_addr",
          "type": "address[]"
        },
        {
          "internalType": "uint256[]",
          "name": "ratio",
          "type": "uint256[]"
        }
      ],
      "name": "setRoyaltyAddresses",
      "outputs": [],
      "stateMutability": "nonpayable",
      "type": "function"
    },
    {
      "inputs": [
        {
          "internalType": "uint256",
          "name": "_bp",
          "type": "uint256"
        }
      ],
      "name": "setSalesRoyaltyBasisPoint",
      "outputs": [],
      "stateMutability": "nonpayable",
      "type": "function"
    },
    {
      "inputs": [
        {
          "internalType": "uint256",
          "name": "_royalty",
          "type": "uint256"
        }
      ],
      "name": "setTradeRoyalty",
      "outputs": [],
      "stateMutability": "nonpayable",
      "type": "function"
    },
    {
      "inputs": [
        {
          "internalType": "bytes4",
          "name": "interfaceId",
          "type": "bytes4"
        }
      ],
      "name": "supportsInterface",
      "outputs": [
        {
          "internalType": "bool",
          "name": "",
          "type": "bool"
        }
      ],
      "stateMutability": "view",
      "type": "function"
    },
    {
      "inputs": [],
      "name": "symbol",
      "outputs": [
        {
          "internalType": "string",
          "name": "",
          "type": "string"
        }
      ],
      "stateMutability": "view",
      "type": "function"
    },
    {
      "inputs": [
        {
          "internalType": "uint256",
          "name": "_tokenId",
          "type": "uint256"
        }
      ],
      "name": "tokenURI",
      "outputs": [
        {
          "internalType": "string",
          "name": "",
          "type": "string"
        }
      ],
      "stateMutability": "view",
      "type": "function"
    },
    {
      "inputs": [],
      "name": "totalSupply",
      "outputs": [
        {
          "internalType": "uint256",
          "name": "",
          "type": "uint256"
        }
      ],
      "stateMutability": "view",
      "type": "function"
    },
    {
      "inputs": [],
      "name": "totalSupply2",
      "outputs": [
        {
          "internalType": "uint256",
          "name": "",
          "type": "uint256"
        }
      ],
      "stateMutability": "view",
      "type": "function"
    },
    {
      "inputs": [
        {
          "internalType": "uint256",
          "name": "",
          "type": "uint256"
        }
      ],
      "name": "tradeAddress",
      "outputs": [
        {
          "internalType": "address",
          "name": "",
          "type": "address"
        }
      ],
      "stateMutability": "view",
      "type": "function"
    },
    {
      "inputs": [
        {
          "internalType": "uint256",
          "name": "",
          "type": "uint256"
        },
        {
          "internalType": "uint256",
          "name": "",
          "type": "uint256"
        }
      ],
      "name": "tradePrefecture",
      "outputs": [
        {
          "internalType": "uint256",
          "name": "",
          "type": "uint256"
        }
      ],
      "stateMutability": "view",
      "type": "function"
    },
    {
      "inputs": [],
      "name": "tradeRoyalty",
      "outputs": [
        {
          "internalType": "uint256",
          "name": "",
          "type": "uint256"
        }
      ],
      "stateMutability": "view",
      "type": "function"
    },
    {
      "inputs": [
        {
          "internalType": "uint256",
          "name": "",
          "type": "uint256"
        }
      ],
      "name": "trades",
      "outputs": [
        {
          "internalType": "bool",
          "name": "",
          "type": "bool"
        }
      ],
      "stateMutability": "view",
      "type": "function"
    },
    {
      "inputs": [
        {
          "internalType": "address",
          "name": "from",
          "type": "address"
        },
        {
          "internalType": "address",
          "name": "to",
          "type": "address"
        },
        {
          "internalType": "uint256",
          "name": "tokenId",
          "type": "uint256"
        }
      ],
      "name": "transferFrom",
      "outputs": [],
      "stateMutability": "payable",
      "type": "function"
    },
    {
      "inputs": [
        {
          "internalType": "address",
          "name": "newOwner",
          "type": "address"
        }
      ],
      "name": "transferOwnership",
      "outputs": [],
      "stateMutability": "nonpayable",
      "type": "function"
    },
    {
      "inputs": [],
      "name": "withdraw",
      "outputs": [],
      "stateMutability": "payable",
      "type": "function"
    }
  ],
  "bytecode": "0x60806040526016805460ff19169055660aa87bee5380006017556103e86018553480156200002c57600080fd5b50604051620040ce380380620040ce8339810160408190526200004f91620002aa565b604080518082018252600b8082526a4c6f63616c204e6f756e7360a81b602080840182905284518086019095529184529083015283918181600262000095838262000400565b506003620000a4828262000400565b50506000805550620000b63362000178565b5050600e80546001600160a01b0319166001600160a01b039290921691909117905560408051808201909152600b8082526a4c6f63616c204e6f756e7360a81b60208301529062000108908262000400565b50600f80546001600160a01b038085166001600160a01b0319928316179092556010805492841692909116919091179055604080516020810190915233815262000157906013906001620001ca565b505033600090815260146020526040902060019081905560155550620004cc565b600880546001600160a01b038381166001600160a01b0319831681179093556040519116919082907f8be0079c531659141344cd1fd0a4f28419497f9722a3daafe3b4186f6b6457e090600090a35050565b82805482825590600052602060002090810192821562000222579160200282015b828111156200022257825182546001600160a01b0319166001600160a01b03909116178255602090920191600190910190620001eb565b506200023092915062000234565b5090565b5b8082111562000230576000815560010162000235565b60006001600160a01b0382165b92915050565b600062000258826200024b565b62000276816200025e565b81146200028257600080fd5b50565b805162000258816200026b565b62000276816200024b565b8051620002588162000292565b60008060408385031215620002c257620002c2600080fd5b6000620002d0858562000285565b9250506020620002e3858286016200029d565b9150509250929050565b634e487b7160e01b600052604160045260246000fd5b634e487b7160e01b600052602260045260246000fd5b6002810460018216806200032e57607f821691505b60208210810362000343576200034362000303565b50919050565b600062000258620003578381565b90565b620003658362000349565b81546008840282811b60001990911b908116901990911617825550505050565b6000620003948184846200035a565b505050565b81811015620003b857620003af60008262000385565b60010162000399565b5050565b601f82111562000394576000818152602090206020601f85010481016020851015620003e55750805b620003f96020601f86010483018262000399565b5050505050565b81516001600160401b038111156200041c576200041c620002ed565b62000428825462000319565b62000435828285620003bc565b506020601f8211600181146200046d5760008315620004545750848201515b600019600885021c1981166002850217855550620003f9565b600084815260208120601f198516915b828110156200049f57878501518255602094850194600190920191016200047d565b5084821015620004bd5783870151600019601f87166008021c191681555b50505050600202600101905550565b613bf280620004dc6000396000f3fe60806040526004361061038c5760003560e01c806370a08231116101dc578063a370f7d711610102578063dc49f204116100a0578063f4a0a5281161006f578063f4a0a52814610a2a578063fba49e4f14610a4a578063fca3b5aa14610a6a578063ff7047aa14610a8a57600080fd5b8063dc49f204146109b0578063e4f71a00146109ca578063e985e9c5146109ea578063f2fde38b14610a0a57600080fd5b8063b88d4fde116100dc578063b88d4fde1461091f578063c669df6d14610932578063c87b56dd14610962578063cc44ab411461098257600080fd5b8063a370f7d7146108b2578063b212cfc7146108d2578063b54b4fb9146108f257600080fd5b80639048ec0a1161017a57806396178c201161014957806396178c2014610525578063996517cf1461085c5780639e6a1d7d14610872578063a22cb4651461089257600080fd5b80639048ec0a146107f157806390c3f38f146108075780639589d7b91461082757806395d89b411461084757600080fd5b80637e4f8669116101b65780637e4f8669146107805780638c402078146107a05780638da5cb5b146107b35780638dac5864146107d157600080fd5b806370a0823114610736578063715018a6146107565780637284e4161461076b57600080fd5b806323c563ab116102c15780633ccfd60b1161025f5780635975814e1161022e5780635975814e146106c55780636352211e146106e557806367008d77146107055780636817c76c1461072057600080fd5b80633ccfd60b1461065d57806342842e0e14610665578063476bf00d146106785780634d1317571461069857600080fd5b80632dbdaf6e1161029b5780632dbdaf6e146105ea57806335a05ad51461060a57806337fbf5781461062a5780633b7f8f151461064a57600080fd5b806323c563ab1461057d57806326df5b351461059d57806326fbd1d6146105ca57600080fd5b806311d7ef261161032e578063163999a611610308578063163999a61461050557806318160ddd146105255780631e6c598e1461053a57806323b872dd1461056a57600080fd5b806311d7ef26146104a55780631249c58b146104db5780631346d8ea146104e357600080fd5b8063075461721161036a578063075461721461041657806307f0bac114610443578063081812fc14610470578063095ea7b31461049057600080fd5b806301ffc9a71461039157806305503088146103c757806306fdde03146103f4575b600080fd5b34801561039d57600080fd5b506103b16103ac36600461286c565b610aa0565b6040516103be9190612897565b60405180910390f35b3480156103d357600080fd5b506103e76103e2366004612a51565b610acb565b6040516103be9190612af4565b34801561040057600080fd5b50610409610ba1565b6040516103be9190612b58565b34801561042257600080fd5b50601054610436906001600160a01b031681565b6040516103be9190612b72565b34801561044f57600080fd5b506103e761045e366004612b80565b60146020526000908152604090205481565b34801561047c57600080fd5b5061043661048b366004612ba1565b610c33565b6104a361049e366004612bc2565b610c77565b005b3480156104b157600080fd5b506104366104c0366004612ba1565b6012602052600090815260409020546001600160a01b031681565b6103e7610cca565b3480156104ef57600080fd5b506103e76104fe366004612b80565b50600c5490565b34801561051157600080fd5b506104a3610520366004612bff565b610ce4565b34801561053157600080fd5b506000546103e7565b34801561054657600080fd5b506103b1610555366004612ba1565b600a6020526000908152604090205460ff1681565b6104a3610578366004612c65565b610dd6565b34801561058957600080fd5b506104a3610598366004612ba1565b610f7b565b3480156105a957600080fd5b50600f546105bd906001600160a01b031681565b6040516103be9190612ced565b3480156105d657600080fd5b506104a36105e5366004612cfb565b610f88565b3480156105f657600080fd5b506104a3610605366004612d30565b610fa0565b34801561061657600080fd5b50610436610625366004612ba1565b610fd3565b34801561063657600080fd5b506103e7610645366004612d63565b610ffd565b6104a3610658366004612d98565b611145565b6104a361118d565b6104a3610673366004612c65565b6111a0565b34801561068457600080fd5b506104a3610693366004612ba1565b6111bb565b3480156106a457600080fd5b506106b86106b3366004612ba1565b6111c8565b6040516103be9190612e3c565b3480156106d157600080fd5b506104a36106e0366004612e4d565b61122a565b3480156106f157600080fd5b50610436610700366004612ba1565b61133c565b34801561071157600080fd5b506104a36105e5366004612e9c565b34801561072c57600080fd5b506103e7600c5481565b34801561074257600080fd5b506103e7610751366004612b80565b611347565b34801561076257600080fd5b506104a3611395565b34801561077757600080fd5b506104096113a7565b34801561078c57600080fd5b506104a361079b366004612ebe565b611435565b6104a36107ae366004612cfb565b611450565b3480156107bf57600080fd5b506008546001600160a01b0316610436565b3480156107dd57600080fd5b506104a36107ec366004612ba1565b61163b565b3480156107fd57600080fd5b506103e760185481565b34801561081357600080fd5b506104a3610822366004612f6d565b6116ae565b34801561083357600080fd5b506104a3610842366004612fc6565b6116c2565b34801561085357600080fd5b50610409611733565b34801561086857600080fd5b506103e7600d5481565b34801561087e57600080fd5b506104a361088d366004612ba1565b611742565b34801561089e57600080fd5b506104a36108ad366004612d30565b61174f565b3480156108be57600080fd5b50600e546105bd906001600160a01b031681565b3480156108de57600080fd5b506104a36108ed366004612ffb565b61179e565b3480156108fe57600080fd5b506103e761090d366004612ba1565b60009081526009602052604090205490565b6104a361092d36600461301c565b6117c8565b34801561093e57600080fd5b506103b161094d366004612b80565b60196020526000908152604090205460ff1681565b34801561096e57600080fd5b5061040961097d366004612ba1565b611812565b34801561098e57600080fd5b506109a261099d366004612ba1565b611923565b6040516103be92919061309a565b3480156109bc57600080fd5b506016546103b19060ff1681565b3480156109d657600080fd5b506103e76109e5366004612cfb565b611947565b3480156109f657600080fd5b506103b1610a053660046130ba565b611978565b348015610a1657600080fd5b506104a3610a25366004612b80565b6119a6565b348015610a3657600080fd5b506104a3610a45366004612ba1565b6119e0565b348015610a5657600080fd5b506104a3610a65366004612cfb565b6119ed565b348015610a7657600080fd5b506104a3610a85366004612b80565b611a6c565b348015610a9657600080fd5b506103e760175481565b60006001600160e01b031982166341fb5ca160e01b1480610ac55750610ac582611a96565b92915050565b6000610ad5611abb565b82518451148015610ae7575081518451145b610b0c5760405162461bcd60e51b8152600401610b0390613117565b60405180910390fd5b60005b8451811015610b8157610b6e858281518110610b2d57610b2d613127565b6020026020010151858381518110610b4757610b47613127565b6020026020010151858481518110610b6157610b61613127565b6020026020010151610ffd565b5080610b7981613153565b915050610b0f565b506001610b8d60005490565b610b97919061316c565b90505b9392505050565b606060028054610bb090613195565b80601f0160208091040260200160405190810160405280929190818152602001828054610bdc90613195565b8015610c295780601f10610bfe57610100808354040283529160200191610c29565b820191906000526020600020905b815481529060010190602001808311610c0c57829003601f168201915b5050505050905090565b6000610c3e82611ae5565b610c5b576040516333d1c03960e21b815260040160405180910390fd5b506000908152600660205260409020546001600160a01b031690565b60165460ff1680610ca057506001600160a01b03821660009081526019602052604090205460ff165b610cbc5760405162461bcd60e51b8152600401610b03906131ec565b610cc68282611b0c565b5050565b600060405162461bcd60e51b8152600401610b039061321b565b610cec611abb565b8051825114610d0d5760405162461bcd60e51b8152600401610b0390613117565b8151610d20906013906020850190612795565b50600060158190555b8251811015610dd157818181518110610d4457610d44613127565b602002602001015160146000858481518110610d6257610d62613127565b60200260200101516001600160a01b03166001600160a01b0316815260200190815260200160002081905550818181518110610da057610da0613127565b602002602001015160156000828254610db9919061322b565b90915550819050610dc981613153565b915050610d29565b505050565b6000610de182611bac565b9050836001600160a01b0316816001600160a01b031614610e145760405162a1148160e81b815260040160405180910390fd5b60008281526006602052604090208054338082146001600160a01b03881690911417610e6157610e448633611978565b610e6157604051632ce44b5f60e11b815260040160405180910390fd5b6001600160a01b038516610e8857604051633a954ecd60e21b815260040160405180910390fd5b610e958686866001611c13565b8015610ea057600082555b6001600160a01b038681166000908152600560205260408082208054600019019055918716808252919020805460010190554260a01b17600160e11b17600085815260046020526040812091909155600160e11b84169003610f3257600184016000818152600460205260408120549003610f30576000548114610f305760008181526004602052604090208490555b505b83856001600160a01b0316876001600160a01b03167fddf252ad1be2c89b69c2b068fc378daa952ba7f163c4a11628f55a4df523b3ef60405160405180910390a4505050505050565b610f83611abb565b601755565b60405162461bcd60e51b8152600401610b039061321b565b610fa8611abb565b6001600160a01b03919091166000908152601960205260409020805460ff1916911515919091179055565b60138181548110610fe357600080fd5b6000918252602090912001546001600160a01b0316905081565b6010546000906001600160a01b031633148061102357506008546001600160a01b031633145b61103f5760405162461bcd60e51b8152600401610b0390613261565b602f61104c606485613287565b111561106a5760405162461bcd60e51b8152600401610b03906132c4565b6110748483611c63565b60008261108060005490565b61108a919061316c565b905060005b8381101561112657600f546001600160a01b0316631b2ef1ca866110b3848661322b565b6040518363ffffffff1660e01b81526004016110d09291906132d4565b6020604051808303816000875af11580156110ef573d6000803e3d6000fd5b505050506040513d601f19601f8201168201806040525081019061111391906132fa565b508061111e81613153565b91505061108f565b50600161113260005490565b61113c919061316c565b95945050505050565b611150838383611c7d565b827f6b8e277b5ac199aea04139b79dce59b078ad22c9648f1bd3083495991809b770836040516111809190612b72565b60405180910390a2505050565b611195611abb565b61119e47611d62565b565b610dd1838383604051806020016040528060008152506117c8565b6111c3611abb565b601855565b60008181526011602090815260409182902080548351818402810184019094528084526060939283018282801561121e57602002820191906000526020600020905b81548152602001906001019080831161120a575b50505050509050919050565b60005b82518110156112a757600083828151811061124a5761124a613127565b60200260200101511180156112795750602f83828151811061126e5761126e613127565b602002602001015111155b6112955760405162461bcd60e51b8152600401610b039061334d565b8061129f81613153565b91505061122d565b506112b3836001611e0d565b600083815260116020908152604090912083516112d2928501906127fa565b506001600160a01b0381161561130a57600083815260126020526040902080546001600160a01b0319166001600160a01b0383161790555b827fc02d04215aef5676b10fa9457659d93003c9f8e4b6e36600757e93351ea663be838360405161118092919061335d565b6000610ac582611bac565b60006001600160a01b038216611370576040516323d3ad8160e21b815260040160405180910390fd5b506001600160a01b03166000908152600560205260409020546001600160401b031690565b61139d611abb565b61119e6000611e89565b600b80546113b490613195565b80601f01602080910402602001604051908101604052809291908181526020018280546113e090613195565b801561142d5780601f106114025761010080835404028352916020019161142d565b820191906000526020600020905b81548152906001019060200180831161141057829003601f168201915b505050505081565b61143d611abb565b6016805460ff1916911515919091179055565b6017543410156114725760405162461bcd60e51b8152600401610b03906133a5565b6000818152601260205260409020546001600160a01b031615806114ac57506000818152601260205260409020546001600160a01b031633145b6114c85760405162461bcd60e51b8152600401610b03906133e7565b600081815260116020526040902054156115d957600f5460405163957b3b2360e01b81526000916001600160a01b03169063957b3b239061150d908690600401612af4565b6020604051808303816000875af115801561152c573d6000803e3d6000fd5b505050506040513d601f19601f8201168201806040525081019061155091906132fa565b90506000805b6000848152601160205260409020548110156115b857600084815260116020526040902080548290811061158c5761158c613127565b906000526020600020015483036115a657600191506115b8565b806115b081613153565b915050611556565b50806115d65760405162461bcd60e51b8152600401610b0390613429565b50505b6115e38282611edb565b6115ec34611f61565b81817fddecc862fea6282d99f164d7510d91c195d3e279c98fc7e31b9f81db472d80146116188461133c565b6116218661133c565b60405161162f929190613439565b60405180910390a35050565b611646816000611e0d565b6000818152601160205260409020606080519091611666916080906127fa565b5060008281526012602052604080822080546001600160a01b03191690555183917f28dad92e7cc5308a2998d22449801e54e49034de5d8586493e68e8a24ac2d41691a25050565b6116b6611abb565b600b610cc682826134ea565b6116cc83826119ed565b604051633c6fc81760e01b81526001600160a01b03831690633c6fc817906116fc903090879086906004016135a9565b600060405180830381600087803b15801561171657600080fd5b505af115801561172a573d6000803e3d6000fd5b50505050505050565b606060038054610bb090613195565b61174a611abb565b600d55565b60165460ff168061177857506001600160a01b03821660009081526019602052604090205460ff165b6117945760405162461bcd60e51b8152600401610b0390613611565b610cc68282611f6a565b6117a6611abb565b600e80546001600160a01b0319166001600160a01b0392909216919091179055565b6117d3848484610dd6565b6001600160a01b0383163b1561180c576117ef84848484611fcd565b61180c576040516368d2bf6b60e11b815260040160405180910390fd5b50505050565b606061181d60005490565b821061183b5760405162461bcd60e51b8152600401610b0390613647565b600f546040516371f9278160e11b815260009182916001600160a01b039091169063e3f24f0290611870908790600401612af4565b600060405180830381865afa15801561188d573d6000803e3d6000fd5b505050506040513d6000823e601f3d908101601f191682016040526118b591908101906136af565b9092509050816118fa6118c7866120b9565b600b6118d2886120ea565b846040516020016118e694939291906137a9565b604051602081830303815290604052612160565b60405160200161190a9190613863565b6040516020818303038152906040529350505050919050565b606060005a905061193383611812565b91505a611940908261316c565b9050915091565b6011602052816000526040600020818154811061196357600080fd5b90600052602060002001600091509150505481565b6001600160a01b03918216600090815260076020908152604080832093909416825291909152205460ff1690565b6119ae611abb565b6001600160a01b0381166119d45760405162461bcd60e51b8152600401610b03906138d8565b6119dd81611e89565b50565b6119e8611abb565b600c55565b336119f78361133c565b6001600160a01b031614611a1d5760405162461bcd60e51b8152600401610b0390613918565b600082815260096020526040908190208290555182907ff9317dc3bc6dda0e00e43855c2c30847aeafb8dcea9d2ce86e9ce7a83d549f0190611a60908490612af4565b60405180910390a25050565b611a74611abb565b601080546001600160a01b0319166001600160a01b0392909216919091179055565b60006001600160e01b0319821663700cc4ad60e11b1480610ac55750610ac5826122c4565b6008546001600160a01b0316331461119e5760405162461bcd60e51b8152600401610b0390613958565b6000805482108015610ac5575050600090815260046020526040902054600160e01b161590565b6000611b178261133c565b9050336001600160a01b03821614611b5057611b338133611978565b611b50576040516367d9dca160e11b815260040160405180910390fd5b60008281526006602052604080822080546001600160a01b0319166001600160a01b0387811691821790925591518593918516917f8c5be1e5ebec7d5bd14f71427d1e84f3dd0314c0f7b2291e5b200ac8c7c3b92591a4505050565b600081600054811015611bfa5760008181526004602052604081205490600160e01b82169003611bf8575b80600003610b9a575060001901600081815260046020526040902054611bd7565b505b604051636f96cda160e11b815260040160405180910390fd5b6000828152601160205260409020606080519091611c33916080906127fa565b50600083815260126020526040902080546001600160a01b0319169055611c5c85858585612312565b5050505050565b610cc682826040518060200160405280600081525061233d565b60008381526009602052604090205480611ca95760405162461bcd60e51b8152600401610b0390613991565b80341015611cc95760405162461bcd60e51b8152600401610b03906139c5565b6000611cd534846123a3565b90506000611ce3348761240f565b90506000611cf08761133c565b9050806001600160a01b0381166108fc84611d0b873461316c565b611d15919061316c565b6040518115909202916000818181858888f19350505050158015611d3d573d6000803e3d6000fd5b50600088815260096020526040812055611d5882888a612437565b5050505050505050565b60005b601354811015610cc657611dfb60138281548110611d8557611d85613127565b9060005260206000200160009054906101000a90046001600160a01b03166015546014600060138681548110611dbd57611dbd613127565b60009182526020808320909101546001600160a01b03168352820192909252604001902054611dec90866139d5565b611df691906139ec565b6124ac565b80611e0581613153565b915050611d65565b33611e178361133c565b6001600160a01b031614611e3d5760405162461bcd60e51b8152600401610b0390613a32565b6000828152600a602052604090819020805460ff19168315151790555182907f0931e6600146b3ef83884d0f5e5c304a68cbc6c0ebba0617323021751e9a791790611a60908490612897565b600880546001600160a01b038381166001600160a01b0319831681179093556040519116919082907f8be0079c531659141344cd1fd0a4f28419497f9722a3daafe3b4186f6b6457e090600090a35050565b33611ee58361133c565b6001600160a01b031614611f0b5760405162461bcd60e51b8152600401610b0390613a32565b6000818152600a602052604090205460ff161515600114611f3e5760405162461bcd60e51b8152600401610b0390613a74565b6000611f498261133c565b9050611f56338285612437565b610dd1813384612437565b6119dd81611d62565b3360008181526007602090815260408083206001600160a01b038716808552925291829020805460ff191685151517905590519091907f17307eab39ab6107e8899845ad3d59bd9653f200f220920489ca2b5937696c319061162f908590612897565b604051630a85bd0160e11b81526000906001600160a01b0385169063150b7a0290612002903390899088908890600401613a84565b6020604051808303816000875af192505050801561203d575060408051601f3d908101601f1916820190925261203a91810190613ad3565b60015b61209b573d80801561206b576040519150601f19603f3d011682016040523d82523d6000602084013e612070565b606091505b508051600003612093576040516368d2bf6b60e11b815260040160405180910390fd5b805181602001fd5b6001600160e01b031916630a85bd0160e11b1490505b949350505050565b60606120c48261251f565b6040516020016120d49190613af4565b6040516020818303038152906040529050919050565b600e546040516379b92f2760e01b81526060916001600160a01b0316906379b92f279061211b908590600401612af4565b600060405180830381865afa158015612138573d6000803e3d6000fd5b505050506040513d6000823e601f3d908101601f19168201604052610ac59190810190613b0f565b6060815160000361217f57505060408051602081019091526000815290565b6000604051806060016040528060408152602001613b7d60409139905060006003845160026121ae919061322b565b6121b891906139ec565b6121c39060046139d5565b905060006121d282602061322b565b6001600160401b038111156121e9576121e96128a5565b6040519080825280601f01601f191660200182016040528015612213576020820181803683370190505b509050818152600183018586518101602084015b8183101561227f576003830192508251603f8160121c168501518253600182019150603f81600c1c168501518253600182019150603f8160061c168501518253600182019150603f8116850151825350600101612227565b60038951066001811461229957600281146122aa576122b6565b613d3d60f01b6001198301526122b6565b603d60f81b6000198301525b509398975050505050505050565b60006301ffc9a760e01b6001600160e01b0319831614806122f557506380ac58cd60e01b6001600160e01b03198316145b80610ac55750506001600160e01b031916635b5e139f60e01b1490565b6000828152600a60209081526040808320805460ff19169055600990915281205561180c8484848484565b61234783836125b2565b6001600160a01b0383163b15610dd1576000548281035b6123716000868380600101945086611fcd565b61238e576040516368d2bf6b60e11b815260040160405180910390fd5b81811061235e578160005414611c5c57600080fd5b60006001600160a01b03821615610ac5576103e86123c28460196139d5565b6123cc91906139ec565b60405190915082906001600160a01b0382169083156108fc029084906000818181858888f19350505050158015612407573d6000803e3d6000fd5b505092915050565b60006127106018548461242291906139d5565b61242c91906139ec565b9050610ac581611d62565b600061244282611bac565b9050836001600160a01b0316816001600160a01b0316146124755760405162a1148160e81b815260040160405180910390fd5b600082815260066020526040902080546001600160a01b038516610e8857604051633a954ecd60e21b815260040160405180910390fd5b6000826001600160a01b03168260405160006040518083038185875af1925050503d80600081146124f9576040519150601f19603f3d011682016040523d82523d6000602084013e6124fe565b606091505b5050905080610dd15760405162461bcd60e51b8152600401610b0390613b6c565b6060600061252c836126bd565b60010190506000816001600160401b0381111561254b5761254b6128a5565b6040519080825280601f01601f191660200182016040528015612575576020820181803683370190505b5090508181016020015b600019016f181899199a1a9b1b9c1cb0b131b232b360811b600a86061a8153600a850494508461257f575b509392505050565b60008054908290036125d75760405163b562e8dd60e01b815260040160405180910390fd5b6125e46000848385611c13565b6001600160a01b03831660008181526005602090815260408083208054680100000000000000018802019055848352600490915281206001851460e11b4260a01b178317905582840190839083907fddf252ad1be2c89b69c2b068fc378daa952ba7f163c4a11628f55a4df523b3ef8180a4600183015b81811461269357808360007fddf252ad1be2c89b69c2b068fc378daa952ba7f163c4a11628f55a4df523b3ef600080a460010161265b565b50816000036126b457604051622e076360e81b815260040160405180910390fd5b60005550505050565b60008072184f03e93ff9f4daa797ed6e38ed64bf6a1f0160401b83106126fc5772184f03e93ff9f4daa797ed6e38ed64bf6a1f0160401b830492506040015b6d04ee2d6d415b85acef81000000008310612728576d04ee2d6d415b85acef8100000000830492506020015b662386f26fc10000831061274657662386f26fc10000830492506010015b6305f5e100831061275e576305f5e100830492506008015b612710831061277257612710830492506004015b60648310612784576064830492506002015b600a8310610ac55760010192915050565b8280548282559060005260206000209081019282156127ea579160200282015b828111156127ea57825182546001600160a01b0319166001600160a01b039091161782556020909201916001909101906127b5565b506127f6929150612835565b5090565b8280548282559060005260206000209081019282156127ea579160200282015b828111156127ea57825182559160200191906001019061281a565b5b808211156127f65760008155600101612836565b6001600160e01b031981165b81146119dd57600080fd5b8035610ac58161284a565b60006020828403121561288157612881600080fd5b60006120b18484612861565b8015155b82525050565b60208101610ac5828461288d565b634e487b7160e01b600052604160045260246000fd5b601f19601f83011681018181106001600160401b03821117156128e0576128e06128a5565b6040525050565b60006128f260405190565b90506128fe82826128bb565b919050565b60006001600160401b0382111561291c5761291c6128a5565b5060209081020190565b60006001600160a01b038216610ac5565b61285681612926565b8035610ac581612937565b600061295e61295984612903565b6128e7565b8381529050602080820190840283018581111561297d5761297d600080fd5b835b8181101561299f576129918782612940565b83526020928301920161297f565b5050509392505050565b600082601f8301126129bd576129bd600080fd5b81356120b184826020860161294b565b80612856565b8035610ac5816129cd565b60006129ec61295984612903565b83815290506020808201908402830185811115612a0b57612a0b600080fd5b835b8181101561299f57612a1f87826129d3565b835260209283019201612a0d565b600082601f830112612a4157612a41600080fd5b81356120b18482602086016129de565b600080600060608486031215612a6957612a69600080fd5b83356001600160401b03811115612a8257612a82600080fd5b612a8e868287016129a9565b93505060208401356001600160401b03811115612aad57612aad600080fd5b612ab986828701612a2d565b92505060408401356001600160401b03811115612ad857612ad8600080fd5b612ae486828701612a2d565b9150509250925092565b80612891565b60208101610ac58284612aee565b60005b83811015612b1d578181015183820152602001612b05565b50506000910152565b6000612b30825190565b808452602084019350612b47818560208601612b02565b601f01601f19169290920192915050565b60208082528101610b9a8184612b26565b61289181612926565b60208101610ac58284612b69565b600060208284031215612b9557612b95600080fd5b60006120b18484612940565b600060208284031215612bb657612bb6600080fd5b60006120b184846129d3565b60008060408385031215612bd857612bd8600080fd5b6000612be48585612940565b9250506020612bf5858286016129d3565b9150509250929050565b60008060408385031215612c1557612c15600080fd5b82356001600160401b03811115612c2e57612c2e600080fd5b612c3a858286016129a9565b92505060208301356001600160401b03811115612c5957612c59600080fd5b612bf585828601612a2d565b600080600060608486031215612c7d57612c7d600080fd5b6000612c898686612940565b9350506020612c9a86828701612940565b9250506040612ae4868287016129d3565b6000610ac56001600160a01b038316612cc2565b90565b6001600160a01b031690565b6000610ac582612cab565b6000610ac582612cce565b61289181612cd9565b60208101610ac58284612ce4565b60008060408385031215612d1157612d11600080fd5b6000612be485856129d3565b801515612856565b8035610ac581612d1d565b60008060408385031215612d4657612d46600080fd5b6000612d528585612940565b9250506020612bf585828601612d25565b600080600060608486031215612d7b57612d7b600080fd5b6000612d878686612940565b9350506020612c9a868287016129d3565b600080600060608486031215612db057612db0600080fd5b6000612dbc86866129d3565b9350506020612dcd86828701612940565b9250506040612ae486828701612940565b612de88282612aee565b5060200190565b60200190565b6000612dff825190565b808452602093840193830160005b82811015612e32578151612e218782612dde565b965050602082019150600101612e0d565b5093949350505050565b60208082528101610b9a8184612df5565b600080600060608486031215612e6557612e65600080fd5b6000612e7186866129d3565b93505060208401356001600160401b03811115612e9057612e90600080fd5b612dcd86828701612a2d565b60008060408385031215612eb257612eb2600080fd5b6000612d5285856129d3565b600060208284031215612ed357612ed3600080fd5b60006120b18484612d25565b60006001600160401b03821115612ef857612ef86128a5565b601f19601f83011660200192915050565b82818337506000910152565b6000612f2361295984612edf565b905082815260208101848484011115612f3e57612f3e600080fd5b6125aa848285612f09565b600082601f830112612f5d57612f5d600080fd5b81356120b1848260208601612f15565b600060208284031215612f8257612f82600080fd5b81356001600160401b03811115612f9b57612f9b600080fd5b6120b184828501612f49565b6000610ac582612926565b61285681612fa7565b8035610ac581612fb2565b600080600060608486031215612fde57612fde600080fd5b6000612fea86866129d3565b9350506020612c9a86828701612fbb565b60006020828403121561301057613010600080fd5b60006120b18484612fbb565b6000806000806080858703121561303557613035600080fd5b60006130418787612940565b945050602061305287828801612940565b9350506040613063878288016129d3565b92505060608501356001600160401b0381111561308257613082600080fd5b61308e87828801612f49565b91505092959194509250565b604080825281016130ab8185612b26565b9050610b9a6020830184612aee565b600080604083850312156130d0576130d0600080fd5b60006130dc8585612940565b9250506020612bf585828601612940565b601581526020810174092dcecc2d8d2c84082e4e4c2f2e640d8cadccee8d605b1b81529050612def565b60208082528101610ac5816130ed565b634e487b7160e01b600052603260045260246000fd5b634e487b7160e01b600052601160045260246000fd5b6000600182016131655761316561313d565b5060010190565b81810381811115610ac557610ac561313d565b634e487b7160e01b600052602260045260246000fd5b6002810460018216806131a957607f821691505b6020821081036131bb576131bb61317f565b50919050565b6016815260208101754e6f7420616c6c6f77656420746f20617070726f766560501b81529050612def565b60208082528101610ac5816131c1565b600a8152602081016943616e6e6f742075736560b01b81529050612def565b60208082528101610ac5816131fc565b80820180821115610ac557610ac561313d565b600e8152602081016d24b73b30b634b21039b2b73232b960911b81529050612def565b60208082528101610ac58161323e565b634e487b7160e01b600052601260045260246000fd5b60008261329657613296613271565b500690565b601481526020810173125b9d985b1a59081c1c99599958dd1d5c99525960621b81529050612def565b60208082528101610ac58161329b565b604081016132e28285612aee565b610b9a6020830184612aee565b8051610ac5816129cd565b60006020828403121561330f5761330f600080fd5b60006120b184846132ef565b60178152602081017f696e636f7272656374207072656665637574726520696400000000000000000081529050612def565b60208082528101610ac58161331b565b6040808252810161336e8185612df5565b9050610b9a6020830184612b69565b601381526020810172496e73756666696369616c20726f79616c747960681b81529050612def565b60208082528101610ac58161337d565b60198152602081017f4c696d6974656420616464726573732063616e2074726164650000000000000081529050612def565b60208082528101610ac5816133b5565b60198152602081017f756e6d6174636820746f207468652077616e7473206c6973740000000000000081529050612def565b60208082528101610ac5816133f7565b604081016134478285612b69565b610b9a6020830184612b69565b6000610ac5612cbf8381565b61346983613454565b81546008840282811b60001990911b908116901990911617825550505050565b6000610dd1818484613460565b81811015610cc6576134a9600082613489565b600101613496565b601f821115610dd1576000818152602090206020601f850104810160208510156134d85750805b611c5c6020601f860104830182613496565b81516001600160401b03811115613503576135036128a5565b61350d8254613195565b6135188282856134b1565b506020601f82116001811461354d57600083156135355750848201515b600019600885021c1981166002850217855550611c5c565b600084815260208120601f198516915b8281101561357d578785015182556020948501946001909201910161355d565b508482101561359a5783870151600019601f87166008021c191681555b50505050600202600101905550565b606081016135b78286612ce4565b6135c46020830185612aee565b6120b16040830184612aee565b60238152602081017f4e6f7420616c6c6f77656420746f2073657420617070726f76616c20666f7220815262185b1b60ea1b602082015290505b60400190565b60208082528101610ac5816135d1565b6011815260208101703737b732bc34b9ba32b73a103a37b5b2b760791b81529050612def565b60208082528101610ac581613621565b600061366561295984612edf565b90508281526020810184848401111561368057613680600080fd5b6125aa848285612b02565b600082601f83011261369f5761369f600080fd5b81516120b1848260208601613657565b600080604083850312156136c5576136c5600080fd5b82516001600160401b038111156136de576136de600080fd5b6136ea8582860161368b565b92505060208301516001600160401b0381111561370957613709600080fd5b612bf58582860161368b565b600061371f825190565b61372d818560208601612b02565b9290920192915050565b6000815461374481613195565b60018216801561375b5760018114613770576137a0565b60ff19831686528115158202860193506137a0565b60008581526020902060005b838110156137985781548882015260019091019060200161377c565b505081860193505b50505092915050565b683d913730b6b2911d1160b91b81526009016137c58186613715565b701116113232b9b1b934b83a34b7b7111d1160791b815260110190506137eb8185613737565b6f222c2261747472696275746573223a5b60801b815260100190506138108184613715565b7f5d2c22696d616765223a22646174613a696d6167652f7376672b786d6c3b62618152641cd94d8d0b60da1b602082015260250190506138508183613715565b61227d60f01b815290506002810161113c565b7f646174613a6170706c69636174696f6e2f6a736f6e3b6261736536342c0000008152601d81015b9050610ac58183613715565b60268152602081017f4f776e61626c653a206e6577206f776e657220697320746865207a65726f206181526564647265737360d01b6020820152905061360b565b60208082528101610ac581613897565b60208082527f4f6e6c7920746865206f6e7765722063616e20736574207468652070726963659101908152612def565b60208082528101610ac5816138e8565b60208082527f4f776e61626c653a2063616c6c6572206973206e6f7420746865206f776e65729101908152612def565b60208082528101610ac581613928565b601481526020810173546f6b656e206973206e6f74206f6e2073616c6560601b81529050612def565b60208082528101610ac581613968565b600f8152602081016e139bdd08195b9bdd59da08199d5b99608a1b81529050612def565b60208082528101610ac5816139a1565b8181028115828204841417610ac557610ac561313d565b6000826139fb576139fb613271565b500490565b60188152602081017f4f6e6c7920746865206f6e7765722063616e207472616465000000000000000081529050612def565b60208082528101610ac581613a00565b601d8152602081017f546172676574546f6b656e4964206973206e6f74206f6e20747261646500000081529050612def565b60208082528101610ac581613a42565b60808101613a928287612b69565b613a9f6020830186612b69565b613aac6040830185612aee565b8181036060830152613abe8184612b26565b9695505050505050565b8051610ac58161284a565b600060208284031215613ae857613ae8600080fd5b60006120b18484613ac8565b6b02637b1b0b6102737bab739960a51b8152600c810161388b565b600060208284031215613b2457613b24600080fd5b81516001600160401b03811115613b3d57613b3d600080fd5b6120b18482850161368b565b600e8152602081016d11985a5b1959081d1bc81cd95b9960921b81529050612def565b60208082528101610ac581613b4956fe4142434445464748494a4b4c4d4e4f505152535455565758595a6162636465666768696a6b6c6d6e6f707172737475767778797a303132333435363738392b2fa2646970667358221220c28ba246d4801dfd371d57e87ae46783f4b344443a5253c5f07910e32cfa0c5e64736f6c63430008110033",
  "linkReferences": {},
  "deployedLinkReferences": {}
}