{
  "_format": "hh-sol-artifact-1",
  "contractName": "LocalNounsProvider",
  "sourceName": "contracts/localNouns/LocalNounsProvider.sol",
  "abi": [
    {
      "inputs": [
        {
          "internalType": "contract INounsDescriptor",
          "name": "_descriptor",
          "type": "address"
        },
        {
          "internalType": "contract INounsDescriptor",
          "name": "_localDescriptor",
          "type": "address"
        },
        {
          "internalType": "contract INounsSeeder",
          "name": "_seeder",
          "type": "address"
        },
        {
          "internalType": "contract ILocalNounsSeeder",
          "name": "_localSeeder",
          "type": "address"
        }
      ],
      "stateMutability": "nonpayable",
      "type": "constructor"
    },
    {
      "anonymous": false,
      "inputs": [
        {
          "indexed": true,
          "internalType": "address",
          "name": "previousOwner",
          "type": "address"
        },
        {
          "indexed": true,
          "internalType": "address",
          "name": "newOwner",
          "type": "address"
        }
      ],
      "name": "OwnershipTransferred",
      "type": "event"
    },
    {
      "anonymous": false,
      "inputs": [
        {
          "indexed": false,
          "internalType": "string",
          "name": "providerKey",
          "type": "string"
        },
        {
          "indexed": false,
          "internalType": "uint256",
          "name": "assetId",
          "type": "uint256"
        },
        {
          "indexed": false,
          "internalType": "address payable",
          "name": "to",
          "type": "address"
        },
        {
          "indexed": false,
          "internalType": "uint256",
          "name": "amount",
          "type": "uint256"
        }
      ],
      "name": "Payout",
      "type": "event"
    },
    {
      "inputs": [],
      "name": "descriptor",
      "outputs": [
        {
          "internalType": "contract INounsDescriptor",
          "name": "",
          "type": "address"
        }
      ],
      "stateMutability": "view",
      "type": "function"
    },
    {
      "inputs": [
        {
          "internalType": "uint256",
          "name": "_assetId",
          "type": "uint256"
        }
      ],
      "name": "determinePrefectureId",
      "outputs": [
        {
          "internalType": "uint256",
          "name": "",
          "type": "uint256"
        }
      ],
      "stateMutability": "view",
      "type": "function"
    },
    {
      "inputs": [
        {
          "internalType": "uint256",
          "name": "_assetId",
          "type": "uint256"
        }
      ],
      "name": "generateSVGPart",
      "outputs": [
        {
          "internalType": "string",
          "name": "svgPart",
          "type": "string"
        },
        {
          "internalType": "string",
          "name": "tag",
          "type": "string"
        }
      ],
      "stateMutability": "view",
      "type": "function"
    },
    {
      "inputs": [
        {
          "internalType": "uint256",
          "name": "_assetId",
          "type": "uint256"
        }
      ],
      "name": "generateTraits",
      "outputs": [
        {
          "internalType": "string",
          "name": "traits",
          "type": "string"
        }
      ],
      "stateMutability": "view",
      "type": "function"
    },
    {
      "inputs": [],
      "name": "getOwner",
      "outputs": [
        {
          "internalType": "address",
          "name": "",
          "type": "address"
        }
      ],
      "stateMutability": "view",
      "type": "function"
    },
    {
      "inputs": [
        {
          "internalType": "uint256",
          "name": "_tokenId",
          "type": "uint256"
        }
      ],
      "name": "getPrefectureId",
      "outputs": [
        {
          "internalType": "uint256",
          "name": "",
          "type": "uint256"
        }
      ],
      "stateMutability": "nonpayable",
      "type": "function"
    },
    {
      "inputs": [],
      "name": "getProviderInfo",
      "outputs": [
        {
          "components": [
            {
              "internalType": "string",
              "name": "key",
              "type": "string"
            },
            {
              "internalType": "string",
              "name": "name",
              "type": "string"
            },
            {
              "internalType": "contract IAssetProvider",
              "name": "provider",
              "type": "address"
            }
          ],
          "internalType": "struct IAssetProvider.ProviderInfo",
          "name": "",
          "type": "tuple"
        }
      ],
      "stateMutability": "view",
      "type": "function"
    },
    {
      "inputs": [],
      "name": "localDescriptor",
      "outputs": [
        {
          "internalType": "contract INounsDescriptor",
          "name": "",
          "type": "address"
        }
      ],
      "stateMutability": "view",
      "type": "function"
    },
    {
      "inputs": [],
      "name": "localSeeder",
      "outputs": [
        {
          "internalType": "contract ILocalNounsSeeder",
          "name": "",
          "type": "address"
        }
      ],
      "stateMutability": "view",
      "type": "function"
    },
    {
      "inputs": [
        {
          "internalType": "uint256",
          "name": "_prefectureId",
          "type": "uint256"
        },
        {
          "internalType": "uint256",
          "name": "_assetId",
          "type": "uint256"
        }
      ],
      "name": "mint",
      "outputs": [
        {
          "internalType": "uint256",
          "name": "",
          "type": "uint256"
        }
      ],
      "stateMutability": "nonpayable",
      "type": "function"
    },
    {
      "inputs": [
        {
          "internalType": "uint256",
          "name": "",
          "type": "uint256"
        }
      ],
      "name": "mintNumberPerPrefecture",
      "outputs": [
        {
          "internalType": "uint256",
          "name": "",
          "type": "uint256"
        }
      ],
      "stateMutability": "view",
      "type": "function"
    },
    {
      "inputs": [],
      "name": "nextTokenId",
      "outputs": [
        {
          "internalType": "uint256",
          "name": "",
          "type": "uint256"
        }
      ],
      "stateMutability": "view",
      "type": "function"
    },
    {
      "inputs": [],
      "name": "owner",
      "outputs": [
        {
          "internalType": "address",
          "name": "",
          "type": "address"
        }
      ],
      "stateMutability": "view",
      "type": "function"
    },
    {
      "inputs": [
        {
          "internalType": "uint256",
          "name": "",
          "type": "uint256"
        }
      ],
      "name": "prefectureName",
      "outputs": [
        {
          "internalType": "string",
          "name": "",
          "type": "string"
        }
      ],
      "stateMutability": "view",
      "type": "function"
    },
    {
      "inputs": [
        {
          "internalType": "uint256",
          "name": "",
          "type": "uint256"
        },
        {
          "internalType": "uint256",
          "name": "",
          "type": "uint256"
        }
      ],
      "name": "prefectureRatio",
      "outputs": [
        {
          "internalType": "uint256",
          "name": "",
          "type": "uint256"
        }
      ],
      "stateMutability": "view",
      "type": "function"
    },
    {
      "inputs": [
        {
          "internalType": "uint256",
          "name": "_assetId",
          "type": "uint256"
        }
      ],
      "name": "processPayout",
      "outputs": [],
      "stateMutability": "payable",
      "type": "function"
    },
    {
      "inputs": [],
      "name": "receiver",
      "outputs": [
        {
          "internalType": "address",
          "name": "",
          "type": "address"
        }
      ],
      "stateMutability": "view",
      "type": "function"
    },
    {
      "inputs": [],
      "name": "renounceOwnership",
      "outputs": [],
      "stateMutability": "nonpayable",
      "type": "function"
    },
    {
      "inputs": [],
      "name": "seeder",
      "outputs": [
        {
          "internalType": "contract INounsSeeder",
          "name": "",
          "type": "address"
        }
      ],
      "stateMutability": "view",
      "type": "function"
    },
    {
      "inputs": [
        {
          "internalType": "uint256",
          "name": "",
          "type": "uint256"
        }
      ],
      "name": "seeds",
      "outputs": [
        {
          "internalType": "uint48",
          "name": "background",
          "type": "uint48"
        },
        {
          "internalType": "uint48",
          "name": "body",
          "type": "uint48"
        },
        {
          "internalType": "uint48",
          "name": "accessory",
          "type": "uint48"
        },
        {
          "internalType": "uint48",
          "name": "head",
          "type": "uint48"
        },
        {
          "internalType": "uint48",
          "name": "glasses",
          "type": "uint48"
        }
      ],
      "stateMutability": "view",
      "type": "function"
    },
    {
      "inputs": [
        {
          "internalType": "bool",
          "name": "_test",
          "type": "bool"
        }
      ],
      "name": "setRandomValueForTest",
      "outputs": [],
      "stateMutability": "nonpayable",
      "type": "function"
    },
    {
      "inputs": [
        {
          "internalType": "address",
          "name": "_receiver",
          "type": "address"
        }
      ],
      "name": "setReceiver",
      "outputs": [],
      "stateMutability": "nonpayable",
      "type": "function"
    },
    {
      "inputs": [
        {
          "internalType": "bytes4",
          "name": "interfaceId",
          "type": "bytes4"
        }
      ],
      "name": "supportsInterface",
      "outputs": [
        {
          "internalType": "bool",
          "name": "",
          "type": "bool"
        }
      ],
      "stateMutability": "view",
      "type": "function"
    },
    {
      "inputs": [
        {
          "internalType": "uint256",
          "name": "",
          "type": "uint256"
        }
      ],
      "name": "tokenIdToPrefectureId",
      "outputs": [
        {
          "internalType": "uint256",
          "name": "",
          "type": "uint256"
        }
      ],
      "stateMutability": "view",
      "type": "function"
    },
    {
      "inputs": [],
      "name": "totalSupply",
      "outputs": [
        {
          "internalType": "uint256",
          "name": "",
          "type": "uint256"
        }
      ],
      "stateMutability": "pure",
      "type": "function"
    },
    {
      "inputs": [
        {
          "internalType": "address",
          "name": "newOwner",
          "type": "address"
        }
      ],
      "name": "transferOwnership",
      "outputs": [],
      "stateMutability": "nonpayable",
      "type": "function"
    }
  ],
  "bytecode": "0x6101006040526040518060a00160405280600560ff168152602001600460ff168152602001600360ff168152602001600360ff168152602001600260ff168152506008906005620000529291906200166d565b506000601460006101000a81548160ff0219169083151502179055503480156200007b57600080fd5b50604051620044c0380380620044c08339818101604052810190620000a191906200188c565b620000c1620000b56200157860201b60201c565b6200158060201b60201c565b620000d16200164460201b60201c565b600160006101000a81548173ffffffffffffffffffffffffffffffffffffffff021916908373ffffffffffffffffffffffffffffffffffffffff1602179055508373ffffffffffffffffffffffffffffffffffffffff1660808173ffffffffffffffffffffffffffffffffffffffff16815250508273ffffffffffffffffffffffffffffffffffffffff1660a08173ffffffffffffffffffffffffffffffffffffffff16815250508173ffffffffffffffffffffffffffffffffffffffff1660c08173ffffffffffffffffffffffffffffffffffffffff16815250508073ffffffffffffffffffffffffffffffffffffffff1660e08173ffffffffffffffffffffffffffffffffffffffff16815250506040518060400160405280600881526020017f486f6b6b6169646f0000000000000000000000000000000000000000000000008152506005600060018152602001908152602001600020908162000239919062001b78565b506040518060400160405280600681526020017f416f6d6f726900000000000000000000000000000000000000000000000000008152506005600060028152602001908152602001600020908162000292919062001b78565b506040518060400160405280600581526020017f497761746500000000000000000000000000000000000000000000000000000081525060056000600381526020019081526020016000209081620002eb919062001b78565b506040518060400160405280600681526020017f4d697961676900000000000000000000000000000000000000000000000000008152506005600060048152602001908152602001600020908162000344919062001b78565b506040518060400160405280600581526020017f416b697461000000000000000000000000000000000000000000000000000000815250600560006005815260200190815260200160002090816200039d919062001b78565b506040518060400160405280600881526020017f59616d616761746100000000000000000000000000000000000000000000000081525060056000600681526020019081526020016000209081620003f6919062001b78565b506040518060400160405280600981526020017f46756b757368696d610000000000000000000000000000000000000000000000815250600560006007815260200190815260200160002090816200044f919062001b78565b506040518060400160405280600781526020017f49626172616b690000000000000000000000000000000000000000000000000081525060056000600881526020019081526020016000209081620004a8919062001b78565b506040518060400160405280600781526020017f546f6368696769000000000000000000000000000000000000000000000000008152506005600060098152602001908152602001600020908162000501919062001b78565b506040518060400160405280600581526020017f47756e6d6100000000000000000000000000000000000000000000000000000081525060056000600a815260200190815260200160002090816200055a919062001b78565b506040518060400160405280600781526020017f53616974616d610000000000000000000000000000000000000000000000000081525060056000600b81526020019081526020016000209081620005b3919062001b78565b506040518060400160405280600581526020017f436869626100000000000000000000000000000000000000000000000000000081525060056000600c815260200190815260200160002090816200060c919062001b78565b506040518060400160405280600581526020017f546f6b796f00000000000000000000000000000000000000000000000000000081525060056000600d8152602001908152602001600020908162000665919062001b78565b506040518060400160405280600881526020017f4b616e616761776100000000000000000000000000000000000000000000000081525060056000600e81526020019081526020016000209081620006be919062001b78565b506040518060400160405280600781526020017f4e6969676174610000000000000000000000000000000000000000000000000081525060056000600f8152602001908152602001600020908162000717919062001b78565b506040518060400160405280600681526020017f546f79616d6100000000000000000000000000000000000000000000000000008152506005600060108152602001908152602001600020908162000770919062001b78565b506040518060400160405280600881526020017f497368696b61776100000000000000000000000000000000000000000000000081525060056000601181526020019081526020016000209081620007c9919062001b78565b506040518060400160405280600581526020017f46756b75690000000000000000000000000000000000000000000000000000008152506005600060128152602001908152602001600020908162000822919062001b78565b506040518060400160405280600981526020017f59616d616e617368690000000000000000000000000000000000000000000000815250600560006013815260200190815260200160002090816200087b919062001b78565b506040518060400160405280600681526020017f4e6167616e6f000000000000000000000000000000000000000000000000000081525060056000601481526020019081526020016000209081620008d4919062001b78565b506040518060400160405280600481526020017f4769667500000000000000000000000000000000000000000000000000000000815250600560006015815260200190815260200160002090816200092d919062001b78565b506040518060400160405280600881526020017f5368697a756f6b610000000000000000000000000000000000000000000000008152506005600060168152602001908152602001600020908162000986919062001b78565b506040518060400160405280600581526020017f416963686900000000000000000000000000000000000000000000000000000081525060056000601781526020019081526020016000209081620009df919062001b78565b506040518060400160405280600381526020017f4d696500000000000000000000000000000000000000000000000000000000008152506005600060188152602001908152602001600020908162000a38919062001b78565b506040518060400160405280600581526020017f53686967610000000000000000000000000000000000000000000000000000008152506005600060198152602001908152602001600020908162000a91919062001b78565b506040518060400160405280600581526020017f4b796f746f00000000000000000000000000000000000000000000000000000081525060056000601a8152602001908152602001600020908162000aea919062001b78565b506040518060400160405280600581526020017f4f73616b6100000000000000000000000000000000000000000000000000000081525060056000601b8152602001908152602001600020908162000b43919062001b78565b506040518060400160405280600581526020017f48796f676f00000000000000000000000000000000000000000000000000000081525060056000601c8152602001908152602001600020908162000b9c919062001b78565b506040518060400160405280600481526020017f4e6172610000000000000000000000000000000000000000000000000000000081525060056000601d8152602001908152602001600020908162000bf5919062001b78565b506040518060400160405280600881526020017f57616b6179616d6100000000000000000000000000000000000000000000000081525060056000601e8152602001908152602001600020908162000c4e919062001b78565b506040518060400160405280600781526020017f546f74746f72690000000000000000000000000000000000000000000000000081525060056000601f8152602001908152602001600020908162000ca7919062001b78565b506040518060400160405280600781526020017f5368696d616e65000000000000000000000000000000000000000000000000008152506005600060208152602001908152602001600020908162000d00919062001b78565b506040518060400160405280600781526020017f4f6b6179616d61000000000000000000000000000000000000000000000000008152506005600060218152602001908152602001600020908162000d59919062001b78565b506040518060400160405280600981526020017f4869726f7368696d6100000000000000000000000000000000000000000000008152506005600060228152602001908152602001600020908162000db2919062001b78565b506040518060400160405280600981526020017f59616d61677563686900000000000000000000000000000000000000000000008152506005600060238152602001908152602001600020908162000e0b919062001b78565b506040518060400160405280600981526020017f546f6b757368696d6100000000000000000000000000000000000000000000008152506005600060248152602001908152602001600020908162000e64919062001b78565b506040518060400160405280600681526020017f4b616761776100000000000000000000000000000000000000000000000000008152506005600060258152602001908152602001600020908162000ebd919062001b78565b506040518060400160405280600581526020017f4568696d650000000000000000000000000000000000000000000000000000008152506005600060268152602001908152602001600020908162000f16919062001b78565b506040518060400160405280600581526020017f4b6f6368690000000000000000000000000000000000000000000000000000008152506005600060278152602001908152602001600020908162000f6f919062001b78565b506040518060400160405280600781526020017f46756b756f6b61000000000000000000000000000000000000000000000000008152506005600060288152602001908152602001600020908162000fc8919062001b78565b506040518060400160405280600481526020017f53616761000000000000000000000000000000000000000000000000000000008152506005600060298152602001908152602001600020908162001021919062001b78565b506040518060400160405280600881526020017f4e61676173616b6900000000000000000000000000000000000000000000000081525060056000602a815260200190815260200160002090816200107a919062001b78565b506040518060400160405280600881526020017f4b756d616d6f746f00000000000000000000000000000000000000000000000081525060056000602b81526020019081526020016000209081620010d3919062001b78565b506040518060400160405280600481526020017f4f6974610000000000000000000000000000000000000000000000000000000081525060056000602c815260200190815260200160002090816200112c919062001b78565b506040518060400160405280600881526020017f4d6979617a616b6900000000000000000000000000000000000000000000000081525060056000602d8152602001908152602001600020908162001185919062001b78565b506040518060400160405280600981526020017f4b61676f7368696d61000000000000000000000000000000000000000000000081525060056000602e81526020019081526020016000209081620011de919062001b78565b506040518060400160405280600781526020017f4f6b696e6177610000000000000000000000000000000000000000000000000081525060056000602f8152602001908152602001600020908162001237919062001b78565b50604051806101200160405280600d60ff168152602001600e60ff168152602001601b60ff168152602001601760ff168152602001600b60ff168152602001600c60ff168152602001601c60ff168152602001600160ff168152602001602860ff1681525060136000808152602001908152602001600020906009620012bf929190620016b7565b50604051806101200160405280601660ff168152602001600860ff168152602001602260ff168152602001601a60ff168152602001600460ff168152602001600f60ff168152602001601460ff168152602001601560ff168152602001600a60ff16815250601360006001815260200190815260200160002090600962001348929190620016b7565b50604051806101200160405280600960ff168152602001602160ff168152602001600760ff168152602001601860ff168152602001602b60ff168152602001602e60ff168152602001602f60ff168152602001601960ff168152602001602360ff168152506013600060028152602001908152602001600020906009620013d1929190620016b7565b50604051806101400160405280601d60ff168152602001602660ff168152602001602a60ff168152602001600260ff168152602001600360ff168152602001601160ff168152602001602c60ff168152602001602d60ff168152602001600660ff168152602001601060ff16815250601360006003815260200190815260200160002090600a620014649291906200170e565b50604051806101400160405280602560ff168152602001600560ff168152602001601e60ff168152602001601360ff168152602001602960ff168152602001601260ff168152602001602460ff168152602001602760ff168152602001602060ff168152602001601f60ff16815250601360006004815260200190815260200160002090600a620014f79291906200170e565b5060005b60058110156200156d57600881600581106200151c576200151b62001c5f565b5b01546012600082825462001531919062001cbd565b92505081905550601254600d826005811062001552576200155162001c5f565b5b01819055508080620015649062001cf8565b915050620014fb565b505050505062001d45565b600033905090565b60008060009054906101000a900473ffffffffffffffffffffffffffffffffffffffff169050816000806101000a81548173ffffffffffffffffffffffffffffffffffffffff021916908373ffffffffffffffffffffffffffffffffffffffff1602179055508173ffffffffffffffffffffffffffffffffffffffff168173ffffffffffffffffffffffffffffffffffffffff167f8be0079c531659141344cd1fd0a4f28419497f9722a3daafe3b4186f6b6457e060405160405180910390a35050565b60008060009054906101000a900473ffffffffffffffffffffffffffffffffffffffff16905090565b8260058101928215620016a4579160200282015b82811115620016a3578251829060ff1690559160200191906001019062001681565b5b509050620016b3919062001765565b5090565b828054828255906000526020600020908101928215620016fb579160200282015b82811115620016fa578251829060ff16905591602001919060010190620016d8565b5b5090506200170a919062001765565b5090565b82805482825590600052602060002090810192821562001752579160200282015b8281111562001751578251829060ff169055916020019190600101906200172f565b5b50905062001761919062001765565b5090565b5b808211156200178057600081600090555060010162001766565b5090565b600080fd5b600073ffffffffffffffffffffffffffffffffffffffff82169050919050565b6000620017b68262001789565b9050919050565b6000620017ca82620017a9565b9050919050565b620017dc81620017bd565b8114620017e857600080fd5b50565b600081519050620017fc81620017d1565b92915050565b60006200180f82620017a9565b9050919050565b620018218162001802565b81146200182d57600080fd5b50565b600081519050620018418162001816565b92915050565b60006200185482620017a9565b9050919050565b620018668162001847565b81146200187257600080fd5b50565b60008151905062001886816200185b565b92915050565b60008060008060808587031215620018a957620018a862001784565b5b6000620018b987828801620017eb565b9450506020620018cc87828801620017eb565b9350506040620018df8782880162001830565b9250506060620018f28782880162001875565b91505092959194509250565b600081519050919050565b7f4e487b7100000000000000000000000000000000000000000000000000000000600052604160045260246000fd5b7f4e487b7100000000000000000000000000000000000000000000000000000000600052602260045260246000fd5b600060028204905060018216806200198057607f821691505b60208210810362001996576200199562001938565b5b50919050565b60008190508160005260206000209050919050565b60006020601f8301049050919050565b600082821b905092915050565b60006008830262001a007fffffffffffffffffffffffffffffffffffffffffffffffffffffffffffffffff82620019c1565b62001a0c8683620019c1565b95508019841693508086168417925050509392505050565b6000819050919050565b6000819050919050565b600062001a5962001a5362001a4d8462001a24565b62001a2e565b62001a24565b9050919050565b6000819050919050565b62001a758362001a38565b62001a8d62001a848262001a60565b848454620019ce565b825550505050565b600090565b62001aa462001a95565b62001ab181848462001a6a565b505050565b5b8181101562001ad95762001acd60008262001a9a565b60018101905062001ab7565b5050565b601f82111562001b285762001af2816200199c565b62001afd84620019b1565b8101602085101562001b0d578190505b62001b2562001b1c85620019b1565b83018262001ab6565b50505b505050565b600082821c905092915050565b600062001b4d6000198460080262001b2d565b1980831691505092915050565b600062001b68838362001b3a565b9150826002028217905092915050565b62001b8382620018fe565b67ffffffffffffffff81111562001b9f5762001b9e62001909565b5b62001bab825462001967565b62001bb882828562001add565b600060209050601f83116001811462001bf0576000841562001bdb578287015190505b62001be7858262001b5a565b86555062001c57565b601f19841662001c00866200199c565b60005b8281101562001c2a5784890151825560018201915060208501945060208101905062001c03565b8683101562001c4a578489015162001c46601f89168262001b3a565b8355505b6001600288020188555050505b505050505050565b7f4e487b7100000000000000000000000000000000000000000000000000000000600052603260045260246000fd5b7f4e487b7100000000000000000000000000000000000000000000000000000000600052601160045260246000fd5b600062001cca8262001a24565b915062001cd78362001a24565b925082820190508082111562001cf25762001cf162001c8e565b5b92915050565b600062001d058262001a24565b91507fffffffffffffffffffffffffffffffffffffffffffffffffffffffffffffffff820362001d3a5762001d3962001c8e565b5b600182019050919050565b60805160a05160c05160e05161271062001db060003960008181610fc201526113bb015260008181610a3901526112fb015260008181610a5d01528181610b7901528181610c18015281816110ff01526113f901526000818161095d015261133801526127106000f3fe6080604052600436106101815760003560e01c806379b92f27116100d1578063957b3b231161008a578063e3f24f0211610064578063e3f24f02146105b3578063f0503e80146105f1578063f2fde38b14610632578063f7260d3e1461065b57610181565b8063957b3b231461050e5780639c97287b1461054b578063d0efb6e01461057657610181565b806379b92f27146103f75780637b03d47914610434578063893d20e81461047157806389ee68bf1461049c5780638c40188e146104b85780638da5cb5b146104e357610181565b806336f2a4e61161013e57806368bd26031161011857806368bd260314610361578063715018a61461038c578063718da7ee146103a357806375794a3c146103cc57610181565b806336f2a4e6146102bc57806348ee4be0146102f9578063684931ed1461033657610181565b806301ffc9a71461018657806307411f0a146101c357806318160ddd146102005780631b2ef1ca1461022b57806323896e3914610268578063303e74df14610291575b600080fd5b34801561019257600080fd5b506101ad60048036038101906101a8919061172a565b610686565b6040516101ba9190611772565b60405180910390f35b3480156101cf57600080fd5b506101ea60048036038101906101e591906117c3565b610758565b6040516101f79190611812565b60405180910390f35b34801561020c57600080fd5b50610215610789565b6040516102229190611812565b60405180910390f35b34801561023757600080fd5b50610252600480360381019061024d91906117c3565b61078e565b60405161025f9190611812565b60405180910390f35b34801561027457600080fd5b5061028f600480360381019061028a9190611859565b610936565b005b34801561029d57600080fd5b506102a661095b565b6040516102b39190611905565b60405180910390f35b3480156102c857600080fd5b506102e360048036038101906102de9190611920565b61097f565b6040516102f091906119dd565b60405180910390f35b34801561030557600080fd5b50610320600480360381019061031b9190611920565b610a1f565b60405161032d9190611812565b60405180910390f35b34801561034257600080fd5b5061034b610a37565b6040516103589190611a20565b60405180910390f35b34801561036d57600080fd5b50610376610a5b565b6040516103839190611905565b60405180910390f35b34801561039857600080fd5b506103a1610a7f565b005b3480156103af57600080fd5b506103ca60048036038101906103c59190611a79565b610a93565b005b3480156103d857600080fd5b506103e1610adf565b6040516103ee9190611812565b60405180910390f35b34801561040357600080fd5b5061041e60048036038101906104199190611920565b610ae5565b60405161042b91906119dd565b60405180910390f35b34801561044057600080fd5b5061045b60048036038101906104569190611920565b610cdf565b6040516104689190611812565b60405180910390f35b34801561047d57600080fd5b50610486610ddf565b6040516104939190611ab5565b60405180910390f35b6104b660048036038101906104b19190611920565b610dee565b005b3480156104c457600080fd5b506104cd610ed2565b6040516104da9190611b92565b60405180910390f35b3480156104ef57600080fd5b506104f8610f7a565b6040516105059190611ab5565b60405180910390f35b34801561051a57600080fd5b5061053560048036038101906105309190611920565b610fa3565b6040516105429190611812565b60405180910390f35b34801561055757600080fd5b50610560610fc0565b60405161056d9190611bd5565b60405180910390f35b34801561058257600080fd5b5061059d60048036038101906105989190611920565b610fe4565b6040516105aa9190611812565b60405180910390f35b3480156105bf57600080fd5b506105da60048036038101906105d59190611920565b610ffc565b6040516105e8929190611bf0565b60405180910390f35b3480156105fd57600080fd5b5061061860048036038101906106139190611920565b6111b6565b604051610629959493929190611c48565b60405180910390f35b34801561063e57600080fd5b5061065960048036038101906106549190611a79565b611246565b005b34801561066757600080fd5b506106706112c9565b60405161067d9190611ab5565b60405180910390f35b60007f0ece3d21000000000000000000000000000000000000000000000000000000007bffffffffffffffffffffffffffffffffffffffffffffffffffffffff1916827bffffffffffffffffffffffffffffffffffffffffffffffffffffffff1916148061075157507f01ffc9a7000000000000000000000000000000000000000000000000000000007bffffffffffffffffffffffffffffffffffffffffffffffffffffffff1916827bffffffffffffffffffffffffffffffffffffffffffffffffffffffff1916145b9050919050565b6013602052816000526040600020818154811061077457600080fd5b90600052602060002001600091509150505481565b600090565b60008060006064856107a09190611cca565b036107c0576107ae83610cdf565b846107b99190611d2a565b90506107c4565b8390505b6107ce81846112ef565b6003600085815260200190815260200160002060008201518160000160006101000a81548165ffffffffffff021916908365ffffffffffff16021790555060208201518160000160066101000a81548165ffffffffffff021916908365ffffffffffff160217905550604082015181600001600c6101000a81548165ffffffffffff021916908365ffffffffffff16021790555060608201518160000160126101000a81548165ffffffffffff021916908365ffffffffffff16021790555060808201518160000160186101000a81548165ffffffffffff021916908365ffffffffffff1602179055509050506064816108c89190611cca565b6004600085815260200190815260200160002081905550600660006064836108f09190611cca565b8152602001908152602001600020600081548092919061090f90611d5e565b91905055506002600081548092919061092790611d5e565b91905055508291505092915050565b61093e6114e6565b80601460006101000a81548160ff02191690831515021790555050565b7f000000000000000000000000000000000000000000000000000000000000000081565b6005602052806000526040600020600091509050805461099e90611dd5565b80601f01602080910402602001604051908101604052809291908181526020018280546109ca90611dd5565b8015610a175780601f106109ec57610100808354040283529160200191610a17565b820191906000526020600020905b8154815290600101906020018083116109fa57829003601f168201915b505050505081565b60046020528060005260406000206000915090505481565b7f000000000000000000000000000000000000000000000000000000000000000081565b7f000000000000000000000000000000000000000000000000000000000000000081565b610a876114e6565b610a916000611564565b565b610a9b6114e6565b80600160006101000a81548173ffffffffffffffffffffffffffffffffffffffff021916908373ffffffffffffffffffffffffffffffffffffffff16021790555050565b60025481565b606060006003600084815260200190815260200160002060000160129054906101000a900465ffffffffffff1665ffffffffffff169050600060036000858152602001908152602001600020600001600c9054906101000a900465ffffffffffff1665ffffffffffff16905060056000600460008781526020019081526020016000205481526020019081526020016000207f000000000000000000000000000000000000000000000000000000000000000073ffffffffffffffffffffffffffffffffffffffff16631cb73e9e846040518263ffffffff1660e01b8152600401610bd09190611812565b600060405180830381865afa158015610bed573d6000803e3d6000fd5b505050506040513d6000823e3d601f19601f82011682018060405250810190610c169190611f2c565b7f000000000000000000000000000000000000000000000000000000000000000073ffffffffffffffffffffffffffffffffffffffff16631ac978b0846040518263ffffffff1660e01b8152600401610c6f9190611812565b600060405180830381865afa158015610c8c573d6000803e3d6000fd5b505050506040513d6000823e3d601f19601f82011682018060405250810190610cb59190611f2c565b604051602001610cc7939291906121eb565b60405160208183030381529060405292505050919050565b600080601460009054906101000a900460ff1615610cff57829050610d2e565b4283604051602001610d1292919061227f565b6040516020818303038152906040528051906020012060001c90505b600060125482610d3e9190611cca565b905060005b6005811015610d8457600d8160058110610d6057610d5f6122ab565b5b0154821015610d7157809150610d84565b8080610d7c90611d5e565b915050610d43565b5060136000828152602001908152602001600020601360008381526020019081526020016000208054905083610dba9190611cca565b81548110610dcb57610dca6122ab565b5b906000526020600020015492505050919050565b6000610de9610f7a565b905090565b6000600160009054906101000a900473ffffffffffffffffffffffffffffffffffffffff1690508073ffffffffffffffffffffffffffffffffffffffff166108fc349081150290604051600060405180830381858888f19350505050158015610e5b573d6000803e3d6000fd5b507fbb0eeee27936db25b1a46a81ab6d97326392a3e961efa7273d5d756d7a2e1cad6040518060400160405280600a81526020017f4c6f63616c4e6f756e7300000000000000000000000000000000000000000000815250838334604051610ec694939291906122fb565b60405180910390a15050565b610eda611630565b60405180606001604052806040518060400160405280600a81526020017f4c6f63616c4e6f756e730000000000000000000000000000000000000000000081525081526020016040518060400160405280600481526020017f4c6f676f0000000000000000000000000000000000000000000000000000000081525081526020013073ffffffffffffffffffffffffffffffffffffffff16815250905090565b60008060009054906101000a900473ffffffffffffffffffffffffffffffffffffffff16905090565b600060046000838152602001908152602001600020549050919050565b7f000000000000000000000000000000000000000000000000000000000000000081565b60066020528060005260406000206000915090505481565b6060806000600360008581526020019081526020016000206040518060a00160405290816000820160009054906101000a900465ffffffffffff1665ffffffffffff1665ffffffffffff1681526020016000820160069054906101000a900465ffffffffffff1665ffffffffffff1665ffffffffffff16815260200160008201600c9054906101000a900465ffffffffffff1665ffffffffffff1665ffffffffffff1681526020016000820160129054906101000a900465ffffffffffff1665ffffffffffff1665ffffffffffff1681526020016000820160189054906101000a900465ffffffffffff1665ffffffffffff1665ffffffffffff168152505090507f000000000000000000000000000000000000000000000000000000000000000073ffffffffffffffffffffffffffffffffffffffff16632ea04300826040518263ffffffff1660e01b815260040161115691906123be565b600060405180830381865afa158015611173573d6000803e3d6000fd5b505050506040513d6000823e3d601f19601f8201168201806040525081019061119c9190611f2c565b925060405180602001604052806000815250915050915091565b60036020528060005260406000206000915090508060000160009054906101000a900465ffffffffffff16908060000160069054906101000a900465ffffffffffff169080600001600c9054906101000a900465ffffffffffff16908060000160129054906101000a900465ffffffffffff16908060000160189054906101000a900465ffffffffffff16905085565b61124e6114e6565b600073ffffffffffffffffffffffffffffffffffffffff168173ffffffffffffffffffffffffffffffffffffffff16036112bd576040517f08c379a00000000000000000000000000000000000000000000000000000000081526004016112b49061244b565b60405180910390fd5b6112c681611564565b50565b600160009054906101000a900473ffffffffffffffffffffffffffffffffffffffff1681565b6112f7611667565b60007f000000000000000000000000000000000000000000000000000000000000000073ffffffffffffffffffffffffffffffffffffffff1663422e2e99847f00000000000000000000000000000000000000000000000000000000000000006040518363ffffffff1660e01b815260040161137492919061246b565b60a060405180830381865afa158015611391573d6000803e3d6000fd5b505050506040513d601f19601f820116820180604052508101906113b59190612551565b905060007f000000000000000000000000000000000000000000000000000000000000000073ffffffffffffffffffffffffffffffffffffffff1663c92a11c286867f00000000000000000000000000000000000000000000000000000000000000006040518463ffffffff1660e01b81526004016114369392919061257e565b60a060405180830381865afa158015611453573d6000803e3d6000fd5b505050506040513d601f19601f820116820180604052508101906114779190612641565b90506040518060a00160405280836000015165ffffffffffff168152602001836020015165ffffffffffff168152602001826040015165ffffffffffff168152602001826060015165ffffffffffff168152602001836080015165ffffffffffff168152509250505092915050565b6114ee611628565b73ffffffffffffffffffffffffffffffffffffffff1661150c610f7a565b73ffffffffffffffffffffffffffffffffffffffff1614611562576040517f08c379a0000000000000000000000000000000000000000000000000000000008152600401611559906126ba565b60405180910390fd5b565b60008060009054906101000a900473ffffffffffffffffffffffffffffffffffffffff169050816000806101000a81548173ffffffffffffffffffffffffffffffffffffffff021916908373ffffffffffffffffffffffffffffffffffffffff1602179055508173ffffffffffffffffffffffffffffffffffffffff168173ffffffffffffffffffffffffffffffffffffffff167f8be0079c531659141344cd1fd0a4f28419497f9722a3daafe3b4186f6b6457e060405160405180910390a35050565b600033905090565b60405180606001604052806060815260200160608152602001600073ffffffffffffffffffffffffffffffffffffffff1681525090565b6040518060a00160405280600065ffffffffffff168152602001600065ffffffffffff168152602001600065ffffffffffff168152602001600065ffffffffffff168152602001600065ffffffffffff1681525090565b6000604051905090565b600080fd5b600080fd5b60007fffffffff0000000000000000000000000000000000000000000000000000000082169050919050565b611707816116d2565b811461171257600080fd5b50565b600081359050611724816116fe565b92915050565b6000602082840312156117405761173f6116c8565b5b600061174e84828501611715565b91505092915050565b60008115159050919050565b61176c81611757565b82525050565b60006020820190506117876000830184611763565b92915050565b6000819050919050565b6117a08161178d565b81146117ab57600080fd5b50565b6000813590506117bd81611797565b92915050565b600080604083850312156117da576117d96116c8565b5b60006117e8858286016117ae565b92505060206117f9858286016117ae565b9150509250929050565b61180c8161178d565b82525050565b60006020820190506118276000830184611803565b92915050565b61183681611757565b811461184157600080fd5b50565b6000813590506118538161182d565b92915050565b60006020828403121561186f5761186e6116c8565b5b600061187d84828501611844565b91505092915050565b600073ffffffffffffffffffffffffffffffffffffffff82169050919050565b6000819050919050565b60006118cb6118c66118c184611886565b6118a6565b611886565b9050919050565b60006118dd826118b0565b9050919050565b60006118ef826118d2565b9050919050565b6118ff816118e4565b82525050565b600060208201905061191a60008301846118f6565b92915050565b600060208284031215611936576119356116c8565b5b6000611944848285016117ae565b91505092915050565b600081519050919050565b600082825260208201905092915050565b60005b8381101561198757808201518184015260208101905061196c565b60008484015250505050565b6000601f19601f8301169050919050565b60006119af8261194d565b6119b98185611958565b93506119c9818560208601611969565b6119d281611993565b840191505092915050565b600060208201905081810360008301526119f781846119a4565b905092915050565b6000611a0a826118d2565b9050919050565b611a1a816119ff565b82525050565b6000602082019050611a356000830184611a11565b92915050565b6000611a4682611886565b9050919050565b611a5681611a3b565b8114611a6157600080fd5b50565b600081359050611a7381611a4d565b92915050565b600060208284031215611a8f57611a8e6116c8565b5b6000611a9d84828501611a64565b91505092915050565b611aaf81611a3b565b82525050565b6000602082019050611aca6000830184611aa6565b92915050565b600082825260208201905092915050565b6000611aec8261194d565b611af68185611ad0565b9350611b06818560208601611969565b611b0f81611993565b840191505092915050565b6000611b25826118d2565b9050919050565b611b3581611b1a565b82525050565b60006060830160008301518482036000860152611b588282611ae1565b91505060208301518482036020860152611b728282611ae1565b9150506040830151611b876040860182611b2c565b508091505092915050565b60006020820190508181036000830152611bac8184611b3b565b905092915050565b6000611bbf826118d2565b9050919050565b611bcf81611bb4565b82525050565b6000602082019050611bea6000830184611bc6565b92915050565b60006040820190508181036000830152611c0a81856119a4565b90508181036020830152611c1e81846119a4565b90509392505050565b600065ffffffffffff82169050919050565b611c4281611c27565b82525050565b600060a082019050611c5d6000830188611c39565b611c6a6020830187611c39565b611c776040830186611c39565b611c846060830185611c39565b611c916080830184611c39565b9695505050505050565b7f4e487b7100000000000000000000000000000000000000000000000000000000600052601260045260246000fd5b6000611cd58261178d565b9150611ce08361178d565b925082611cf057611cef611c9b565b5b828206905092915050565b7f4e487b7100000000000000000000000000000000000000000000000000000000600052601160045260246000fd5b6000611d358261178d565b9150611d408361178d565b9250828201905080821115611d5857611d57611cfb565b5b92915050565b6000611d698261178d565b91507fffffffffffffffffffffffffffffffffffffffffffffffffffffffffffffffff8203611d9b57611d9a611cfb565b5b600182019050919050565b7f4e487b7100000000000000000000000000000000000000000000000000000000600052602260045260246000fd5b60006002820490506001821680611ded57607f821691505b602082108103611e0057611dff611da6565b5b50919050565b600080fd5b600080fd5b7f4e487b7100000000000000000000000000000000000000000000000000000000600052604160045260246000fd5b611e4882611993565b810181811067ffffffffffffffff82111715611e6757611e66611e10565b5b80604052505050565b6000611e7a6116be565b9050611e868282611e3f565b919050565b600067ffffffffffffffff821115611ea657611ea5611e10565b5b611eaf82611993565b9050602081019050919050565b6000611ecf611eca84611e8b565b611e70565b905082815260208101848484011115611eeb57611eea611e0b565b5b611ef6848285611969565b509392505050565b600082601f830112611f1357611f12611e06565b5b8151611f23848260208601611ebc565b91505092915050565b600060208284031215611f4257611f416116c8565b5b600082015167ffffffffffffffff811115611f6057611f5f6116cd565b5b611f6c84828501611efe565b91505092915050565b600081905092915050565b7f7b2274726169745f74797065223a20227072656665637475726522202c20227660008201527f616c7565223a2200000000000000000000000000000000000000000000000000602082015250565b6000611fdc602783611f75565b9150611fe782611f80565b602782019050919050565b60008190508160005260206000209050919050565b6000815461201481611dd5565b61201e8186611f75565b94506001821660008114612039576001811461204e57612081565b60ff1983168652811515820286019350612081565b61205785611ff2565b60005b838110156120795781548189015260018201915060208101905061205a565b838801955050505b50505092915050565b7f227d000000000000000000000000000000000000000000000000000000000000600082015250565b60006120c0600283611f75565b91506120cb8261208a565b600282019050919050565b7f2c7b2274726169745f74797065223a20226865616422202c202276616c75652260008201527f3a22000000000000000000000000000000000000000000000000000000000000602082015250565b6000612132602283611f75565b915061213d826120d6565b602282019050919050565b60006121538261194d565b61215d8185611f75565b935061216d818560208601611969565b80840191505092915050565b7f2c7b2274726169745f74797065223a20226163636573736f727922202c20227660008201527f616c7565223a2200000000000000000000000000000000000000000000000000602082015250565b60006121d5602783611f75565b91506121e082612179565b602782019050919050565b60006121f682611fcf565b91506122028286612007565b915061220d826120b3565b915061221882612125565b91506122248285612148565b915061222f826120b3565b915061223a826121c8565b91506122468284612148565b9150612251826120b3565b9150819050949350505050565b6000819050919050565b6122796122748261178d565b61225e565b82525050565b600061228b8285612268565b60208201915061229b8284612268565b6020820191508190509392505050565b7f4e487b7100000000000000000000000000000000000000000000000000000000600052603260045260246000fd5b60006122e582611886565b9050919050565b6122f5816122da565b82525050565b6000608082019050818103600083015261231581876119a4565b90506123246020830186611803565b61233160408301856122ec565b61233e6060830184611803565b95945050505050565b61235081611c27565b82525050565b60a08201600082015161236c6000850182612347565b50602082015161237f6020850182612347565b5060408201516123926040850182612347565b5060608201516123a56060850182612347565b5060808201516123b86080850182612347565b50505050565b600060a0820190506123d36000830184612356565b92915050565b7f4f776e61626c653a206e6577206f776e657220697320746865207a65726f206160008201527f6464726573730000000000000000000000000000000000000000000000000000602082015250565b6000612435602683611958565b9150612440826123d9565b604082019050919050565b6000602082019050818103600083015261246481612428565b9050919050565b60006040820190506124806000830185611803565b61248d60208301846118f6565b9392505050565b600080fd5b6124a281611c27565b81146124ad57600080fd5b50565b6000815190506124bf81612499565b92915050565b600060a082840312156124db576124da612494565b5b6124e560a0611e70565b905060006124f5848285016124b0565b6000830152506020612509848285016124b0565b602083015250604061251d848285016124b0565b6040830152506060612531848285016124b0565b6060830152506080612545848285016124b0565b60808301525092915050565b600060a08284031215612567576125666116c8565b5b6000612575848285016124c5565b91505092915050565b60006060820190506125936000830186611803565b6125a06020830185611803565b6125ad60408301846118f6565b949350505050565b600060a082840312156125cb576125ca612494565b5b6125d560a0611e70565b905060006125e5848285016124b0565b60008301525060206125f9848285016124b0565b602083015250604061260d848285016124b0565b6040830152506060612621848285016124b0565b6060830152506080612635848285016124b0565b60808301525092915050565b600060a08284031215612657576126566116c8565b5b6000612665848285016125b5565b91505092915050565b7f4f776e61626c653a2063616c6c6572206973206e6f7420746865206f776e6572600082015250565b60006126a4602083611958565b91506126af8261266e565b602082019050919050565b600060208201905081810360008301526126d381612697565b905091905056fea2646970667358221220f9d6970c1c8868b8debebeacaec7310702c6d4768e70601914fb6898650cf88d64736f6c63430008110033",
  "linkReferences": {},
  "deployedLinkReferences": {}
}