{
  "_format": "hh-sol-artifact-1",
  "contractName": "LocalNounsMinter",
  "sourceName": "contracts/localNouns/LocalNounsMinter.sol",
  "abi": [
    {
      "inputs": [
        {
          "internalType": "contract ILocalNounsToken",
          "name": "_token",
          "type": "address"
        }
      ],
      "stateMutability": "nonpayable",
      "type": "constructor"
    },
    {
      "anonymous": false,
      "inputs": [
        {
          "indexed": true,
          "internalType": "address",
          "name": "previousOwner",
          "type": "address"
        },
        {
          "indexed": true,
          "internalType": "address",
          "name": "newOwner",
          "type": "address"
        }
      ],
      "name": "OwnershipTransferred",
      "type": "event"
    },
    {
      "inputs": [],
      "name": "administratorsAddress",
      "outputs": [
        {
          "internalType": "address",
          "name": "",
          "type": "address"
        }
      ],
      "stateMutability": "view",
      "type": "function"
    },
    {
      "inputs": [],
      "name": "merkleRoot",
      "outputs": [
        {
          "internalType": "bytes32",
          "name": "",
          "type": "bytes32"
        }
      ],
      "stateMutability": "view",
      "type": "function"
    },
    {
      "inputs": [],
      "name": "mintMax",
      "outputs": [
        {
          "internalType": "uint256",
          "name": "",
          "type": "uint256"
        }
      ],
      "stateMutability": "view",
      "type": "function"
    },
    {
      "inputs": [],
      "name": "mintPriceForPreferential",
      "outputs": [
        {
          "internalType": "uint256",
          "name": "",
          "type": "uint256"
        }
      ],
      "stateMutability": "view",
      "type": "function"
    },
    {
      "inputs": [],
      "name": "mintPriceForPublic",
      "outputs": [
        {
          "internalType": "uint256",
          "name": "",
          "type": "uint256"
        }
      ],
      "stateMutability": "view",
      "type": "function"
    },
    {
      "inputs": [
        {
          "internalType": "uint256",
          "name": "_prefectureId",
          "type": "uint256"
        }
      ],
      "name": "mintSelectedPrefecture",
      "outputs": [
        {
          "internalType": "uint256",
          "name": "tokenId",
          "type": "uint256"
        }
      ],
      "stateMutability": "payable",
      "type": "function"
    },
    {
      "inputs": [
        {
          "internalType": "uint256[]",
          "name": "_prefectureId",
          "type": "uint256[]"
        },
        {
          "internalType": "uint256[]",
          "name": "_amount",
          "type": "uint256[]"
        }
      ],
      "name": "mintSelectedPrefectureBatch",
      "outputs": [
        {
          "internalType": "uint256",
          "name": "tokenId",
          "type": "uint256"
        }
      ],
      "stateMutability": "payable",
      "type": "function"
    },
    {
      "inputs": [],
      "name": "owner",
      "outputs": [
        {
          "internalType": "address",
          "name": "",
          "type": "address"
        }
      ],
      "stateMutability": "view",
      "type": "function"
    },
    {
      "inputs": [],
      "name": "phase",
      "outputs": [
        {
          "internalType": "enum LocalNounsMinter.SalePhase",
          "name": "",
          "type": "uint8"
        }
      ],
      "stateMutability": "view",
      "type": "function"
    },
    {
      "inputs": [
        {
          "internalType": "address",
          "name": "",
          "type": "address"
        }
      ],
      "name": "preferentialPurchacedCount",
      "outputs": [
        {
          "internalType": "uint256",
          "name": "",
          "type": "uint256"
        }
      ],
      "stateMutability": "view",
      "type": "function"
    },
    {
      "inputs": [],
      "name": "renounceOwnership",
      "outputs": [],
      "stateMutability": "nonpayable",
      "type": "function"
    },
    {
      "inputs": [
        {
          "internalType": "address",
          "name": "_admin",
          "type": "address"
        }
      ],
      "name": "setAdministratorsAddress",
      "outputs": [],
      "stateMutability": "nonpayable",
      "type": "function"
    },
    {
      "inputs": [
        {
          "internalType": "contract ILocalNounsToken",
          "name": "_token",
          "type": "address"
        }
      ],
      "name": "setLocalNounsToken",
      "outputs": [],
      "stateMutability": "nonpayable",
      "type": "function"
    },
    {
      "inputs": [
        {
          "internalType": "bytes32",
          "name": "_merkleRoot",
          "type": "bytes32"
        }
      ],
      "name": "setMerkleRoot",
      "outputs": [],
      "stateMutability": "nonpayable",
      "type": "function"
    },
    {
      "inputs": [
        {
          "internalType": "uint256",
          "name": "_price",
          "type": "uint256"
        }
      ],
      "name": "setMintPriceForPreferential",
      "outputs": [],
      "stateMutability": "nonpayable",
      "type": "function"
    },
    {
      "inputs": [
        {
          "internalType": "uint256",
          "name": "_price",
          "type": "uint256"
        }
      ],
      "name": "setMintPriceForPublic",
      "outputs": [],
      "stateMutability": "nonpayable",
      "type": "function"
    },
    {
      "inputs": [
        {
          "internalType": "enum LocalNounsMinter.SalePhase",
          "name": "_phase",
          "type": "uint8"
        }
      ],
      "name": "setPhase",
      "outputs": [],
      "stateMutability": "nonpayable",
      "type": "function"
    },
    {
      "inputs": [],
      "name": "token",
      "outputs": [
        {
          "internalType": "contract ILocalNounsToken",
          "name": "",
          "type": "address"
        }
      ],
      "stateMutability": "view",
      "type": "function"
    },
    {
      "inputs": [
        {
          "internalType": "address",
          "name": "newOwner",
          "type": "address"
        }
      ],
      "name": "transferOwnership",
      "outputs": [],
      "stateMutability": "nonpayable",
      "type": "function"
    },
    {
      "inputs": [],
      "name": "withdraw",
      "outputs": [],
      "stateMutability": "payable",
      "type": "function"
    }
  ],
  "bytecode": "0x6080604052660aa87bee53800060025566038d7ea4c680006003556000600660006101000a81548160ff02191690836002811115620000435762000042620001f0565b5b02179055503480156200005557600080fd5b506040516200172d3803806200172d83398181016040528101906200007b91906200029d565b6200009b6200008f6200012460201b60201c565b6200012c60201b60201c565b80600160006101000a81548173ffffffffffffffffffffffffffffffffffffffff021916908373ffffffffffffffffffffffffffffffffffffffff16021790555033600660016101000a81548173ffffffffffffffffffffffffffffffffffffffff021916908373ffffffffffffffffffffffffffffffffffffffff16021790555050620002cf565b600033905090565b60008060009054906101000a900473ffffffffffffffffffffffffffffffffffffffff169050816000806101000a81548173ffffffffffffffffffffffffffffffffffffffff021916908373ffffffffffffffffffffffffffffffffffffffff1602179055508173ffffffffffffffffffffffffffffffffffffffff168173ffffffffffffffffffffffffffffffffffffffff167f8be0079c531659141344cd1fd0a4f28419497f9722a3daafe3b4186f6b6457e060405160405180910390a35050565b7f4e487b7100000000000000000000000000000000000000000000000000000000600052602160045260246000fd5b600080fd5b600073ffffffffffffffffffffffffffffffffffffffff82169050919050565b6000620002518262000224565b9050919050565b6000620002658262000244565b9050919050565b620002778162000258565b81146200028357600080fd5b50565b60008151905062000297816200026c565b92915050565b600060208284031215620002b657620002b56200021f565b5b6000620002c68482850162000286565b91505092915050565b61144e80620002df6000396000f3fe60806040526004361061011f5760003560e01c8063a869703c116100a0578063eba145eb11610064578063eba145eb14610386578063ec02ac40146103af578063f2fde38b146103da578063fc0c546a14610403578063febced5d1461042e5761011f565b8063a869703c1461029a578063acdfbc3b146102d7578063b1c9fe6e14610302578063c03afb591461032d578063d9ae8b62146103565761011f565b806360b640af116100e757806360b640af146101dd578063715018a6146102065780637cb647591461021d5780638da5cb5b1461024657806393b117de146102715761011f565b80632eb4a7ab146101245780633ccfd60b1461014f5780634a68f534146101595780634d155561146101895780635e52f06a146101b4575b600080fd5b34801561013057600080fd5b50610139610459565b6040516101469190610acd565b60405180910390f35b61015761045f565b005b610173600480360381019061016e9190610b32565b6105c9565b6040516101809190610b6e565b60405180910390f35b34801561019557600080fd5b5061019e610672565b6040516101ab9190610b6e565b60405180910390f35b3480156101c057600080fd5b506101db60048036038101906101d69190610bf9565b610678565b005b3480156101e957600080fd5b5061020460048036038101906101ff9190610b32565b6106c4565b005b34801561021257600080fd5b5061021b6106d6565b005b34801561022957600080fd5b50610244600480360381019061023f9190610c52565b6106ea565b005b34801561025257600080fd5b5061025b6106fc565b6040516102689190610c8e565b60405180910390f35b34801561027d57600080fd5b5061029860048036038101906102939190610b32565b610725565b005b3480156102a657600080fd5b506102c160048036038101906102bc9190610cd5565b610737565b6040516102ce9190610b6e565b60405180910390f35b3480156102e357600080fd5b506102ec61074f565b6040516102f99190610b6e565b60405180910390f35b34801561030e57600080fd5b50610317610755565b6040516103249190610d79565b60405180910390f35b34801561033957600080fd5b50610354600480360381019061034f9190610db9565b610768565b005b610370600480360381019061036b9190610f3f565b61079d565b60405161037d9190610b6e565b60405180910390f35b34801561039257600080fd5b506103ad60048036038101906103a89190610cd5565b610849565b005b3480156103bb57600080fd5b506103c4610895565b6040516103d19190610b6e565b60405180910390f35b3480156103e657600080fd5b5061040160048036038101906103fc9190610cd5565b61089b565b005b34801561040f57600080fd5b5061041861091e565b6040516104259190611016565b60405180910390f35b34801561043a57600080fd5b50610443610944565b6040516104509190610c8e565b60405180910390f35b60045481565b61046761096a565b600073ffffffffffffffffffffffffffffffffffffffff16600660019054906101000a900473ffffffffffffffffffffffffffffffffffffffff1673ffffffffffffffffffffffffffffffffffffffff16036104f8576040517f08c379a00000000000000000000000000000000000000000000000000000000081526004016104ef906110b4565b60405180910390fd5b6000600660019054906101000a900473ffffffffffffffffffffffffffffffffffffffff1673ffffffffffffffffffffffffffffffffffffffff164760405161054090611105565b60006040518083038185875af1925050503d806000811461057d576040519150601f19603f3d011682016040523d82523d6000602084013e610582565b606091505b50509050806105c6576040517f08c379a00000000000000000000000000000000000000000000000000000000081526004016105bd9061118c565b60405180910390fd5b50565b6000600160009054906101000a900473ffffffffffffffffffffffffffffffffffffffff1673ffffffffffffffffffffffffffffffffffffffff16634df4902833846040518363ffffffff1660e01b81526004016106289291906111ac565b6020604051808303816000875af1158015610647573d6000803e3d6000fd5b505050506040513d601f19601f8201168201806040525081019061066b91906111ea565b9050919050565b610fa081565b61068061096a565b80600160006101000a81548173ffffffffffffffffffffffffffffffffffffffff021916908373ffffffffffffffffffffffffffffffffffffffff16021790555050565b6106cc61096a565b8060028190555050565b6106de61096a565b6106e860006109e8565b565b6106f261096a565b8060048190555050565b60008060009054906101000a900473ffffffffffffffffffffffffffffffffffffffff16905090565b61072d61096a565b8060038190555050565b60056020528060005260406000206000915090505481565b60025481565b600660009054906101000a900460ff1681565b61077061096a565b80600660006101000a81548160ff0219169083600281111561079557610794610d02565b5b021790555050565b6000600160009054906101000a900473ffffffffffffffffffffffffffffffffffffffff1673ffffffffffffffffffffffffffffffffffffffff16637c504f003385856040518463ffffffff1660e01b81526004016107fe939291906112d5565b6020604051808303816000875af115801561081d573d6000803e3d6000fd5b505050506040513d601f19601f8201168201806040525081019061084191906111ea565b905092915050565b61085161096a565b80600660016101000a81548173ffffffffffffffffffffffffffffffffffffffff021916908373ffffffffffffffffffffffffffffffffffffffff16021790555050565b60035481565b6108a361096a565b600073ffffffffffffffffffffffffffffffffffffffff168173ffffffffffffffffffffffffffffffffffffffff1603610912576040517f08c379a00000000000000000000000000000000000000000000000000000000081526004016109099061138c565b60405180910390fd5b61091b816109e8565b50565b600160009054906101000a900473ffffffffffffffffffffffffffffffffffffffff1681565b600660019054906101000a900473ffffffffffffffffffffffffffffffffffffffff1681565b610972610aac565b73ffffffffffffffffffffffffffffffffffffffff166109906106fc565b73ffffffffffffffffffffffffffffffffffffffff16146109e6576040517f08c379a00000000000000000000000000000000000000000000000000000000081526004016109dd906113f8565b60405180910390fd5b565b60008060009054906101000a900473ffffffffffffffffffffffffffffffffffffffff169050816000806101000a81548173ffffffffffffffffffffffffffffffffffffffff021916908373ffffffffffffffffffffffffffffffffffffffff1602179055508173ffffffffffffffffffffffffffffffffffffffff168173ffffffffffffffffffffffffffffffffffffffff167f8be0079c531659141344cd1fd0a4f28419497f9722a3daafe3b4186f6b6457e060405160405180910390a35050565b600033905090565b6000819050919050565b610ac781610ab4565b82525050565b6000602082019050610ae26000830184610abe565b92915050565b6000604051905090565b600080fd5b600080fd5b6000819050919050565b610b0f81610afc565b8114610b1a57600080fd5b50565b600081359050610b2c81610b06565b92915050565b600060208284031215610b4857610b47610af2565b5b6000610b5684828501610b1d565b91505092915050565b610b6881610afc565b82525050565b6000602082019050610b836000830184610b5f565b92915050565b600073ffffffffffffffffffffffffffffffffffffffff82169050919050565b6000610bb482610b89565b9050919050565b6000610bc682610ba9565b9050919050565b610bd681610bbb565b8114610be157600080fd5b50565b600081359050610bf381610bcd565b92915050565b600060208284031215610c0f57610c0e610af2565b5b6000610c1d84828501610be4565b91505092915050565b610c2f81610ab4565b8114610c3a57600080fd5b50565b600081359050610c4c81610c26565b92915050565b600060208284031215610c6857610c67610af2565b5b6000610c7684828501610c3d565b91505092915050565b610c8881610ba9565b82525050565b6000602082019050610ca36000830184610c7f565b92915050565b610cb281610ba9565b8114610cbd57600080fd5b50565b600081359050610ccf81610ca9565b92915050565b600060208284031215610ceb57610cea610af2565b5b6000610cf984828501610cc0565b91505092915050565b7f4e487b7100000000000000000000000000000000000000000000000000000000600052602160045260246000fd5b60038110610d4257610d41610d02565b5b50565b6000819050610d5382610d31565b919050565b6000610d6382610d45565b9050919050565b610d7381610d58565b82525050565b6000602082019050610d8e6000830184610d6a565b92915050565b60038110610da157600080fd5b50565b600081359050610db381610d94565b92915050565b600060208284031215610dcf57610dce610af2565b5b6000610ddd84828501610da4565b91505092915050565b600080fd5b6000601f19601f8301169050919050565b7f4e487b7100000000000000000000000000000000000000000000000000000000600052604160045260246000fd5b610e3482610deb565b810181811067ffffffffffffffff82111715610e5357610e52610dfc565b5b80604052505050565b6000610e66610ae8565b9050610e728282610e2b565b919050565b600067ffffffffffffffff821115610e9257610e91610dfc565b5b602082029050602081019050919050565b600080fd5b6000610ebb610eb684610e77565b610e5c565b90508083825260208201905060208402830185811115610ede57610edd610ea3565b5b835b81811015610f075780610ef38882610b1d565b845260208401935050602081019050610ee0565b5050509392505050565b600082601f830112610f2657610f25610de6565b5b8135610f36848260208601610ea8565b91505092915050565b60008060408385031215610f5657610f55610af2565b5b600083013567ffffffffffffffff811115610f7457610f73610af7565b5b610f8085828601610f11565b925050602083013567ffffffffffffffff811115610fa157610fa0610af7565b5b610fad85828601610f11565b9150509250929050565b6000819050919050565b6000610fdc610fd7610fd284610b89565b610fb7565b610b89565b9050919050565b6000610fee82610fc1565b9050919050565b600061100082610fe3565b9050919050565b61101081610ff5565b82525050565b600060208201905061102b6000830184611007565b92915050565b600082825260208201905092915050565b7f61646d696e6973747261746f7273416464726573732073686f756c646e27742060008201527f6265203000000000000000000000000000000000000000000000000000000000602082015250565b600061109e602483611031565b91506110a982611042565b604082019050919050565b600060208201905081810360008301526110cd81611091565b9050919050565b600081905092915050565b50565b60006110ef6000836110d4565b91506110fa826110df565b600082019050919050565b6000611110826110e2565b9150819050919050565b7f6661696c656420746f206d6f76652066756e6420746f2061646d696e6973747260008201527f61746f72734164647265737320636f6e74726163740000000000000000000000602082015250565b6000611176603583611031565b91506111818261111a565b604082019050919050565b600060208201905081810360008301526111a581611169565b9050919050565b60006040820190506111c16000830185610c7f565b6111ce6020830184610b5f565b9392505050565b6000815190506111e481610b06565b92915050565b600060208284031215611200576111ff610af2565b5b600061120e848285016111d5565b91505092915050565b600081519050919050565b600082825260208201905092915050565b6000819050602082019050919050565b61124c81610afc565b82525050565b600061125e8383611243565b60208301905092915050565b6000602082019050919050565b600061128282611217565b61128c8185611222565b935061129783611233565b8060005b838110156112c85781516112af8882611252565b97506112ba8361126a565b92505060018101905061129b565b5085935050505092915050565b60006060820190506112ea6000830186610c7f565b81810360208301526112fc8185611277565b905081810360408301526113108184611277565b9050949350505050565b7f4f776e61626c653a206e6577206f776e657220697320746865207a65726f206160008201527f6464726573730000000000000000000000000000000000000000000000000000602082015250565b6000611376602683611031565b91506113818261131a565b604082019050919050565b600060208201905081810360008301526113a581611369565b9050919050565b7f4f776e61626c653a2063616c6c6572206973206e6f7420746865206f776e6572600082015250565b60006113e2602083611031565b91506113ed826113ac565b602082019050919050565b60006020820190508181036000830152611411816113d5565b905091905056fea2646970667358221220b70bf3db95290050d1be022ce9b3c63da2802bed7e4d5c283092a6336e2f97ea64736f6c63430008110033",
  "linkReferences": {},
  "deployedLinkReferences": {}
}