{
  "_format": "hh-sol-artifact-1",
  "contractName": "LocalNounsProvider",
  "sourceName": "contracts/localNouns/LocalNounsProvider.sol",
  "abi": [
    {
      "inputs": [
        {
          "internalType": "contract INounsDescriptor",
          "name": "_descriptor",
          "type": "address"
        },
        {
          "internalType": "contract INounsDescriptor",
          "name": "_localDescriptor",
          "type": "address"
        },
        {
          "internalType": "contract INounsSeeder",
          "name": "_seeder",
          "type": "address"
        },
        {
          "internalType": "contract ILocalNounsSeeder",
          "name": "_localSeeder",
          "type": "address"
        }
      ],
      "stateMutability": "nonpayable",
      "type": "constructor"
    },
    {
      "anonymous": false,
      "inputs": [
        {
          "indexed": true,
          "internalType": "address",
          "name": "previousOwner",
          "type": "address"
        },
        {
          "indexed": true,
          "internalType": "address",
          "name": "newOwner",
          "type": "address"
        }
      ],
      "name": "OwnershipTransferred",
      "type": "event"
    },
    {
      "anonymous": false,
      "inputs": [
        {
          "indexed": false,
          "internalType": "string",
          "name": "providerKey",
          "type": "string"
        },
        {
          "indexed": false,
          "internalType": "uint256",
          "name": "assetId",
          "type": "uint256"
        },
        {
          "indexed": false,
          "internalType": "address payable",
          "name": "to",
          "type": "address"
        },
        {
          "indexed": false,
          "internalType": "uint256",
          "name": "amount",
          "type": "uint256"
        }
      ],
      "name": "Payout",
      "type": "event"
    },
    {
      "inputs": [],
      "name": "descriptor",
      "outputs": [
        {
          "internalType": "contract INounsDescriptor",
          "name": "",
          "type": "address"
        }
      ],
      "stateMutability": "view",
      "type": "function"
    },
    {
      "inputs": [
        {
          "internalType": "uint256",
          "name": "_assetId",
          "type": "uint256"
        }
      ],
      "name": "generateSVGPart",
      "outputs": [
        {
          "internalType": "string",
          "name": "svgPart",
          "type": "string"
        },
        {
          "internalType": "string",
          "name": "tag",
          "type": "string"
        }
      ],
      "stateMutability": "view",
      "type": "function"
    },
    {
      "inputs": [
        {
          "internalType": "uint256",
          "name": "_assetId",
          "type": "uint256"
        }
      ],
      "name": "generateTraits",
      "outputs": [
        {
          "internalType": "string",
          "name": "traits",
          "type": "string"
        }
      ],
      "stateMutability": "view",
      "type": "function"
    },
    {
      "inputs": [],
      "name": "getOwner",
      "outputs": [
        {
          "internalType": "address",
          "name": "",
          "type": "address"
        }
      ],
      "stateMutability": "view",
      "type": "function"
    },
    {
      "inputs": [
        {
          "internalType": "uint256",
          "name": "_tokenId",
          "type": "uint256"
        }
      ],
      "name": "getPrefectureId",
      "outputs": [
        {
          "internalType": "uint256",
          "name": "",
          "type": "uint256"
        }
      ],
      "stateMutability": "nonpayable",
      "type": "function"
    },
    {
      "inputs": [],
      "name": "getProviderInfo",
      "outputs": [
        {
          "components": [
            {
              "internalType": "string",
              "name": "key",
              "type": "string"
            },
            {
              "internalType": "string",
              "name": "name",
              "type": "string"
            },
            {
              "internalType": "contract IAssetProvider",
              "name": "provider",
              "type": "address"
            }
          ],
          "internalType": "struct IAssetProvider.ProviderInfo",
          "name": "",
          "type": "tuple"
        }
      ],
      "stateMutability": "view",
      "type": "function"
    },
    {
      "inputs": [],
      "name": "localDescriptor",
      "outputs": [
        {
          "internalType": "contract INounsDescriptor",
          "name": "",
          "type": "address"
        }
      ],
      "stateMutability": "view",
      "type": "function"
    },
    {
      "inputs": [],
      "name": "localSeeder",
      "outputs": [
        {
          "internalType": "contract ILocalNounsSeeder",
          "name": "",
          "type": "address"
        }
      ],
      "stateMutability": "view",
      "type": "function"
    },
    {
      "inputs": [
        {
          "internalType": "uint256",
          "name": "prefectureId",
          "type": "uint256"
        },
        {
          "internalType": "uint256",
          "name": "_assetId",
          "type": "uint256"
        }
      ],
      "name": "mint",
      "outputs": [
        {
          "internalType": "uint256",
          "name": "",
          "type": "uint256"
        }
      ],
      "stateMutability": "nonpayable",
      "type": "function"
    },
    {
      "inputs": [],
      "name": "nextTokenId",
      "outputs": [
        {
          "internalType": "uint256",
          "name": "",
          "type": "uint256"
        }
      ],
      "stateMutability": "view",
      "type": "function"
    },
    {
      "inputs": [],
      "name": "owner",
      "outputs": [
        {
          "internalType": "address",
          "name": "",
          "type": "address"
        }
      ],
      "stateMutability": "view",
      "type": "function"
    },
    {
      "inputs": [
        {
          "internalType": "uint256",
          "name": "",
          "type": "uint256"
        }
      ],
      "name": "prefectureName",
      "outputs": [
        {
          "internalType": "string",
          "name": "",
          "type": "string"
        }
      ],
      "stateMutability": "view",
      "type": "function"
    },
    {
      "inputs": [
        {
          "internalType": "uint256",
          "name": "_assetId",
          "type": "uint256"
        }
      ],
      "name": "processPayout",
      "outputs": [],
      "stateMutability": "payable",
      "type": "function"
    },
    {
      "inputs": [],
      "name": "receiver",
      "outputs": [
        {
          "internalType": "address",
          "name": "",
          "type": "address"
        }
      ],
      "stateMutability": "view",
      "type": "function"
    },
    {
      "inputs": [],
      "name": "renounceOwnership",
      "outputs": [],
      "stateMutability": "nonpayable",
      "type": "function"
    },
    {
      "inputs": [],
      "name": "seeder",
      "outputs": [
        {
          "internalType": "contract INounsSeeder",
          "name": "",
          "type": "address"
        }
      ],
      "stateMutability": "view",
      "type": "function"
    },
    {
      "inputs": [
        {
          "internalType": "uint256",
          "name": "",
          "type": "uint256"
        }
      ],
      "name": "seeds",
      "outputs": [
        {
          "internalType": "uint48",
          "name": "background",
          "type": "uint48"
        },
        {
          "internalType": "uint48",
          "name": "body",
          "type": "uint48"
        },
        {
          "internalType": "uint48",
          "name": "accessory",
          "type": "uint48"
        },
        {
          "internalType": "uint48",
          "name": "head",
          "type": "uint48"
        },
        {
          "internalType": "uint48",
          "name": "glasses",
          "type": "uint48"
        }
      ],
      "stateMutability": "view",
      "type": "function"
    },
    {
      "inputs": [
        {
          "internalType": "address",
          "name": "_receiver",
          "type": "address"
        }
      ],
      "name": "setReceiver",
      "outputs": [],
      "stateMutability": "nonpayable",
      "type": "function"
    },
    {
      "inputs": [
        {
          "internalType": "bytes4",
          "name": "interfaceId",
          "type": "bytes4"
        }
      ],
      "name": "supportsInterface",
      "outputs": [
        {
          "internalType": "bool",
          "name": "",
          "type": "bool"
        }
      ],
      "stateMutability": "view",
      "type": "function"
    },
    {
      "inputs": [
        {
          "internalType": "uint256",
          "name": "",
          "type": "uint256"
        }
      ],
      "name": "tokenIdToPrefectureId",
      "outputs": [
        {
          "internalType": "uint256",
          "name": "",
          "type": "uint256"
        }
      ],
      "stateMutability": "view",
      "type": "function"
    },
    {
      "inputs": [],
      "name": "totalSupply",
      "outputs": [
        {
          "internalType": "uint256",
          "name": "",
          "type": "uint256"
        }
      ],
      "stateMutability": "pure",
      "type": "function"
    },
    {
      "inputs": [
        {
          "internalType": "address",
          "name": "newOwner",
          "type": "address"
        }
      ],
      "name": "transferOwnership",
      "outputs": [],
      "stateMutability": "nonpayable",
      "type": "function"
    }
  ],
  "bytecode": "0x6101006040523480156200001257600080fd5b5060405162003bd238038062003bd28339818101604052810190620000389190620013d6565b620000586200004c620011d960201b60201c565b620011e160201b60201c565b62000068620012a560201b60201c565b600160006101000a81548173ffffffffffffffffffffffffffffffffffffffff021916908373ffffffffffffffffffffffffffffffffffffffff1602179055508373ffffffffffffffffffffffffffffffffffffffff1660808173ffffffffffffffffffffffffffffffffffffffff16815250508273ffffffffffffffffffffffffffffffffffffffff1660a08173ffffffffffffffffffffffffffffffffffffffff16815250508173ffffffffffffffffffffffffffffffffffffffff1660c08173ffffffffffffffffffffffffffffffffffffffff16815250508073ffffffffffffffffffffffffffffffffffffffff1660e08173ffffffffffffffffffffffffffffffffffffffff16815250506040518060400160405280600881526020017f486f6b6b6169646f00000000000000000000000000000000000000000000000081525060056000600181526020019081526020016000209081620001d09190620016c2565b506040518060400160405280600681526020017f416f6d6f7269000000000000000000000000000000000000000000000000000081525060056000600281526020019081526020016000209081620002299190620016c2565b506040518060400160405280600581526020017f497761746500000000000000000000000000000000000000000000000000000081525060056000600381526020019081526020016000209081620002829190620016c2565b506040518060400160405280600681526020017f4d6979616769000000000000000000000000000000000000000000000000000081525060056000600481526020019081526020016000209081620002db9190620016c2565b506040518060400160405280600581526020017f416b69746100000000000000000000000000000000000000000000000000000081525060056000600581526020019081526020016000209081620003349190620016c2565b506040518060400160405280600881526020017f59616d6167617461000000000000000000000000000000000000000000000000815250600560006006815260200190815260200160002090816200038d9190620016c2565b506040518060400160405280600981526020017f46756b757368696d61000000000000000000000000000000000000000000000081525060056000600781526020019081526020016000209081620003e69190620016c2565b506040518060400160405280600781526020017f49626172616b6900000000000000000000000000000000000000000000000000815250600560006008815260200190815260200160002090816200043f9190620016c2565b506040518060400160405280600781526020017f546f63686967690000000000000000000000000000000000000000000000000081525060056000600981526020019081526020016000209081620004989190620016c2565b506040518060400160405280600581526020017f47756e6d6100000000000000000000000000000000000000000000000000000081525060056000600a81526020019081526020016000209081620004f19190620016c2565b506040518060400160405280600781526020017f53616974616d610000000000000000000000000000000000000000000000000081525060056000600b815260200190815260200160002090816200054a9190620016c2565b506040518060400160405280600581526020017f436869626100000000000000000000000000000000000000000000000000000081525060056000600c81526020019081526020016000209081620005a39190620016c2565b506040518060400160405280600581526020017f546f6b796f00000000000000000000000000000000000000000000000000000081525060056000600d81526020019081526020016000209081620005fc9190620016c2565b506040518060400160405280600881526020017f4b616e616761776100000000000000000000000000000000000000000000000081525060056000600e81526020019081526020016000209081620006559190620016c2565b506040518060400160405280600781526020017f4e6969676174610000000000000000000000000000000000000000000000000081525060056000600f81526020019081526020016000209081620006ae9190620016c2565b506040518060400160405280600681526020017f546f79616d61000000000000000000000000000000000000000000000000000081525060056000601081526020019081526020016000209081620007079190620016c2565b506040518060400160405280600881526020017f497368696b61776100000000000000000000000000000000000000000000000081525060056000601181526020019081526020016000209081620007609190620016c2565b506040518060400160405280600581526020017f46756b756900000000000000000000000000000000000000000000000000000081525060056000601281526020019081526020016000209081620007b99190620016c2565b506040518060400160405280600981526020017f59616d616e61736869000000000000000000000000000000000000000000000081525060056000601381526020019081526020016000209081620008129190620016c2565b506040518060400160405280600681526020017f4e6167616e6f0000000000000000000000000000000000000000000000000000815250600560006014815260200190815260200160002090816200086b9190620016c2565b506040518060400160405280600481526020017f476966750000000000000000000000000000000000000000000000000000000081525060056000601581526020019081526020016000209081620008c49190620016c2565b506040518060400160405280600881526020017f5368697a756f6b61000000000000000000000000000000000000000000000000815250600560006016815260200190815260200160002090816200091d9190620016c2565b506040518060400160405280600581526020017f416963686900000000000000000000000000000000000000000000000000000081525060056000601781526020019081526020016000209081620009769190620016c2565b506040518060400160405280600381526020017f4d6965000000000000000000000000000000000000000000000000000000000081525060056000601881526020019081526020016000209081620009cf9190620016c2565b506040518060400160405280600581526020017f53686967610000000000000000000000000000000000000000000000000000008152506005600060198152602001908152602001600020908162000a289190620016c2565b506040518060400160405280600581526020017f4b796f746f00000000000000000000000000000000000000000000000000000081525060056000601a8152602001908152602001600020908162000a819190620016c2565b506040518060400160405280600581526020017f4f73616b6100000000000000000000000000000000000000000000000000000081525060056000601b8152602001908152602001600020908162000ada9190620016c2565b506040518060400160405280600581526020017f48796f676f00000000000000000000000000000000000000000000000000000081525060056000601c8152602001908152602001600020908162000b339190620016c2565b506040518060400160405280600481526020017f4e6172610000000000000000000000000000000000000000000000000000000081525060056000601d8152602001908152602001600020908162000b8c9190620016c2565b506040518060400160405280600881526020017f57616b6179616d6100000000000000000000000000000000000000000000000081525060056000601e8152602001908152602001600020908162000be59190620016c2565b506040518060400160405280600781526020017f546f74746f72690000000000000000000000000000000000000000000000000081525060056000601f8152602001908152602001600020908162000c3e9190620016c2565b506040518060400160405280600781526020017f5368696d616e65000000000000000000000000000000000000000000000000008152506005600060208152602001908152602001600020908162000c979190620016c2565b506040518060400160405280600781526020017f4f6b6179616d61000000000000000000000000000000000000000000000000008152506005600060218152602001908152602001600020908162000cf09190620016c2565b506040518060400160405280600981526020017f4869726f7368696d6100000000000000000000000000000000000000000000008152506005600060228152602001908152602001600020908162000d499190620016c2565b506040518060400160405280600981526020017f59616d61677563686900000000000000000000000000000000000000000000008152506005600060238152602001908152602001600020908162000da29190620016c2565b506040518060400160405280600981526020017f546f6b757368696d6100000000000000000000000000000000000000000000008152506005600060248152602001908152602001600020908162000dfb9190620016c2565b506040518060400160405280600681526020017f4b616761776100000000000000000000000000000000000000000000000000008152506005600060258152602001908152602001600020908162000e549190620016c2565b506040518060400160405280600581526020017f4568696d650000000000000000000000000000000000000000000000000000008152506005600060268152602001908152602001600020908162000ead9190620016c2565b506040518060400160405280600581526020017f4b6f6368690000000000000000000000000000000000000000000000000000008152506005600060278152602001908152602001600020908162000f069190620016c2565b506040518060400160405280600781526020017f46756b756f6b61000000000000000000000000000000000000000000000000008152506005600060288152602001908152602001600020908162000f5f9190620016c2565b506040518060400160405280600481526020017f53616761000000000000000000000000000000000000000000000000000000008152506005600060298152602001908152602001600020908162000fb89190620016c2565b506040518060400160405280600881526020017f4e61676173616b6900000000000000000000000000000000000000000000000081525060056000602a81526020019081526020016000209081620010119190620016c2565b506040518060400160405280600881526020017f4b756d616d6f746f00000000000000000000000000000000000000000000000081525060056000602b815260200190815260200160002090816200106a9190620016c2565b506040518060400160405280600481526020017f4f6974610000000000000000000000000000000000000000000000000000000081525060056000602c81526020019081526020016000209081620010c39190620016c2565b506040518060400160405280600881526020017f4d6979617a616b6900000000000000000000000000000000000000000000000081525060056000602d815260200190815260200160002090816200111c9190620016c2565b506040518060400160405280600981526020017f4b61676f7368696d61000000000000000000000000000000000000000000000081525060056000602e81526020019081526020016000209081620011759190620016c2565b506040518060400160405280600781526020017f4f6b696e6177610000000000000000000000000000000000000000000000000081525060056000602f81526020019081526020016000209081620011ce9190620016c2565b5050505050620017a9565b600033905090565b60008060009054906101000a900473ffffffffffffffffffffffffffffffffffffffff169050816000806101000a81548173ffffffffffffffffffffffffffffffffffffffff021916908373ffffffffffffffffffffffffffffffffffffffff1602179055508173ffffffffffffffffffffffffffffffffffffffff168173ffffffffffffffffffffffffffffffffffffffff167f8be0079c531659141344cd1fd0a4f28419497f9722a3daafe3b4186f6b6457e060405160405180910390a35050565b60008060009054906101000a900473ffffffffffffffffffffffffffffffffffffffff16905090565b600080fd5b600073ffffffffffffffffffffffffffffffffffffffff82169050919050565b60006200130082620012d3565b9050919050565b60006200131482620012f3565b9050919050565b620013268162001307565b81146200133257600080fd5b50565b60008151905062001346816200131b565b92915050565b60006200135982620012f3565b9050919050565b6200136b816200134c565b81146200137757600080fd5b50565b6000815190506200138b8162001360565b92915050565b60006200139e82620012f3565b9050919050565b620013b08162001391565b8114620013bc57600080fd5b50565b600081519050620013d081620013a5565b92915050565b60008060008060808587031215620013f357620013f2620012ce565b5b6000620014038782880162001335565b9450506020620014168782880162001335565b935050604062001429878288016200137a565b92505060606200143c87828801620013bf565b91505092959194509250565b600081519050919050565b7f4e487b7100000000000000000000000000000000000000000000000000000000600052604160045260246000fd5b7f4e487b7100000000000000000000000000000000000000000000000000000000600052602260045260246000fd5b60006002820490506001821680620014ca57607f821691505b602082108103620014e057620014df62001482565b5b50919050565b60008190508160005260206000209050919050565b60006020601f8301049050919050565b600082821b905092915050565b6000600883026200154a7fffffffffffffffffffffffffffffffffffffffffffffffffffffffffffffffff826200150b565b6200155686836200150b565b95508019841693508086168417925050509392505050565b6000819050919050565b6000819050919050565b6000620015a36200159d62001597846200156e565b62001578565b6200156e565b9050919050565b6000819050919050565b620015bf8362001582565b620015d7620015ce82620015aa565b84845462001518565b825550505050565b600090565b620015ee620015df565b620015fb818484620015b4565b505050565b5b81811015620016235762001617600082620015e4565b60018101905062001601565b5050565b601f82111562001672576200163c81620014e6565b6200164784620014fb565b8101602085101562001657578190505b6200166f6200166685620014fb565b83018262001600565b50505b505050565b600082821c905092915050565b6000620016976000198460080262001677565b1980831691505092915050565b6000620016b2838362001684565b9150826002028217905092915050565b620016cd8262001448565b67ffffffffffffffff811115620016e957620016e862001453565b5b620016f58254620014b1565b6200170282828562001627565b600060209050601f8311600181146200173a576000841562001725578287015190505b620017318582620016a4565b865550620017a1565b601f1984166200174a86620014e6565b60005b8281101562001774578489015182556001820191506020850194506020810190506200174d565b8683101562001794578489015162001790601f89168262001684565b8355505b6001600288020188555050505b505050505050565b60805160a05160c05160e0516123be6200181460003960008181610d1b01526110fc015260008181610892015261103c0152600081816108b6015281816109d201528181610a7101528181610e40015261113a0152600081816107b6015261107901526123be6000f3fe6080604052600436106101355760003560e01c806379b92f27116100ab578063957b3b231161006f578063957b3b231461041f5780639c97287b1461045c578063e3f24f0214610487578063f0503e80146104c5578063f2fde38b14610506578063f7260d3e1461052f57610135565b806379b92f2714610345578063893d20e81461038257806389ee68bf146103ad5780638c40188e146103c95780638da5cb5b146103f457610135565b806348ee4be0116100fd57806348ee4be014610247578063684931ed1461028457806368bd2603146102af578063715018a6146102da578063718da7ee146102f157806375794a3c1461031a57610135565b806301ffc9a71461013a57806318160ddd146101775780631b2ef1ca146101a2578063303e74df146101df57806336f2a4e61461020a575b600080fd5b34801561014657600080fd5b50610161600480360381019061015c919061146b565b61055a565b60405161016e91906114b3565b60405180910390f35b34801561018357600080fd5b5061018c61062c565b60405161019991906114e7565b60405180910390f35b3480156101ae57600080fd5b506101c960048036038101906101c4919061152e565b610631565b6040516101d691906114e7565b60405180910390f35b3480156101eb57600080fd5b506101f46107b4565b60405161020191906115ed565b60405180910390f35b34801561021657600080fd5b50610231600480360381019061022c9190611608565b6107d8565b60405161023e91906116c5565b60405180910390f35b34801561025357600080fd5b5061026e60048036038101906102699190611608565b610878565b60405161027b91906114e7565b60405180910390f35b34801561029057600080fd5b50610299610890565b6040516102a69190611708565b60405180910390f35b3480156102bb57600080fd5b506102c46108b4565b6040516102d191906115ed565b60405180910390f35b3480156102e657600080fd5b506102ef6108d8565b005b3480156102fd57600080fd5b5061031860048036038101906103139190611761565b6108ec565b005b34801561032657600080fd5b5061032f610938565b60405161033c91906114e7565b60405180910390f35b34801561035157600080fd5b5061036c60048036038101906103679190611608565b61093e565b60405161037991906116c5565b60405180910390f35b34801561038e57600080fd5b50610397610b38565b6040516103a4919061179d565b60405180910390f35b6103c760048036038101906103c29190611608565b610b47565b005b3480156103d557600080fd5b506103de610c2b565b6040516103eb919061187a565b60405180910390f35b34801561040057600080fd5b50610409610cd3565b604051610416919061179d565b60405180910390f35b34801561042b57600080fd5b5061044660048036038101906104419190611608565b610cfc565b60405161045391906114e7565b60405180910390f35b34801561046857600080fd5b50610471610d19565b60405161047e91906118bd565b60405180910390f35b34801561049357600080fd5b506104ae60048036038101906104a99190611608565b610d3d565b6040516104bc9291906118d8565b60405180910390f35b3480156104d157600080fd5b506104ec60048036038101906104e79190611608565b610ef7565b6040516104fd959493929190611930565b60405180910390f35b34801561051257600080fd5b5061052d60048036038101906105289190611761565b610f87565b005b34801561053b57600080fd5b5061054461100a565b604051610551919061179d565b60405180910390f35b60007f0ece3d21000000000000000000000000000000000000000000000000000000007bffffffffffffffffffffffffffffffffffffffffffffffffffffffff1916827bffffffffffffffffffffffffffffffffffffffffffffffffffffffff1916148061062557507f01ffc9a7000000000000000000000000000000000000000000000000000000007bffffffffffffffffffffffffffffffffffffffffffffffffffffffff1916827bffffffffffffffffffffffffffffffffffffffffffffffffffffffff1916145b9050919050565b600090565b60008060648461064191906119b2565b03610678576001602e83436106569190611a12565b61066091906119b2565b8461066b9190611a54565b6106759190611a54565b92505b6106828383611030565b6003600084815260200190815260200160002060008201518160000160006101000a81548165ffffffffffff021916908365ffffffffffff16021790555060208201518160000160066101000a81548165ffffffffffff021916908365ffffffffffff160217905550604082015181600001600c6101000a81548165ffffffffffff021916908365ffffffffffff16021790555060608201518160000160126101000a81548165ffffffffffff021916908365ffffffffffff16021790555060808201518160000160186101000a81548165ffffffffffff021916908365ffffffffffff16021790555090505060648361077c91906119b2565b6004600084815260200190815260200160002081905550600260008154809291906107a690611a88565b919050555081905092915050565b7f000000000000000000000000000000000000000000000000000000000000000081565b600560205280600052604060002060009150905080546107f790611aff565b80601f016020809104026020016040519081016040528092919081815260200182805461082390611aff565b80156108705780601f1061084557610100808354040283529160200191610870565b820191906000526020600020905b81548152906001019060200180831161085357829003601f168201915b505050505081565b60046020528060005260406000206000915090505481565b7f000000000000000000000000000000000000000000000000000000000000000081565b7f000000000000000000000000000000000000000000000000000000000000000081565b6108e0611227565b6108ea60006112a5565b565b6108f4611227565b80600160006101000a81548173ffffffffffffffffffffffffffffffffffffffff021916908373ffffffffffffffffffffffffffffffffffffffff16021790555050565b60025481565b606060006003600084815260200190815260200160002060000160129054906101000a900465ffffffffffff1665ffffffffffff169050600060036000858152602001908152602001600020600001600c9054906101000a900465ffffffffffff1665ffffffffffff16905060056000600460008781526020019081526020016000205481526020019081526020016000207f000000000000000000000000000000000000000000000000000000000000000073ffffffffffffffffffffffffffffffffffffffff16631cb73e9e846040518263ffffffff1660e01b8152600401610a2991906114e7565b600060405180830381865afa158015610a46573d6000803e3d6000fd5b505050506040513d6000823e3d601f19601f82011682018060405250810190610a6f9190611c56565b7f000000000000000000000000000000000000000000000000000000000000000073ffffffffffffffffffffffffffffffffffffffff16631ac978b0846040518263ffffffff1660e01b8152600401610ac891906114e7565b600060405180830381865afa158015610ae5573d6000803e3d6000fd5b505050506040513d6000823e3d601f19601f82011682018060405250810190610b0e9190611c56565b604051602001610b2093929190611f15565b60405160208183030381529060405292505050919050565b6000610b42610cd3565b905090565b6000600160009054906101000a900473ffffffffffffffffffffffffffffffffffffffff1690508073ffffffffffffffffffffffffffffffffffffffff166108fc349081150290604051600060405180830381858888f19350505050158015610bb4573d6000803e3d6000fd5b507fbb0eeee27936db25b1a46a81ab6d97326392a3e961efa7273d5d756d7a2e1cad6040518060400160405280600a81526020017f4c6f63616c4e6f756e7300000000000000000000000000000000000000000000815250838334604051610c1f9493929190611fa9565b60405180910390a15050565b610c33611371565b60405180606001604052806040518060400160405280600a81526020017f4c6f63616c4e6f756e730000000000000000000000000000000000000000000081525081526020016040518060400160405280600481526020017f4c6f676f0000000000000000000000000000000000000000000000000000000081525081526020013073ffffffffffffffffffffffffffffffffffffffff16815250905090565b60008060009054906101000a900473ffffffffffffffffffffffffffffffffffffffff16905090565b600060046000838152602001908152602001600020549050919050565b7f000000000000000000000000000000000000000000000000000000000000000081565b6060806000600360008581526020019081526020016000206040518060a00160405290816000820160009054906101000a900465ffffffffffff1665ffffffffffff1665ffffffffffff1681526020016000820160069054906101000a900465ffffffffffff1665ffffffffffff1665ffffffffffff16815260200160008201600c9054906101000a900465ffffffffffff1665ffffffffffff1665ffffffffffff1681526020016000820160129054906101000a900465ffffffffffff1665ffffffffffff1665ffffffffffff1681526020016000820160189054906101000a900465ffffffffffff1665ffffffffffff1665ffffffffffff168152505090507f000000000000000000000000000000000000000000000000000000000000000073ffffffffffffffffffffffffffffffffffffffff16632ea04300826040518263ffffffff1660e01b8152600401610e97919061206c565b600060405180830381865afa158015610eb4573d6000803e3d6000fd5b505050506040513d6000823e3d601f19601f82011682018060405250810190610edd9190611c56565b925060405180602001604052806000815250915050915091565b60036020528060005260406000206000915090508060000160009054906101000a900465ffffffffffff16908060000160069054906101000a900465ffffffffffff169080600001600c9054906101000a900465ffffffffffff16908060000160129054906101000a900465ffffffffffff16908060000160189054906101000a900465ffffffffffff16905085565b610f8f611227565b600073ffffffffffffffffffffffffffffffffffffffff168173ffffffffffffffffffffffffffffffffffffffff1603610ffe576040517f08c379a0000000000000000000000000000000000000000000000000000000008152600401610ff5906120f9565b60405180910390fd5b611007816112a5565b50565b600160009054906101000a900473ffffffffffffffffffffffffffffffffffffffff1681565b6110386113a8565b60007f000000000000000000000000000000000000000000000000000000000000000073ffffffffffffffffffffffffffffffffffffffff1663422e2e99847f00000000000000000000000000000000000000000000000000000000000000006040518363ffffffff1660e01b81526004016110b5929190612119565b60a060405180830381865afa1580156110d2573d6000803e3d6000fd5b505050506040513d601f19601f820116820180604052508101906110f691906121ff565b905060007f000000000000000000000000000000000000000000000000000000000000000073ffffffffffffffffffffffffffffffffffffffff1663c92a11c286867f00000000000000000000000000000000000000000000000000000000000000006040518463ffffffff1660e01b81526004016111779392919061222c565b60a060405180830381865afa158015611194573d6000803e3d6000fd5b505050506040513d601f19601f820116820180604052508101906111b891906122ef565b90506040518060a00160405280836000015165ffffffffffff168152602001836020015165ffffffffffff168152602001826040015165ffffffffffff168152602001826060015165ffffffffffff168152602001836080015165ffffffffffff168152509250505092915050565b61122f611369565b73ffffffffffffffffffffffffffffffffffffffff1661124d610cd3565b73ffffffffffffffffffffffffffffffffffffffff16146112a3576040517f08c379a000000000000000000000000000000000000000000000000000000000815260040161129a90612368565b60405180910390fd5b565b60008060009054906101000a900473ffffffffffffffffffffffffffffffffffffffff169050816000806101000a81548173ffffffffffffffffffffffffffffffffffffffff021916908373ffffffffffffffffffffffffffffffffffffffff1602179055508173ffffffffffffffffffffffffffffffffffffffff168173ffffffffffffffffffffffffffffffffffffffff167f8be0079c531659141344cd1fd0a4f28419497f9722a3daafe3b4186f6b6457e060405160405180910390a35050565b600033905090565b60405180606001604052806060815260200160608152602001600073ffffffffffffffffffffffffffffffffffffffff1681525090565b6040518060a00160405280600065ffffffffffff168152602001600065ffffffffffff168152602001600065ffffffffffff168152602001600065ffffffffffff168152602001600065ffffffffffff1681525090565b6000604051905090565b600080fd5b600080fd5b60007fffffffff0000000000000000000000000000000000000000000000000000000082169050919050565b61144881611413565b811461145357600080fd5b50565b6000813590506114658161143f565b92915050565b60006020828403121561148157611480611409565b5b600061148f84828501611456565b91505092915050565b60008115159050919050565b6114ad81611498565b82525050565b60006020820190506114c860008301846114a4565b92915050565b6000819050919050565b6114e1816114ce565b82525050565b60006020820190506114fc60008301846114d8565b92915050565b61150b816114ce565b811461151657600080fd5b50565b60008135905061152881611502565b92915050565b6000806040838503121561154557611544611409565b5b600061155385828601611519565b925050602061156485828601611519565b9150509250929050565b600073ffffffffffffffffffffffffffffffffffffffff82169050919050565b6000819050919050565b60006115b36115ae6115a98461156e565b61158e565b61156e565b9050919050565b60006115c582611598565b9050919050565b60006115d7826115ba565b9050919050565b6115e7816115cc565b82525050565b600060208201905061160260008301846115de565b92915050565b60006020828403121561161e5761161d611409565b5b600061162c84828501611519565b91505092915050565b600081519050919050565b600082825260208201905092915050565b60005b8381101561166f578082015181840152602081019050611654565b60008484015250505050565b6000601f19601f8301169050919050565b600061169782611635565b6116a18185611640565b93506116b1818560208601611651565b6116ba8161167b565b840191505092915050565b600060208201905081810360008301526116df818461168c565b905092915050565b60006116f2826115ba565b9050919050565b611702816116e7565b82525050565b600060208201905061171d60008301846116f9565b92915050565b600061172e8261156e565b9050919050565b61173e81611723565b811461174957600080fd5b50565b60008135905061175b81611735565b92915050565b60006020828403121561177757611776611409565b5b60006117858482850161174c565b91505092915050565b61179781611723565b82525050565b60006020820190506117b2600083018461178e565b92915050565b600082825260208201905092915050565b60006117d482611635565b6117de81856117b8565b93506117ee818560208601611651565b6117f78161167b565b840191505092915050565b600061180d826115ba565b9050919050565b61181d81611802565b82525050565b6000606083016000830151848203600086015261184082826117c9565b9150506020830151848203602086015261185a82826117c9565b915050604083015161186f6040860182611814565b508091505092915050565b600060208201905081810360008301526118948184611823565b905092915050565b60006118a7826115ba565b9050919050565b6118b78161189c565b82525050565b60006020820190506118d260008301846118ae565b92915050565b600060408201905081810360008301526118f2818561168c565b90508181036020830152611906818461168c565b90509392505050565b600065ffffffffffff82169050919050565b61192a8161190f565b82525050565b600060a0820190506119456000830188611921565b6119526020830187611921565b61195f6040830186611921565b61196c6060830185611921565b6119796080830184611921565b9695505050505050565b7f4e487b7100000000000000000000000000000000000000000000000000000000600052601260045260246000fd5b60006119bd826114ce565b91506119c8836114ce565b9250826119d8576119d7611983565b5b828206905092915050565b7f4e487b7100000000000000000000000000000000000000000000000000000000600052601160045260246000fd5b6000611a1d826114ce565b9150611a28836114ce565b9250828202611a36816114ce565b91508282048414831517611a4d57611a4c6119e3565b5b5092915050565b6000611a5f826114ce565b9150611a6a836114ce565b9250828201905080821115611a8257611a816119e3565b5b92915050565b6000611a93826114ce565b91507fffffffffffffffffffffffffffffffffffffffffffffffffffffffffffffffff8203611ac557611ac46119e3565b5b600182019050919050565b7f4e487b7100000000000000000000000000000000000000000000000000000000600052602260045260246000fd5b60006002820490506001821680611b1757607f821691505b602082108103611b2a57611b29611ad0565b5b50919050565b600080fd5b600080fd5b7f4e487b7100000000000000000000000000000000000000000000000000000000600052604160045260246000fd5b611b728261167b565b810181811067ffffffffffffffff82111715611b9157611b90611b3a565b5b80604052505050565b6000611ba46113ff565b9050611bb08282611b69565b919050565b600067ffffffffffffffff821115611bd057611bcf611b3a565b5b611bd98261167b565b9050602081019050919050565b6000611bf9611bf484611bb5565b611b9a565b905082815260208101848484011115611c1557611c14611b35565b5b611c20848285611651565b509392505050565b600082601f830112611c3d57611c3c611b30565b5b8151611c4d848260208601611be6565b91505092915050565b600060208284031215611c6c57611c6b611409565b5b600082015167ffffffffffffffff811115611c8a57611c8961140e565b5b611c9684828501611c28565b91505092915050565b600081905092915050565b7f7b2274726169745f74797065223a20227072656665637475726522202c20227660008201527f616c7565223a2200000000000000000000000000000000000000000000000000602082015250565b6000611d06602783611c9f565b9150611d1182611caa565b602782019050919050565b60008190508160005260206000209050919050565b60008154611d3e81611aff565b611d488186611c9f565b94506001821660008114611d635760018114611d7857611dab565b60ff1983168652811515820286019350611dab565b611d8185611d1c565b60005b83811015611da357815481890152600182019150602081019050611d84565b838801955050505b50505092915050565b7f227d000000000000000000000000000000000000000000000000000000000000600082015250565b6000611dea600283611c9f565b9150611df582611db4565b600282019050919050565b7f2c7b2274726169745f74797065223a20226865616422202c202276616c75652260008201527f3a22000000000000000000000000000000000000000000000000000000000000602082015250565b6000611e5c602283611c9f565b9150611e6782611e00565b602282019050919050565b6000611e7d82611635565b611e878185611c9f565b9350611e97818560208601611651565b80840191505092915050565b7f2c7b2274726169745f74797065223a20226163636573736f727922202c20227660008201527f616c7565223a2200000000000000000000000000000000000000000000000000602082015250565b6000611eff602783611c9f565b9150611f0a82611ea3565b602782019050919050565b6000611f2082611cf9565b9150611f2c8286611d31565b9150611f3782611ddd565b9150611f4282611e4f565b9150611f4e8285611e72565b9150611f5982611ddd565b9150611f6482611ef2565b9150611f708284611e72565b9150611f7b82611ddd565b9150819050949350505050565b6000611f938261156e565b9050919050565b611fa381611f88565b82525050565b60006080820190508181036000830152611fc3818761168c565b9050611fd260208301866114d8565b611fdf6040830185611f9a565b611fec60608301846114d8565b95945050505050565b611ffe8161190f565b82525050565b60a08201600082015161201a6000850182611ff5565b50602082015161202d6020850182611ff5565b5060408201516120406040850182611ff5565b5060608201516120536060850182611ff5565b5060808201516120666080850182611ff5565b50505050565b600060a0820190506120816000830184612004565b92915050565b7f4f776e61626c653a206e6577206f776e657220697320746865207a65726f206160008201527f6464726573730000000000000000000000000000000000000000000000000000602082015250565b60006120e3602683611640565b91506120ee82612087565b604082019050919050565b60006020820190508181036000830152612112816120d6565b9050919050565b600060408201905061212e60008301856114d8565b61213b60208301846115de565b9392505050565b600080fd5b6121508161190f565b811461215b57600080fd5b50565b60008151905061216d81612147565b92915050565b600060a0828403121561218957612188612142565b5b61219360a0611b9a565b905060006121a38482850161215e565b60008301525060206121b78482850161215e565b60208301525060406121cb8482850161215e565b60408301525060606121df8482850161215e565b60608301525060806121f38482850161215e565b60808301525092915050565b600060a0828403121561221557612214611409565b5b600061222384828501612173565b91505092915050565b600060608201905061224160008301866114d8565b61224e60208301856114d8565b61225b60408301846115de565b949350505050565b600060a0828403121561227957612278612142565b5b61228360a0611b9a565b905060006122938482850161215e565b60008301525060206122a78482850161215e565b60208301525060406122bb8482850161215e565b60408301525060606122cf8482850161215e565b60608301525060806122e38482850161215e565b60808301525092915050565b600060a0828403121561230557612304611409565b5b600061231384828501612263565b91505092915050565b7f4f776e61626c653a2063616c6c6572206973206e6f7420746865206f776e6572600082015250565b6000612352602083611640565b915061235d8261231c565b602082019050919050565b6000602082019050818103600083015261238181612345565b905091905056fea26469706673582212206491a2c230e0001413f218410afb49b8a2a81d36083828090939c6eee67de00264736f6c63430008110033",
  "linkReferences": {},
  "deployedLinkReferences": {}
}