{
  "_format": "hh-sol-artifact-1",
  "contractName": "LocalNounsToken",
  "sourceName": "contracts/LocalNounsToken.sol",
  "abi": [
    {
      "inputs": [
        {
          "internalType": "contract IAssetProviderExMint",
          "name": "_assetProvider",
          "type": "address"
        },
        {
          "internalType": "address",
          "name": "_minter",
          "type": "address"
        }
      ],
      "stateMutability": "nonpayable",
      "type": "constructor"
    },
    {
      "inputs": [],
      "name": "ApprovalCallerNotOwnerNorApproved",
      "type": "error"
    },
    {
      "inputs": [],
      "name": "ApprovalQueryForNonexistentToken",
      "type": "error"
    },
    {
      "inputs": [],
      "name": "BalanceQueryForZeroAddress",
      "type": "error"
    },
    {
      "inputs": [],
      "name": "MintERC2309QuantityExceedsLimit",
      "type": "error"
    },
    {
      "inputs": [],
      "name": "MintToZeroAddress",
      "type": "error"
    },
    {
      "inputs": [],
      "name": "MintZeroQuantity",
      "type": "error"
    },
    {
      "inputs": [],
      "name": "OwnerQueryForNonexistentToken",
      "type": "error"
    },
    {
      "inputs": [],
      "name": "OwnershipNotInitializedForExtraData",
      "type": "error"
    },
    {
      "inputs": [],
      "name": "TransferCallerNotOwnerNorApproved",
      "type": "error"
    },
    {
      "inputs": [],
      "name": "TransferFromIncorrectOwner",
      "type": "error"
    },
    {
      "inputs": [],
      "name": "TransferToNonERC721ReceiverImplementer",
      "type": "error"
    },
    {
      "inputs": [],
      "name": "TransferToZeroAddress",
      "type": "error"
    },
    {
      "inputs": [],
      "name": "URIQueryForNonexistentToken",
      "type": "error"
    },
    {
      "anonymous": false,
      "inputs": [
        {
          "indexed": true,
          "internalType": "address",
          "name": "owner",
          "type": "address"
        },
        {
          "indexed": true,
          "internalType": "address",
          "name": "approved",
          "type": "address"
        },
        {
          "indexed": true,
          "internalType": "uint256",
          "name": "tokenId",
          "type": "uint256"
        }
      ],
      "name": "Approval",
      "type": "event"
    },
    {
      "anonymous": false,
      "inputs": [
        {
          "indexed": true,
          "internalType": "address",
          "name": "owner",
          "type": "address"
        },
        {
          "indexed": true,
          "internalType": "address",
          "name": "operator",
          "type": "address"
        },
        {
          "indexed": false,
          "internalType": "bool",
          "name": "approved",
          "type": "bool"
        }
      ],
      "name": "ApprovalForAll",
      "type": "event"
    },
    {
      "anonymous": false,
      "inputs": [
        {
          "indexed": true,
          "internalType": "uint256",
          "name": "tokenId",
          "type": "uint256"
        }
      ],
      "name": "CancelTradePrefecture",
      "type": "event"
    },
    {
      "anonymous": false,
      "inputs": [
        {
          "indexed": true,
          "internalType": "uint256",
          "name": "fromTokenId",
          "type": "uint256"
        },
        {
          "indexed": false,
          "internalType": "uint256",
          "name": "toTokenId",
          "type": "uint256"
        },
        {
          "indexed": true,
          "internalType": "address",
          "name": "from",
          "type": "address"
        },
        {
          "indexed": true,
          "internalType": "address",
          "name": "to",
          "type": "address"
        }
      ],
      "name": "ConsecutiveTransfer",
      "type": "event"
    },
    {
      "anonymous": false,
      "inputs": [
        {
          "indexed": true,
          "internalType": "address",
          "name": "previousOwner",
          "type": "address"
        },
        {
          "indexed": true,
          "internalType": "address",
          "name": "newOwner",
          "type": "address"
        }
      ],
      "name": "OwnershipTransferred",
      "type": "event"
    },
    {
      "anonymous": false,
      "inputs": [
        {
          "indexed": true,
          "internalType": "uint256",
          "name": "tokenId",
          "type": "uint256"
        },
        {
          "indexed": false,
          "internalType": "bool",
          "name": "_isOnTrade",
          "type": "bool"
        }
      ],
      "name": "PutTrade",
      "type": "event"
    },
    {
      "anonymous": false,
      "inputs": [
        {
          "indexed": true,
          "internalType": "uint256",
          "name": "tokenId",
          "type": "uint256"
        },
        {
          "indexed": false,
          "internalType": "uint256[]",
          "name": "_prefectures",
          "type": "uint256[]"
        },
        {
          "indexed": false,
          "internalType": "address",
          "name": "_tradeAddress",
          "type": "address"
        }
      ],
      "name": "PutTradePrefecture",
      "type": "event"
    },
    {
      "anonymous": false,
      "inputs": [
        {
          "indexed": true,
          "internalType": "uint256",
          "name": "tokenId",
          "type": "uint256"
        },
        {
          "indexed": false,
          "internalType": "uint256",
          "name": "price",
          "type": "uint256"
        }
      ],
      "name": "SetPrice",
      "type": "event"
    },
    {
      "anonymous": false,
      "inputs": [
        {
          "indexed": true,
          "internalType": "address",
          "name": "from",
          "type": "address"
        },
        {
          "indexed": true,
          "internalType": "address",
          "name": "to",
          "type": "address"
        },
        {
          "indexed": true,
          "internalType": "uint256",
          "name": "tokenId",
          "type": "uint256"
        }
      ],
      "name": "Transfer",
      "type": "event"
    },
    {
      "inputs": [
        {
          "internalType": "uint256",
          "name": "_tokenId",
          "type": "uint256"
        },
        {
          "internalType": "contract IERC721Marketplace",
          "name": "_dealer",
          "type": "address"
        },
        {
          "internalType": "uint256",
          "name": "_price",
          "type": "uint256"
        }
      ],
      "name": "acceptOffer",
      "outputs": [],
      "stateMutability": "nonpayable",
      "type": "function"
    },
    {
      "inputs": [
        {
          "internalType": "address",
          "name": "to",
          "type": "address"
        },
        {
          "internalType": "uint256",
          "name": "tokenId",
          "type": "uint256"
        }
      ],
      "name": "approve",
      "outputs": [],
      "stateMutability": "payable",
      "type": "function"
    },
    {
      "inputs": [],
      "name": "assetProvider",
      "outputs": [
        {
          "internalType": "contract IAssetProvider",
          "name": "",
          "type": "address"
        }
      ],
      "stateMutability": "view",
      "type": "function"
    },
    {
      "inputs": [],
      "name": "assetProvider2",
      "outputs": [
        {
          "internalType": "contract IAssetProviderExMint",
          "name": "",
          "type": "address"
        }
      ],
      "stateMutability": "view",
      "type": "function"
    },
    {
      "inputs": [
        {
          "internalType": "address",
          "name": "owner",
          "type": "address"
        }
      ],
      "name": "balanceOf",
      "outputs": [
        {
          "internalType": "uint256",
          "name": "",
          "type": "uint256"
        }
      ],
      "stateMutability": "view",
      "type": "function"
    },
    {
      "inputs": [],
      "name": "canSetApproval",
      "outputs": [
        {
          "internalType": "bool",
          "name": "",
          "type": "bool"
        }
      ],
      "stateMutability": "view",
      "type": "function"
    },
    {
      "inputs": [
        {
          "internalType": "uint256",
          "name": "_tokenId",
          "type": "uint256"
        }
      ],
      "name": "cancelTradeLocalNoun",
      "outputs": [],
      "stateMutability": "nonpayable",
      "type": "function"
    },
    {
      "inputs": [
        {
          "internalType": "uint256",
          "name": "_tokenId",
          "type": "uint256"
        }
      ],
      "name": "debugTokenURI",
      "outputs": [
        {
          "internalType": "string",
          "name": "uri",
          "type": "string"
        },
        {
          "internalType": "uint256",
          "name": "gas",
          "type": "uint256"
        }
      ],
      "stateMutability": "view",
      "type": "function"
    },
    {
      "inputs": [],
      "name": "description",
      "outputs": [
        {
          "internalType": "string",
          "name": "",
          "type": "string"
        }
      ],
      "stateMutability": "view",
      "type": "function"
    },
    {
      "inputs": [
        {
          "internalType": "uint256",
          "name": "",
          "type": "uint256"
        },
        {
          "internalType": "uint256",
          "name": "",
          "type": "uint256"
        }
      ],
      "name": "executeTrade",
      "outputs": [],
      "stateMutability": "pure",
      "type": "function"
    },
    {
      "inputs": [
        {
          "internalType": "uint256",
          "name": "_myTokenId",
          "type": "uint256"
        },
        {
          "internalType": "uint256",
          "name": "_targetTokenId",
          "type": "uint256"
        }
      ],
      "name": "executeTradeLocalNoun",
      "outputs": [],
      "stateMutability": "payable",
      "type": "function"
    },
    {
      "inputs": [
        {
          "internalType": "uint256",
          "name": "tokenId",
          "type": "uint256"
        }
      ],
      "name": "getApproved",
      "outputs": [
        {
          "internalType": "address",
          "name": "",
          "type": "address"
        }
      ],
      "stateMutability": "view",
      "type": "function"
    },
    {
      "inputs": [
        {
          "internalType": "uint256",
          "name": "_tokenId",
          "type": "uint256"
        }
      ],
      "name": "getPriceOf",
      "outputs": [
        {
          "internalType": "uint256",
          "name": "",
          "type": "uint256"
        }
      ],
      "stateMutability": "view",
      "type": "function"
    },
    {
      "inputs": [
        {
          "internalType": "uint256",
          "name": "_tokenId",
          "type": "uint256"
        }
      ],
      "name": "getTradePrefectureFor",
      "outputs": [
        {
          "internalType": "uint256[]",
          "name": "",
          "type": "uint256[]"
        }
      ],
      "stateMutability": "view",
      "type": "function"
    },
    {
      "inputs": [
        {
          "internalType": "address",
          "name": "owner",
          "type": "address"
        },
        {
          "internalType": "address",
          "name": "operator",
          "type": "address"
        }
      ],
      "name": "isApprovedForAll",
      "outputs": [
        {
          "internalType": "bool",
          "name": "",
          "type": "bool"
        }
      ],
      "stateMutability": "view",
      "type": "function"
    },
    {
      "inputs": [],
      "name": "mint",
      "outputs": [
        {
          "internalType": "uint256",
          "name": "",
          "type": "uint256"
        }
      ],
      "stateMutability": "payable",
      "type": "function"
    },
    {
      "inputs": [],
      "name": "mintLimit",
      "outputs": [
        {
          "internalType": "uint256",
          "name": "",
          "type": "uint256"
        }
      ],
      "stateMutability": "view",
      "type": "function"
    },
    {
      "inputs": [],
      "name": "mintPrice",
      "outputs": [
        {
          "internalType": "uint256",
          "name": "",
          "type": "uint256"
        }
      ],
      "stateMutability": "view",
      "type": "function"
    },
    {
      "inputs": [
        {
          "internalType": "address",
          "name": "",
          "type": "address"
        }
      ],
      "name": "mintPriceFor",
      "outputs": [
        {
          "internalType": "uint256",
          "name": "",
          "type": "uint256"
        }
      ],
      "stateMutability": "view",
      "type": "function"
    },
    {
      "inputs": [
        {
          "internalType": "address",
          "name": "_to",
          "type": "address"
        },
        {
          "internalType": "uint256",
          "name": "_prefectureId",
          "type": "uint256"
        },
        {
          "internalType": "uint256",
          "name": "_amount",
          "type": "uint256"
        }
      ],
      "name": "mintSelectedPrefecture",
      "outputs": [
        {
          "internalType": "uint256",
          "name": "tokenId",
          "type": "uint256"
        }
      ],
      "stateMutability": "nonpayable",
      "type": "function"
    },
    {
      "inputs": [],
      "name": "minter",
      "outputs": [
        {
          "internalType": "address",
          "name": "",
          "type": "address"
        }
      ],
      "stateMutability": "view",
      "type": "function"
    },
    {
      "inputs": [],
      "name": "name",
      "outputs": [
        {
          "internalType": "string",
          "name": "",
          "type": "string"
        }
      ],
      "stateMutability": "view",
      "type": "function"
    },
    {
      "inputs": [],
      "name": "owner",
      "outputs": [
        {
          "internalType": "address",
          "name": "",
          "type": "address"
        }
      ],
      "stateMutability": "view",
      "type": "function"
    },
    {
      "inputs": [
        {
          "internalType": "address[]",
          "name": "_to",
          "type": "address[]"
        },
        {
          "internalType": "uint256[]",
          "name": "_prefectureId",
          "type": "uint256[]"
        },
        {
          "internalType": "uint256[]",
          "name": "_amount",
          "type": "uint256[]"
        }
      ],
      "name": "ownerMint",
      "outputs": [
        {
          "internalType": "uint256",
          "name": "tokenId",
          "type": "uint256"
        }
      ],
      "stateMutability": "nonpayable",
      "type": "function"
    },
    {
      "inputs": [
        {
          "internalType": "uint256",
          "name": "tokenId",
          "type": "uint256"
        }
      ],
      "name": "ownerOf",
      "outputs": [
        {
          "internalType": "address",
          "name": "",
          "type": "address"
        }
      ],
      "stateMutability": "view",
      "type": "function"
    },
    {
      "inputs": [
        {
          "internalType": "uint256",
          "name": "_tokenId",
          "type": "uint256"
        },
        {
          "internalType": "address",
          "name": "_buyer",
          "type": "address"
        },
        {
          "internalType": "address",
          "name": "_facilitator",
          "type": "address"
        }
      ],
      "name": "purchase",
      "outputs": [],
      "stateMutability": "payable",
      "type": "function"
    },
    {
      "inputs": [
        {
          "internalType": "uint256",
          "name": "",
          "type": "uint256"
        },
        {
          "internalType": "bool",
          "name": "",
          "type": "bool"
        }
      ],
      "name": "putTrade",
      "outputs": [],
      "stateMutability": "pure",
      "type": "function"
    },
    {
      "inputs": [
        {
          "internalType": "uint256",
          "name": "_tokenId",
          "type": "uint256"
        },
        {
          "internalType": "uint256[]",
          "name": "_prefectures",
          "type": "uint256[]"
        },
        {
          "internalType": "address",
          "name": "_tradeAddress",
          "type": "address"
        }
      ],
      "name": "putTradeLocalNoun",
      "outputs": [],
      "stateMutability": "nonpayable",
      "type": "function"
    },
    {
      "inputs": [],
      "name": "renounceOwnership",
      "outputs": [],
      "stateMutability": "nonpayable",
      "type": "function"
    },
    {
      "inputs": [
        {
          "internalType": "uint256",
          "name": "",
          "type": "uint256"
        }
      ],
      "name": "royaltyAddresses",
      "outputs": [
        {
          "internalType": "address",
          "name": "",
          "type": "address"
        }
      ],
      "stateMutability": "view",
      "type": "function"
    },
    {
      "inputs": [
        {
          "internalType": "address",
          "name": "",
          "type": "address"
        }
      ],
      "name": "royaltyRatio",
      "outputs": [
        {
          "internalType": "uint256",
          "name": "",
          "type": "uint256"
        }
      ],
      "stateMutability": "view",
      "type": "function"
    },
    {
      "inputs": [
        {
          "internalType": "address",
          "name": "from",
          "type": "address"
        },
        {
          "internalType": "address",
          "name": "to",
          "type": "address"
        },
        {
          "internalType": "uint256",
          "name": "tokenId",
          "type": "uint256"
        }
      ],
      "name": "safeTransferFrom",
      "outputs": [],
      "stateMutability": "payable",
      "type": "function"
    },
    {
      "inputs": [
        {
          "internalType": "address",
          "name": "from",
          "type": "address"
        },
        {
          "internalType": "address",
          "name": "to",
          "type": "address"
        },
        {
          "internalType": "uint256",
          "name": "tokenId",
          "type": "uint256"
        },
        {
          "internalType": "bytes",
          "name": "_data",
          "type": "bytes"
        }
      ],
      "name": "safeTransferFrom",
      "outputs": [],
      "stateMutability": "payable",
      "type": "function"
    },
    {
      "inputs": [],
      "name": "salesRoyaltyBasisPoint",
      "outputs": [
        {
          "internalType": "uint256",
          "name": "",
          "type": "uint256"
        }
      ],
      "stateMutability": "view",
      "type": "function"
    },
    {
      "inputs": [
        {
          "internalType": "address",
          "name": "operator",
          "type": "address"
        },
        {
          "internalType": "bool",
          "name": "approved",
          "type": "bool"
        }
      ],
      "name": "setApprovalForAll",
      "outputs": [],
      "stateMutability": "nonpayable",
      "type": "function"
    },
    {
      "inputs": [
        {
          "internalType": "contract IAssetProvider",
          "name": "_assetProvider",
          "type": "address"
        }
      ],
      "name": "setAssetProvider",
      "outputs": [],
      "stateMutability": "nonpayable",
      "type": "function"
    },
    {
      "inputs": [
        {
          "internalType": "bool",
          "name": "_canSetApproval",
          "type": "bool"
        }
      ],
      "name": "setCanSetAproval",
      "outputs": [],
      "stateMutability": "nonpayable",
      "type": "function"
    },
    {
      "inputs": [
        {
          "internalType": "string",
          "name": "_description",
          "type": "string"
        }
      ],
      "name": "setDescription",
      "outputs": [],
      "stateMutability": "nonpayable",
      "type": "function"
    },
    {
      "inputs": [
        {
          "internalType": "uint256",
          "name": "_limit",
          "type": "uint256"
        }
      ],
      "name": "setMintLimit",
      "outputs": [],
      "stateMutability": "nonpayable",
      "type": "function"
    },
    {
      "inputs": [
        {
          "internalType": "uint256",
          "name": "_price",
          "type": "uint256"
        }
      ],
      "name": "setMintPrice",
      "outputs": [],
      "stateMutability": "nonpayable",
      "type": "function"
    },
    {
      "inputs": [
        {
          "internalType": "address",
          "name": "_minter",
          "type": "address"
        }
      ],
      "name": "setMinter",
      "outputs": [],
      "stateMutability": "nonpayable",
      "type": "function"
    },
    {
      "inputs": [
        {
          "internalType": "uint256",
          "name": "_tokenId",
          "type": "uint256"
        },
        {
          "internalType": "uint256",
          "name": "_price",
          "type": "uint256"
        }
      ],
      "name": "setPriceOf",
      "outputs": [],
      "stateMutability": "nonpayable",
      "type": "function"
    },
    {
      "inputs": [
        {
          "internalType": "address[]",
          "name": "_addr",
          "type": "address[]"
        },
        {
          "internalType": "uint256[]",
          "name": "ratio",
          "type": "uint256[]"
        }
      ],
      "name": "setRoyaltyAddresses",
      "outputs": [],
      "stateMutability": "nonpayable",
      "type": "function"
    },
    {
      "inputs": [
        {
          "internalType": "uint256",
          "name": "_bp",
          "type": "uint256"
        }
      ],
      "name": "setSalesRoyaltyBasisPoint",
      "outputs": [],
      "stateMutability": "nonpayable",
      "type": "function"
    },
    {
      "inputs": [
        {
          "internalType": "uint256",
          "name": "_royalty",
          "type": "uint256"
        }
      ],
      "name": "setTradeRoyalty",
      "outputs": [],
      "stateMutability": "nonpayable",
      "type": "function"
    },
    {
      "inputs": [
        {
          "internalType": "bytes4",
          "name": "interfaceId",
          "type": "bytes4"
        }
      ],
      "name": "supportsInterface",
      "outputs": [
        {
          "internalType": "bool",
          "name": "",
          "type": "bool"
        }
      ],
      "stateMutability": "view",
      "type": "function"
    },
    {
      "inputs": [],
      "name": "symbol",
      "outputs": [
        {
          "internalType": "string",
          "name": "",
          "type": "string"
        }
      ],
      "stateMutability": "view",
      "type": "function"
    },
    {
      "inputs": [
        {
          "internalType": "uint256",
          "name": "_tokenId",
          "type": "uint256"
        }
      ],
      "name": "tokenURI",
      "outputs": [
        {
          "internalType": "string",
          "name": "",
          "type": "string"
        }
      ],
      "stateMutability": "view",
      "type": "function"
    },
    {
      "inputs": [],
      "name": "totalSupply",
      "outputs": [
        {
          "internalType": "uint256",
          "name": "",
          "type": "uint256"
        }
      ],
      "stateMutability": "view",
      "type": "function"
    },
    {
      "inputs": [],
      "name": "totalSupply2",
      "outputs": [
        {
          "internalType": "uint256",
          "name": "",
          "type": "uint256"
        }
      ],
      "stateMutability": "view",
      "type": "function"
    },
    {
      "inputs": [
        {
          "internalType": "uint256",
          "name": "",
          "type": "uint256"
        }
      ],
      "name": "tradeAddress",
      "outputs": [
        {
          "internalType": "address",
          "name": "",
          "type": "address"
        }
      ],
      "stateMutability": "view",
      "type": "function"
    },
    {
      "inputs": [
        {
          "internalType": "uint256",
          "name": "",
          "type": "uint256"
        },
        {
          "internalType": "uint256",
          "name": "",
          "type": "uint256"
        }
      ],
      "name": "tradePrefecture",
      "outputs": [
        {
          "internalType": "uint256",
          "name": "",
          "type": "uint256"
        }
      ],
      "stateMutability": "view",
      "type": "function"
    },
    {
      "inputs": [],
      "name": "tradeRoyalty",
      "outputs": [
        {
          "internalType": "uint256",
          "name": "",
          "type": "uint256"
        }
      ],
      "stateMutability": "view",
      "type": "function"
    },
    {
      "inputs": [
        {
          "internalType": "uint256",
          "name": "",
          "type": "uint256"
        }
      ],
      "name": "trades",
      "outputs": [
        {
          "internalType": "bool",
          "name": "",
          "type": "bool"
        }
      ],
      "stateMutability": "view",
      "type": "function"
    },
    {
      "inputs": [
        {
          "internalType": "address",
          "name": "from",
          "type": "address"
        },
        {
          "internalType": "address",
          "name": "to",
          "type": "address"
        },
        {
          "internalType": "uint256",
          "name": "tokenId",
          "type": "uint256"
        }
      ],
      "name": "transferFrom",
      "outputs": [],
      "stateMutability": "payable",
      "type": "function"
    },
    {
      "inputs": [
        {
          "internalType": "address",
          "name": "newOwner",
          "type": "address"
        }
      ],
      "name": "transferOwnership",
      "outputs": [],
      "stateMutability": "nonpayable",
      "type": "function"
    },
    {
      "inputs": [],
      "name": "withdraw",
      "outputs": [],
      "stateMutability": "payable",
      "type": "function"
    }
  ],
  "bytecode": "0x60806040526016805460ff19169055660aa87bee5380006017556103e86018553480156200002c57600080fd5b5060405162003f5638038062003f568339810160408190526200004f91620002aa565b604080518082018252600b8082526a4c6f63616c204e6f756e7360a81b602080840182905284518086019095529184529083015283918181600262000095838262000400565b506003620000a4828262000400565b50506000805550620000b63362000178565b5050600e80546001600160a01b0319166001600160a01b039290921691909117905560408051808201909152600b8082526a4c6f63616c204e6f756e7360a81b60208301529062000108908262000400565b50600f80546001600160a01b038085166001600160a01b0319928316179092556010805492841692909116919091179055604080516020810190915233815262000157906013906001620001ca565b505033600090815260146020526040902060019081905560155550620004cc565b600880546001600160a01b038381166001600160a01b0319831681179093556040519116919082907f8be0079c531659141344cd1fd0a4f28419497f9722a3daafe3b4186f6b6457e090600090a35050565b82805482825590600052602060002090810192821562000222579160200282015b828111156200022257825182546001600160a01b0319166001600160a01b03909116178255602090920191600190910190620001eb565b506200023092915062000234565b5090565b5b8082111562000230576000815560010162000235565b60006001600160a01b0382165b92915050565b600062000258826200024b565b62000276816200025e565b81146200028257600080fd5b50565b805162000258816200026b565b62000276816200024b565b8051620002588162000292565b60008060408385031215620002c257620002c2600080fd5b6000620002d0858562000285565b9250506020620002e3858286016200029d565b9150509250929050565b634e487b7160e01b600052604160045260246000fd5b634e487b7160e01b600052602260045260246000fd5b6002810460018216806200032e57607f821691505b60208210810362000343576200034362000303565b50919050565b600062000258620003578381565b90565b620003658362000349565b81546008840282811b60001990911b908116901990911617825550505050565b6000620003948184846200035a565b505050565b81811015620003b857620003af60008262000385565b60010162000399565b5050565b601f82111562000394576000818152602090206020601f85010481016020851015620003e55750805b620003f96020601f86010483018262000399565b5050505050565b81516001600160401b038111156200041c576200041c620002ed565b62000428825462000319565b62000435828285620003bc565b506020601f8211600181146200046d5760008315620004545750848201515b600019600885021c1981166002850217855550620003f9565b600084815260208120601f198516915b828110156200049f57878501518255602094850194600190920191016200047d565b5084821015620004bd5783870151600019601f87166008021c191681555b50505050600202600101905550565b613a7a80620004dc6000396000f3fe6080604052600436106103765760003560e01c806370a08231116101d1578063a22cb46511610102578063dc49f204116100a0578063f4a0a5281161006f578063f4a0a528146109c4578063fba49e4f146109e4578063fca3b5aa14610a04578063ff7047aa14610a2457600080fd5b8063dc49f2041461094a578063e4f71a0014610964578063e985e9c514610984578063f2fde38b146109a457600080fd5b8063b54b4fb9116100dc578063b54b4fb9146108bc578063b88d4fde146108e9578063c87b56dd146108fc578063cc44ab411461091c57600080fd5b8063a22cb4651461085c578063a370f7d71461087c578063b212cfc71461089c57600080fd5b80639048ec0a1161016f57806395d89b411161014957806395d89b411461081157806396178c201461050f578063996517cf146108265780639e6a1d7d1461083c57600080fd5b80639048ec0a146107bb57806390c3f38f146107d15780639589d7b9146107f157600080fd5b80637e4f8669116101ab5780637e4f86691461074a5780638c4020781461076a5780638da5cb5b1461077d5780638dac58641461079b57600080fd5b806370a0823114610700578063715018a6146107205780637284e4161461073557600080fd5b806323c563ab116102ab57806342842e0e116102495780635975814e116102235780635975814e1461068f5780636352211e146106af57806367008d77146106cf5780636817c76c146106ea57600080fd5b806342842e0e1461062f578063476bf00d146106425780634d1317571461066257600080fd5b806335a05ad51161028557806335a05ad5146105d457806337fbf578146105f45780633b7f8f15146106145780633ccfd60b1461062757600080fd5b806323c563ab1461056757806326df5b351461058757806326fbd1d6146105b457600080fd5b806311d7ef2611610318578063163999a6116102f2578063163999a6146104ef57806318160ddd1461050f5780631e6c598e1461052457806323b872dd1461055457600080fd5b806311d7ef261461048f5780631249c58b146104c55780631346d8ea146104cd57600080fd5b80630754617211610354578063075461721461040057806307f0bac11461042d578063081812fc1461045a578063095ea7b31461047a57600080fd5b806301ffc9a71461037b57806305503088146103b157806306fdde03146103de575b600080fd5b34801561038757600080fd5b5061039b61039636600461270f565b610a3a565b6040516103a8919061273a565b60405180910390f35b3480156103bd57600080fd5b506103d16103cc3660046128f4565b610a65565b6040516103a89190612997565b3480156103ea57600080fd5b506103f3610b3b565b6040516103a891906129fb565b34801561040c57600080fd5b50601054610420906001600160a01b031681565b6040516103a89190612a15565b34801561043957600080fd5b506103d1610448366004612a23565b60146020526000908152604090205481565b34801561046657600080fd5b50610420610475366004612a44565b610bcd565b61048d610488366004612a65565b610c11565b005b34801561049b57600080fd5b506104206104aa366004612a44565b6012602052600090815260409020546001600160a01b031681565b6103d1610c41565b3480156104d957600080fd5b506103d16104e8366004612a23565b50600c5490565b3480156104fb57600080fd5b5061048d61050a366004612aa2565b610c5b565b34801561051b57600080fd5b506000546103d1565b34801561053057600080fd5b5061039b61053f366004612a44565b600a6020526000908152604090205460ff1681565b61048d610562366004612b08565b610d4d565b34801561057357600080fd5b5061048d610582366004612a44565b610ef2565b34801561059357600080fd5b50600f546105a7906001600160a01b031681565b6040516103a89190612b90565b3480156105c057600080fd5b5061048d6105cf366004612b9e565b610eff565b3480156105e057600080fd5b506104206105ef366004612a44565b610f17565b34801561060057600080fd5b506103d161060f366004612bc0565b610f41565b61048d610622366004612bf5565b611089565b61048d61116e565b61048d61063d366004612b08565b611181565b34801561064e57600080fd5b5061048d61065d366004612a44565b61119c565b34801561066e57600080fd5b5061068261067d366004612a44565b6111a9565b6040516103a89190612c99565b34801561069b57600080fd5b5061048d6106aa366004612caa565b61120b565b3480156106bb57600080fd5b506104206106ca366004612a44565b61132a565b3480156106db57600080fd5b5061048d6105cf366004612d0c565b3480156106f657600080fd5b506103d1600c5481565b34801561070c57600080fd5b506103d161071b366004612a23565b611335565b34801561072c57600080fd5b5061048d611383565b34801561074157600080fd5b506103f3611395565b34801561075657600080fd5b5061048d610765366004612d3f565b611423565b61048d610778366004612b9e565b61143e565b34801561078957600080fd5b506008546001600160a01b0316610420565b3480156107a757600080fd5b5061048d6107b6366004612a44565b6115da565b3480156107c757600080fd5b506103d160185481565b3480156107dd57600080fd5b5061048d6107ec366004612dee565b61164d565b3480156107fd57600080fd5b5061048d61080c366004612e47565b611661565b34801561081d57600080fd5b506103f36116d2565b34801561083257600080fd5b506103d1600d5481565b34801561084857600080fd5b5061048d610857366004612a44565b6116e1565b34801561086857600080fd5b5061048d610877366004612e7c565b6116ee565b34801561088857600080fd5b50600e546105a7906001600160a01b031681565b3480156108a857600080fd5b5061048d6108b7366004612e9e565b61171a565b3480156108c857600080fd5b506103d16108d7366004612a44565b60009081526009602052604090205490565b61048d6108f7366004612ebf565b611744565b34801561090857600080fd5b506103f3610917366004612a44565b61178e565b34801561092857600080fd5b5061093c610937366004612a44565b61189f565b6040516103a8929190612f3d565b34801561095657600080fd5b5060165461039b9060ff1681565b34801561097057600080fd5b506103d161097f366004612b9e565b6118c3565b34801561099057600080fd5b5061039b61099f366004612f5d565b6118f4565b3480156109b057600080fd5b5061048d6109bf366004612a23565b611922565b3480156109d057600080fd5b5061048d6109df366004612a44565b61195c565b3480156109f057600080fd5b5061048d6109ff366004612b9e565b611969565b348015610a1057600080fd5b5061048d610a1f366004612a23565b6119e8565b348015610a3057600080fd5b506103d160175481565b60006001600160e01b031982166341fb5ca160e01b1480610a5f5750610a5f82611a12565b92915050565b6000610a6f611a37565b82518451148015610a81575081518451145b610aa65760405162461bcd60e51b8152600401610a9d90612fba565b60405180910390fd5b60005b8451811015610b1b57610b08858281518110610ac757610ac7612fca565b6020026020010151858381518110610ae157610ae1612fca565b6020026020010151858481518110610afb57610afb612fca565b6020026020010151610f41565b5080610b1381612ff6565b915050610aa9565b506001610b2760005490565b610b31919061300f565b90505b9392505050565b606060028054610b4a90613038565b80601f0160208091040260200160405190810160405280929190818152602001828054610b7690613038565b8015610bc35780601f10610b9857610100808354040283529160200191610bc3565b820191906000526020600020905b815481529060010190602001808311610ba657829003601f168201915b5050505050905090565b6000610bd882611a61565b610bf5576040516333d1c03960e21b815260040160405180910390fd5b506000908152600660205260409020546001600160a01b031690565b60165460ff16610c335760405162461bcd60e51b8152600401610a9d9061308f565b610c3d8282611a88565b5050565b600060405162461bcd60e51b8152600401610a9d906130be565b610c63611a37565b8051825114610c845760405162461bcd60e51b8152600401610a9d90612fba565b8151610c97906013906020850190612638565b50600060158190555b8251811015610d4857818181518110610cbb57610cbb612fca565b602002602001015160146000858481518110610cd957610cd9612fca565b60200260200101516001600160a01b03166001600160a01b0316815260200190815260200160002081905550818181518110610d1757610d17612fca565b602002602001015160156000828254610d3091906130ce565b90915550819050610d4081612ff6565b915050610ca0565b505050565b6000610d5882611b28565b9050836001600160a01b0316816001600160a01b031614610d8b5760405162a1148160e81b815260040160405180910390fd5b60008281526006602052604090208054338082146001600160a01b03881690911417610dd857610dbb86336118f4565b610dd857604051632ce44b5f60e11b815260040160405180910390fd5b6001600160a01b038516610dff57604051633a954ecd60e21b815260040160405180910390fd5b610e0c8686866001611b8f565b8015610e1757600082555b6001600160a01b038681166000908152600560205260408082208054600019019055918716808252919020805460010190554260a01b17600160e11b17600085815260046020526040812091909155600160e11b84169003610ea957600184016000818152600460205260408120549003610ea7576000548114610ea75760008181526004602052604090208490555b505b83856001600160a01b0316876001600160a01b03167fddf252ad1be2c89b69c2b068fc378daa952ba7f163c4a11628f55a4df523b3ef60405160405180910390a4505050505050565b610efa611a37565b601755565b60405162461bcd60e51b8152600401610a9d906130be565b60138181548110610f2757600080fd5b6000918252602090912001546001600160a01b0316905081565b6010546000906001600160a01b0316331480610f6757506008546001600160a01b031633145b610f835760405162461bcd60e51b8152600401610a9d90613104565b602f610f9060648561312a565b1115610fae5760405162461bcd60e51b8152600401610a9d90613167565b610fb88483611bdf565b600082610fc460005490565b610fce919061300f565b905060005b8381101561106a57600f546001600160a01b0316631b2ef1ca86610ff784866130ce565b6040518363ffffffff1660e01b8152600401611014929190613177565b6020604051808303816000875af1158015611033573d6000803e3d6000fd5b505050506040513d601f19601f82011682018060405250810190611057919061319d565b508061106281612ff6565b915050610fd3565b50600161107660005490565b611080919061300f565b95945050505050565b600083815260096020526040902054806110b55760405162461bcd60e51b8152600401610a9d906131e7565b803410156110d55760405162461bcd60e51b8152600401610a9d9061321b565b60006110e13484611bf9565b905060006110ef3487611c65565b905060006110fc8761132a565b9050806001600160a01b0381166108fc84611117873461300f565b611121919061300f565b6040518115909202916000818181858888f19350505050158015611149573d6000803e3d6000fd5b5060008881526009602052604081205561116482888a611c8d565b5050505050505050565b611176611a37565b61117f47611d02565b565b610d4883838360405180602001604052806000815250611744565b6111a4611a37565b601855565b6000818152601160209081526040918290208054835181840281018401909452808452606093928301828280156111ff57602002820191906000526020600020905b8154815260200190600101908083116111eb575b50505050509050919050565b60005b825181101561128857600083828151811061122b5761122b612fca565b602002602001015111801561125a5750602f83828151811061124f5761124f612fca565b602002602001015111155b6112765760405162461bcd60e51b8152600401610a9d9061325d565b8061128081612ff6565b91505061120e565b50611294836001611dad565b600083815260116020908152604090912083516112b39285019061269d565b506001600160a01b038116156112eb57600083815260126020526040902080546001600160a01b0319166001600160a01b0383161790555b827fc02d04215aef5676b10fa9457659d93003c9f8e4b6e36600757e93351ea663be838360405161131d92919061326d565b60405180910390a2505050565b6000610a5f82611b28565b60006001600160a01b03821661135e576040516323d3ad8160e21b815260040160405180910390fd5b506001600160a01b03166000908152600560205260409020546001600160401b031690565b61138b611a37565b61117f6000611e29565b600b80546113a290613038565b80601f01602080910402602001604051908101604052809291908181526020018280546113ce90613038565b801561141b5780601f106113f05761010080835404028352916020019161141b565b820191906000526020600020905b8154815290600101906020018083116113fe57829003601f168201915b505050505081565b61142b611a37565b6016805460ff1916911515919091179055565b6017543410156114605760405162461bcd60e51b8152600401610a9d906132b5565b6000818152601260205260409020546001600160a01b0316158061149a57506000818152601260205260409020546001600160a01b031633145b6114b65760405162461bcd60e51b8152600401610a9d906132f7565b600081815260116020526040902054156115c757600f5460405163957b3b2360e01b81526000916001600160a01b03169063957b3b23906114fb908690600401612997565b6020604051808303816000875af115801561151a573d6000803e3d6000fd5b505050506040513d601f19601f8201168201806040525081019061153e919061319d565b90506000805b6000848152601160205260409020548110156115a657600084815260116020526040902080548290811061157a5761157a612fca565b9060005260206000200154830361159457600191506115a6565b8061159e81612ff6565b915050611544565b50806115c45760405162461bcd60e51b8152600401610a9d90613339565b50505b6115d18282611e7b565b610c3d34611f01565b6115e5816000611dad565b60008181526011602052604090206060805190916116059160809061269d565b5060008281526012602052604080822080546001600160a01b03191690555183917f28dad92e7cc5308a2998d22449801e54e49034de5d8586493e68e8a24ac2d41691a25050565b611655611a37565b600b610c3d82826133df565b61166b8382611969565b604051633c6fc81760e01b81526001600160a01b03831690633c6fc8179061169b9030908790869060040161349e565b600060405180830381600087803b1580156116b557600080fd5b505af11580156116c9573d6000803e3d6000fd5b50505050505050565b606060038054610b4a90613038565b6116e9611a37565b600d55565b60165460ff166117105760405162461bcd60e51b8152600401610a9d90613506565b610c3d8282611f0a565b611722611a37565b600e80546001600160a01b0319166001600160a01b0392909216919091179055565b61174f848484610d4d565b6001600160a01b0383163b156117885761176b84848484611f79565b611788576040516368d2bf6b60e11b815260040160405180910390fd5b50505050565b606061179960005490565b82106117b75760405162461bcd60e51b8152600401610a9d9061353c565b600f546040516371f9278160e11b815260009182916001600160a01b039091169063e3f24f02906117ec908790600401612997565b600060405180830381865afa158015611809573d6000803e3d6000fd5b505050506040513d6000823e601f3d908101601f1916820160405261183191908101906135a4565b90925090508161187661184386612065565b600b61184e88612096565b84604051602001611862949392919061369e565b60405160208183030381529060405261210c565b6040516020016118869190613758565b6040516020818303038152906040529350505050919050565b606060005a90506118af8361178e565b91505a6118bc908261300f565b9050915091565b601160205281600052604060002081815481106118df57600080fd5b90600052602060002001600091509150505481565b6001600160a01b03918216600090815260076020908152604080832093909416825291909152205460ff1690565b61192a611a37565b6001600160a01b0381166119505760405162461bcd60e51b8152600401610a9d906137cd565b61195981611e29565b50565b611964611a37565b600c55565b336119738361132a565b6001600160a01b0316146119995760405162461bcd60e51b8152600401610a9d9061380d565b600082815260096020526040908190208290555182907ff9317dc3bc6dda0e00e43855c2c30847aeafb8dcea9d2ce86e9ce7a83d549f01906119dc908490612997565b60405180910390a25050565b6119f0611a37565b601080546001600160a01b0319166001600160a01b0392909216919091179055565b60006001600160e01b0319821663700cc4ad60e11b1480610a5f5750610a5f82612270565b6008546001600160a01b0316331461117f5760405162461bcd60e51b8152600401610a9d9061384d565b6000805482108015610a5f575050600090815260046020526040902054600160e01b161590565b6000611a938261132a565b9050336001600160a01b03821614611acc57611aaf81336118f4565b611acc576040516367d9dca160e11b815260040160405180910390fd5b60008281526006602052604080822080546001600160a01b0319166001600160a01b0387811691821790925591518593918516917f8c5be1e5ebec7d5bd14f71427d1e84f3dd0314c0f7b2291e5b200ac8c7c3b92591a4505050565b600081600054811015611b765760008181526004602052604081205490600160e01b82169003611b74575b80600003610b34575060001901600081815260046020526040902054611b53565b505b604051636f96cda160e11b815260040160405180910390fd5b6000828152601160205260409020606080519091611baf9160809061269d565b50600083815260126020526040902080546001600160a01b0319169055611bd8858585856122be565b5050505050565b610c3d8282604051806020016040528060008152506122e9565b60006001600160a01b03821615610a5f576103e8611c1884601961385d565b611c229190613874565b60405190915082906001600160a01b0382169083156108fc029084906000818181858888f19350505050158015611c5d573d6000803e3d6000fd5b505092915050565b600061271060185484611c78919061385d565b611c829190613874565b9050610a5f81611d02565b6000611c9882611b28565b9050836001600160a01b0316816001600160a01b031614611ccb5760405162a1148160e81b815260040160405180910390fd5b600082815260066020526040902080546001600160a01b038516610dff57604051633a954ecd60e21b815260040160405180910390fd5b60005b601354811015610c3d57611d9b60138281548110611d2557611d25612fca565b9060005260206000200160009054906101000a90046001600160a01b03166015546014600060138681548110611d5d57611d5d612fca565b60009182526020808320909101546001600160a01b03168352820192909252604001902054611d8c908661385d565b611d969190613874565b61234f565b80611da581612ff6565b915050611d05565b33611db78361132a565b6001600160a01b031614611ddd5760405162461bcd60e51b8152600401610a9d906138ba565b6000828152600a602052604090819020805460ff19168315151790555182907f0931e6600146b3ef83884d0f5e5c304a68cbc6c0ebba0617323021751e9a7917906119dc90849061273a565b600880546001600160a01b038381166001600160a01b0319831681179093556040519116919082907f8be0079c531659141344cd1fd0a4f28419497f9722a3daafe3b4186f6b6457e090600090a35050565b33611e858361132a565b6001600160a01b031614611eab5760405162461bcd60e51b8152600401610a9d906138ba565b6000818152600a602052604090205460ff161515600114611ede5760405162461bcd60e51b8152600401610a9d906138fc565b6000611ee98261132a565b9050611ef6338285611c8d565b610d48813384611c8d565b61195981611d02565b3360008181526007602090815260408083206001600160a01b038716808552925291829020805460ff191685151517905590519091907f17307eab39ab6107e8899845ad3d59bd9653f200f220920489ca2b5937696c3190611f6d90859061273a565b60405180910390a35050565b604051630a85bd0160e11b81526000906001600160a01b0385169063150b7a0290611fae90339089908890889060040161390c565b6020604051808303816000875af1925050508015611fe9575060408051601f3d908101601f19168201909252611fe69181019061395b565b60015b612047573d808015612017576040519150601f19603f3d011682016040523d82523d6000602084013e61201c565b606091505b50805160000361203f576040516368d2bf6b60e11b815260040160405180910390fd5b805181602001fd5b6001600160e01b031916630a85bd0160e11b1490505b949350505050565b6060612070826123c2565b604051602001612080919061397c565b6040516020818303038152906040529050919050565b600e546040516379b92f2760e01b81526060916001600160a01b0316906379b92f27906120c7908590600401612997565b600060405180830381865afa1580156120e4573d6000803e3d6000fd5b505050506040513d6000823e601f3d908101601f19168201604052610a5f9190810190613997565b6060815160000361212b57505060408051602081019091526000815290565b6000604051806060016040528060408152602001613a05604091399050600060038451600261215a91906130ce565b6121649190613874565b61216f90600461385d565b9050600061217e8260206130ce565b6001600160401b0381111561219557612195612748565b6040519080825280601f01601f1916602001820160405280156121bf576020820181803683370190505b509050818152600183018586518101602084015b8183101561222b576003830192508251603f8160121c168501518253600182019150603f81600c1c168501518253600182019150603f8160061c168501518253600182019150603f81168501518253506001016121d3565b600389510660018114612245576002811461225657612262565b613d3d60f01b600119830152612262565b603d60f81b6000198301525b509398975050505050505050565b60006301ffc9a760e01b6001600160e01b0319831614806122a157506380ac58cd60e01b6001600160e01b03198316145b80610a5f5750506001600160e01b031916635b5e139f60e01b1490565b6000828152600a60209081526040808320805460ff1916905560099091528120556117888484848484565b6122f38383612455565b6001600160a01b0383163b15610d48576000548281035b61231d6000868380600101945086611f79565b61233a576040516368d2bf6b60e11b815260040160405180910390fd5b81811061230a578160005414611bd857600080fd5b6000826001600160a01b03168260405160006040518083038185875af1925050503d806000811461239c576040519150601f19603f3d011682016040523d82523d6000602084013e6123a1565b606091505b5050905080610d485760405162461bcd60e51b8152600401610a9d906139f4565b606060006123cf83612560565b60010190506000816001600160401b038111156123ee576123ee612748565b6040519080825280601f01601f191660200182016040528015612418576020820181803683370190505b5090508181016020015b600019016f181899199a1a9b1b9c1cb0b131b232b360811b600a86061a8153600a8504945084612422575b509392505050565b600080549082900361247a5760405163b562e8dd60e01b815260040160405180910390fd5b6124876000848385611b8f565b6001600160a01b03831660008181526005602090815260408083208054680100000000000000018802019055848352600490915281206001851460e11b4260a01b178317905582840190839083907fddf252ad1be2c89b69c2b068fc378daa952ba7f163c4a11628f55a4df523b3ef8180a4600183015b81811461253657808360007fddf252ad1be2c89b69c2b068fc378daa952ba7f163c4a11628f55a4df523b3ef600080a46001016124fe565b508160000361255757604051622e076360e81b815260040160405180910390fd5b60005550505050565b60008072184f03e93ff9f4daa797ed6e38ed64bf6a1f0160401b831061259f5772184f03e93ff9f4daa797ed6e38ed64bf6a1f0160401b830492506040015b6d04ee2d6d415b85acef810000000083106125cb576d04ee2d6d415b85acef8100000000830492506020015b662386f26fc1000083106125e957662386f26fc10000830492506010015b6305f5e1008310612601576305f5e100830492506008015b612710831061261557612710830492506004015b60648310612627576064830492506002015b600a8310610a5f5760010192915050565b82805482825590600052602060002090810192821561268d579160200282015b8281111561268d57825182546001600160a01b0319166001600160a01b03909116178255602090920191600190910190612658565b506126999291506126d8565b5090565b82805482825590600052602060002090810192821561268d579160200282015b8281111561268d5782518255916020019190600101906126bd565b5b8082111561269957600081556001016126d9565b6001600160e01b031981165b811461195957600080fd5b8035610a5f816126ed565b60006020828403121561272457612724600080fd5b600061205d8484612704565b8015155b82525050565b60208101610a5f8284612730565b634e487b7160e01b600052604160045260246000fd5b601f19601f83011681018181106001600160401b038211171561278357612783612748565b6040525050565b600061279560405190565b90506127a1828261275e565b919050565b60006001600160401b038211156127bf576127bf612748565b5060209081020190565b60006001600160a01b038216610a5f565b6126f9816127c9565b8035610a5f816127da565b60006128016127fc846127a6565b61278a565b8381529050602080820190840283018581111561282057612820600080fd5b835b818110156128425761283487826127e3565b835260209283019201612822565b5050509392505050565b600082601f83011261286057612860600080fd5b813561205d8482602086016127ee565b806126f9565b8035610a5f81612870565b600061288f6127fc846127a6565b838152905060208082019084028301858111156128ae576128ae600080fd5b835b81811015612842576128c28782612876565b8352602092830192016128b0565b600082601f8301126128e4576128e4600080fd5b813561205d848260208601612881565b60008060006060848603121561290c5761290c600080fd5b83356001600160401b0381111561292557612925600080fd5b6129318682870161284c565b93505060208401356001600160401b0381111561295057612950600080fd5b61295c868287016128d0565b92505060408401356001600160401b0381111561297b5761297b600080fd5b612987868287016128d0565b9150509250925092565b80612734565b60208101610a5f8284612991565b60005b838110156129c05781810151838201526020016129a8565b50506000910152565b60006129d3825190565b8084526020840193506129ea8185602086016129a5565b601f01601f19169290920192915050565b60208082528101610b3481846129c9565b612734816127c9565b60208101610a5f8284612a0c565b600060208284031215612a3857612a38600080fd5b600061205d84846127e3565b600060208284031215612a5957612a59600080fd5b600061205d8484612876565b60008060408385031215612a7b57612a7b600080fd5b6000612a8785856127e3565b9250506020612a9885828601612876565b9150509250929050565b60008060408385031215612ab857612ab8600080fd5b82356001600160401b03811115612ad157612ad1600080fd5b612add8582860161284c565b92505060208301356001600160401b03811115612afc57612afc600080fd5b612a98858286016128d0565b600080600060608486031215612b2057612b20600080fd5b6000612b2c86866127e3565b9350506020612b3d868287016127e3565b925050604061298786828701612876565b6000610a5f6001600160a01b038316612b65565b90565b6001600160a01b031690565b6000610a5f82612b4e565b6000610a5f82612b71565b61273481612b7c565b60208101610a5f8284612b87565b60008060408385031215612bb457612bb4600080fd5b6000612a878585612876565b600080600060608486031215612bd857612bd8600080fd5b6000612be486866127e3565b9350506020612b3d86828701612876565b600080600060608486031215612c0d57612c0d600080fd5b6000612c198686612876565b9350506020612c2a868287016127e3565b9250506040612987868287016127e3565b612c458282612991565b5060200190565b60200190565b6000612c5c825190565b808452602093840193830160005b82811015612c8f578151612c7e8782612c3b565b965050602082019150600101612c6a565b5093949350505050565b60208082528101610b348184612c52565b600080600060608486031215612cc257612cc2600080fd5b6000612cce8686612876565b93505060208401356001600160401b03811115612ced57612ced600080fd5b612c2a868287016128d0565b8015156126f9565b8035610a5f81612cf9565b60008060408385031215612d2257612d22600080fd5b6000612d2e8585612876565b9250506020612a9885828601612d01565b600060208284031215612d5457612d54600080fd5b600061205d8484612d01565b60006001600160401b03821115612d7957612d79612748565b601f19601f83011660200192915050565b82818337506000910152565b6000612da46127fc84612d60565b905082815260208101848484011115612dbf57612dbf600080fd5b61244d848285612d8a565b600082601f830112612dde57612dde600080fd5b813561205d848260208601612d96565b600060208284031215612e0357612e03600080fd5b81356001600160401b03811115612e1c57612e1c600080fd5b61205d84828501612dca565b6000610a5f826127c9565b6126f981612e28565b8035610a5f81612e33565b600080600060608486031215612e5f57612e5f600080fd5b6000612e6b8686612876565b9350506020612b3d86828701612e3c565b60008060408385031215612e9257612e92600080fd5b6000612d2e85856127e3565b600060208284031215612eb357612eb3600080fd5b600061205d8484612e3c565b60008060008060808587031215612ed857612ed8600080fd5b6000612ee487876127e3565b9450506020612ef5878288016127e3565b9350506040612f0687828801612876565b92505060608501356001600160401b03811115612f2557612f25600080fd5b612f3187828801612dca565b91505092959194509250565b60408082528101612f4e81856129c9565b9050610b346020830184612991565b60008060408385031215612f7357612f73600080fd5b6000612f7f85856127e3565b9250506020612a98858286016127e3565b601581526020810174092dcecc2d8d2c84082e4e4c2f2e640d8cadccee8d605b1b81529050612c4c565b60208082528101610a5f81612f90565b634e487b7160e01b600052603260045260246000fd5b634e487b7160e01b600052601160045260246000fd5b60006001820161300857613008612fe0565b5060010190565b81810381811115610a5f57610a5f612fe0565b634e487b7160e01b600052602260045260246000fd5b60028104600182168061304c57607f821691505b60208210810361305e5761305e613022565b50919050565b6016815260208101754e6f7420616c6c6f77656420746f20617070726f766560501b81529050612c4c565b60208082528101610a5f81613064565b600a8152602081016943616e6e6f742075736560b01b81529050612c4c565b60208082528101610a5f8161309f565b80820180821115610a5f57610a5f612fe0565b600e8152602081016d24b73b30b634b21039b2b73232b960911b81529050612c4c565b60208082528101610a5f816130e1565b634e487b7160e01b600052601260045260246000fd5b60008261313957613139613114565b500690565b601481526020810173125b9d985b1a59081c1c99599958dd1d5c99525960621b81529050612c4c565b60208082528101610a5f8161313e565b604081016131858285612991565b610b346020830184612991565b8051610a5f81612870565b6000602082840312156131b2576131b2600080fd5b600061205d8484613192565b601481526020810173546f6b656e206973206e6f74206f6e2073616c6560601b81529050612c4c565b60208082528101610a5f816131be565b600f8152602081016e139bdd08195b9bdd59da08199d5b99608a1b81529050612c4c565b60208082528101610a5f816131f7565b60178152602081017f696e636f7272656374207072656665637574726520696400000000000000000081529050612c4c565b60208082528101610a5f8161322b565b6040808252810161327e8185612c52565b9050610b346020830184612a0c565b601381526020810172496e73756666696369616c20726f79616c747960681b81529050612c4c565b60208082528101610a5f8161328d565b60198152602081017f4c696d6974656420616464726573732063616e2074726164650000000000000081529050612c4c565b60208082528101610a5f816132c5565b60198152602081017f756e6d6174636820746f207468652077616e7473206c6973740000000000000081529050612c4c565b60208082528101610a5f81613307565b6000610a5f612b628381565b61335e83613349565b81546008840282811b60001990911b908116901990911617825550505050565b6000610d48818484613355565b81811015610c3d5761339e60008261337e565b60010161338b565b601f821115610d48576000818152602090206020601f850104810160208510156133cd5750805b611bd86020601f86010483018261338b565b81516001600160401b038111156133f8576133f8612748565b6134028254613038565b61340d8282856133a6565b506020601f821160018114613442576000831561342a5750848201515b600019600885021c1981166002850217855550611bd8565b600084815260208120601f198516915b828110156134725787850151825560209485019460019092019101613452565b508482101561348f5783870151600019601f87166008021c191681555b50505050600202600101905550565b606081016134ac8286612b87565b6134b96020830185612991565b61205d6040830184612991565b60238152602081017f4e6f7420616c6c6f77656420746f2073657420617070726f76616c20666f7220815262185b1b60ea1b602082015290505b60400190565b60208082528101610a5f816134c6565b6011815260208101703737b732bc34b9ba32b73a103a37b5b2b760791b81529050612c4c565b60208082528101610a5f81613516565b600061355a6127fc84612d60565b90508281526020810184848401111561357557613575600080fd5b61244d8482856129a5565b600082601f83011261359457613594600080fd5b815161205d84826020860161354c565b600080604083850312156135ba576135ba600080fd5b82516001600160401b038111156135d3576135d3600080fd5b6135df85828601613580565b92505060208301516001600160401b038111156135fe576135fe600080fd5b612a9885828601613580565b6000613614825190565b6136228185602086016129a5565b9290920192915050565b6000815461363981613038565b600182168015613650576001811461366557613695565b60ff1983168652811515820286019350613695565b60008581526020902060005b8381101561368d57815488820152600190910190602001613671565b505081860193505b50505092915050565b683d913730b6b2911d1160b91b81526009016136ba818661360a565b701116113232b9b1b934b83a34b7b7111d1160791b815260110190506136e0818561362c565b6f222c2261747472696275746573223a5b60801b81526010019050613705818461360a565b7f5d2c22696d616765223a22646174613a696d6167652f7376672b786d6c3b62618152641cd94d8d0b60da1b60208201526025019050613745818361360a565b61227d60f01b8152905060028101611080565b7f646174613a6170706c69636174696f6e2f6a736f6e3b6261736536342c0000008152601d81015b9050610a5f818361360a565b60268152602081017f4f776e61626c653a206e6577206f776e657220697320746865207a65726f206181526564647265737360d01b60208201529050613500565b60208082528101610a5f8161378c565b60208082527f4f6e6c7920746865206f6e7765722063616e20736574207468652070726963659101908152612c4c565b60208082528101610a5f816137dd565b60208082527f4f776e61626c653a2063616c6c6572206973206e6f7420746865206f776e65729101908152612c4c565b60208082528101610a5f8161381d565b8181028115828204841417610a5f57610a5f612fe0565b60008261388357613883613114565b500490565b60188152602081017f4f6e6c7920746865206f6e7765722063616e207472616465000000000000000081529050612c4c565b60208082528101610a5f81613888565b601d8152602081017f546172676574546f6b656e4964206973206e6f74206f6e20747261646500000081529050612c4c565b60208082528101610a5f816138ca565b6080810161391a8287612a0c565b6139276020830186612a0c565b6139346040830185612991565b818103606083015261394681846129c9565b9695505050505050565b8051610a5f816126ed565b60006020828403121561397057613970600080fd5b600061205d8484613950565b6b02637b1b0b6102737bab739960a51b8152600c8101613780565b6000602082840312156139ac576139ac600080fd5b81516001600160401b038111156139c5576139c5600080fd5b61205d84828501613580565b600e8152602081016d11985a5b1959081d1bc81cd95b9960921b81529050612c4c565b60208082528101610a5f816139d156fe4142434445464748494a4b4c4d4e4f505152535455565758595a6162636465666768696a6b6c6d6e6f707172737475767778797a303132333435363738392b2fa2646970667358221220bcd0e60522ee4b0d2150accda29f59a4c5c6574c8c849a16dd47ec99c71cfcd364736f6c63430008110033",
  "linkReferences": {},
  "deployedLinkReferences": {}
}