{
  "_format": "hh-sol-artifact-1",
  "contractName": "LocalNounsMinter",
  "sourceName": "contracts/localNouns/LocalNounsMinter.sol",
  "abi": [
    {
      "inputs": [
        {
          "internalType": "contract ILocalNounsToken",
          "name": "_token",
          "type": "address"
        },
        {
          "internalType": "contract ITokenGate",
          "name": "_tokenGate",
          "type": "address"
        }
      ],
      "stateMutability": "nonpayable",
      "type": "constructor"
    },
    {
      "anonymous": false,
      "inputs": [
        {
          "indexed": true,
          "internalType": "address",
          "name": "previousOwner",
          "type": "address"
        },
        {
          "indexed": true,
          "internalType": "address",
          "name": "newOwner",
          "type": "address"
        }
      ],
      "name": "OwnershipTransferred",
      "type": "event"
    },
    {
      "inputs": [],
      "name": "administratorsAddress",
      "outputs": [
        {
          "internalType": "address",
          "name": "",
          "type": "address"
        }
      ],
      "stateMutability": "view",
      "type": "function"
    },
    {
      "inputs": [],
      "name": "mintMax",
      "outputs": [
        {
          "internalType": "uint256",
          "name": "",
          "type": "uint256"
        }
      ],
      "stateMutability": "view",
      "type": "function"
    },
    {
      "inputs": [],
      "name": "mintPriceForNotSpecified",
      "outputs": [
        {
          "internalType": "uint256",
          "name": "",
          "type": "uint256"
        }
      ],
      "stateMutability": "view",
      "type": "function"
    },
    {
      "inputs": [],
      "name": "mintPriceForSpecified",
      "outputs": [
        {
          "internalType": "uint256",
          "name": "",
          "type": "uint256"
        }
      ],
      "stateMutability": "view",
      "type": "function"
    },
    {
      "inputs": [
        {
          "internalType": "uint256",
          "name": "_prefectureId",
          "type": "uint256"
        },
        {
          "internalType": "uint256",
          "name": "_amount",
          "type": "uint256"
        }
      ],
      "name": "mintSelectedPrefecture",
      "outputs": [
        {
          "internalType": "uint256",
          "name": "tokenId",
          "type": "uint256"
        }
      ],
      "stateMutability": "payable",
      "type": "function"
    },
    {
      "inputs": [],
      "name": "owner",
      "outputs": [
        {
          "internalType": "address",
          "name": "",
          "type": "address"
        }
      ],
      "stateMutability": "view",
      "type": "function"
    },
    {
      "inputs": [],
      "name": "phase",
      "outputs": [
        {
          "internalType": "enum LocalNounsMinter.SalePhase",
          "name": "",
          "type": "uint8"
        }
      ],
      "stateMutability": "view",
      "type": "function"
    },
    {
      "inputs": [
        {
          "internalType": "address",
          "name": "",
          "type": "address"
        }
      ],
      "name": "preferentialPurchacedCount",
      "outputs": [
        {
          "internalType": "uint256",
          "name": "",
          "type": "uint256"
        }
      ],
      "stateMutability": "view",
      "type": "function"
    },
    {
      "inputs": [],
      "name": "renounceOwnership",
      "outputs": [],
      "stateMutability": "nonpayable",
      "type": "function"
    },
    {
      "inputs": [
        {
          "internalType": "address",
          "name": "_admin",
          "type": "address"
        }
      ],
      "name": "setAdministratorsAddress",
      "outputs": [],
      "stateMutability": "nonpayable",
      "type": "function"
    },
    {
      "inputs": [
        {
          "internalType": "contract ILocalNounsToken",
          "name": "_token",
          "type": "address"
        }
      ],
      "name": "setLocalNounsToken",
      "outputs": [],
      "stateMutability": "nonpayable",
      "type": "function"
    },
    {
      "inputs": [
        {
          "internalType": "uint256",
          "name": "_mintMax",
          "type": "uint256"
        }
      ],
      "name": "setMintMax",
      "outputs": [],
      "stateMutability": "nonpayable",
      "type": "function"
    },
    {
      "inputs": [
        {
          "internalType": "uint256",
          "name": "_price",
          "type": "uint256"
        }
      ],
      "name": "setMintPriceForNotSpecified",
      "outputs": [],
      "stateMutability": "nonpayable",
      "type": "function"
    },
    {
      "inputs": [
        {
          "internalType": "uint256",
          "name": "_price",
          "type": "uint256"
        }
      ],
      "name": "setMintPriceForSpecified",
      "outputs": [],
      "stateMutability": "nonpayable",
      "type": "function"
    },
    {
      "inputs": [
        {
          "internalType": "enum LocalNounsMinter.SalePhase",
          "name": "_phase",
          "type": "uint8"
        }
      ],
      "name": "setPhase",
      "outputs": [],
      "stateMutability": "nonpayable",
      "type": "function"
    },
    {
      "inputs": [],
      "name": "token",
      "outputs": [
        {
          "internalType": "contract ILocalNounsToken",
          "name": "",
          "type": "address"
        }
      ],
      "stateMutability": "view",
      "type": "function"
    },
    {
      "inputs": [],
      "name": "tokenGate",
      "outputs": [
        {
          "internalType": "contract ITokenGate",
          "name": "",
          "type": "address"
        }
      ],
      "stateMutability": "view",
      "type": "function"
    },
    {
      "inputs": [
        {
          "internalType": "address",
          "name": "newOwner",
          "type": "address"
        }
      ],
      "name": "transferOwnership",
      "outputs": [],
      "stateMutability": "nonpayable",
      "type": "function"
    },
    {
      "inputs": [],
      "name": "withdraw",
      "outputs": [],
      "stateMutability": "payable",
      "type": "function"
    }
  ],
  "bytecode": "0x60a0604052666a94d74f430000600255662386f26fc100006003556105dc6004556000600660006101000a81548160ff021916908360028111156200004957620000486200022b565b5b02179055503480156200005b57600080fd5b50604051620019553803806200195583398181016040528101906200008191906200031d565b620000a1620000956200015f60201b60201c565b6200016760201b60201c565b81600160006101000a81548173ffffffffffffffffffffffffffffffffffffffff021916908373ffffffffffffffffffffffffffffffffffffffff16021790555033600660016101000a81548173ffffffffffffffffffffffffffffffffffffffff021916908373ffffffffffffffffffffffffffffffffffffffff1602179055508073ffffffffffffffffffffffffffffffffffffffff1660808173ffffffffffffffffffffffffffffffffffffffff1681525050505062000364565b600033905090565b60008060009054906101000a900473ffffffffffffffffffffffffffffffffffffffff169050816000806101000a81548173ffffffffffffffffffffffffffffffffffffffff021916908373ffffffffffffffffffffffffffffffffffffffff1602179055508173ffffffffffffffffffffffffffffffffffffffff168173ffffffffffffffffffffffffffffffffffffffff167f8be0079c531659141344cd1fd0a4f28419497f9722a3daafe3b4186f6b6457e060405160405180910390a35050565b7f4e487b7100000000000000000000000000000000000000000000000000000000600052602160045260246000fd5b600080fd5b600073ffffffffffffffffffffffffffffffffffffffff82169050919050565b60006200028c826200025f565b9050919050565b6000620002a0826200027f565b9050919050565b620002b28162000293565b8114620002be57600080fd5b50565b600081519050620002d281620002a7565b92915050565b6000620002e5826200027f565b9050919050565b620002f781620002d8565b81146200030357600080fd5b50565b6000815190506200031781620002ec565b92915050565b600080604083850312156200033757620003366200025a565b5b60006200034785828601620002c1565b92505060206200035a8582860162000306565b9150509250929050565b6080516115ce62000387600039600081816105a8015261070f01526115ce6000f3fe6080604052600436106101145760003560e01c8063a3477d1b116100a0578063c03afb5911610064578063c03afb591461034d578063eba145eb14610376578063f2fde38b1461039f578063fc0c546a146103c8578063febced5d146103f357610114565b8063a3477d1b14610263578063a869703c14610293578063afc3cb49146102d0578063b1c9fe6e146102f9578063ba5feb261461032457610114565b806350008e4a116100e757806350008e4a146101a25780635e52f06a146101cd578063715018a6146101f65780638da5cb5b1461020d5780639d3da28a1461023857610114565b80631133d2fa14610119578063339860c1146101425780633ccfd60b1461016d5780634d15556114610177575b600080fd5b34801561012557600080fd5b50610140600480360381019061013b9190610d00565b61041e565b005b34801561014e57600080fd5b50610157610430565b6040516101649190610d3c565b60405180910390f35b610175610436565b005b34801561018357600080fd5b5061018c6105a0565b6040516101999190610d3c565b60405180910390f35b3480156101ae57600080fd5b506101b76105a6565b6040516101c49190610dd6565b60405180910390f35b3480156101d957600080fd5b506101f460048036038101906101ef9190610e41565b6105ca565b005b34801561020257600080fd5b5061020b610616565b005b34801561021957600080fd5b5061022261062a565b60405161022f9190610e7d565b60405180910390f35b34801561024457600080fd5b5061024d610653565b60405161025a9190610d3c565b60405180910390f35b61027d60048036038101906102789190610e98565b610659565b60405161028a9190610d3c565b60405180910390f35b34801561029f57600080fd5b506102ba60048036038101906102b59190610f04565b6109dc565b6040516102c79190610d3c565b60405180910390f35b3480156102dc57600080fd5b506102f760048036038101906102f29190610d00565b6109f4565b005b34801561030557600080fd5b5061030e610a06565b60405161031b9190610fa8565b60405180910390f35b34801561033057600080fd5b5061034b60048036038101906103469190610d00565b610a19565b005b34801561035957600080fd5b50610374600480360381019061036f9190610fe8565b610a2b565b005b34801561038257600080fd5b5061039d60048036038101906103989190610f04565b610a60565b005b3480156103ab57600080fd5b506103c660048036038101906103c19190610f04565b610aac565b005b3480156103d457600080fd5b506103dd610b2f565b6040516103ea9190611036565b60405180910390f35b3480156103ff57600080fd5b50610408610b55565b6040516104159190610e7d565b60405180910390f35b610426610b7b565b8060038190555050565b60035481565b61043e610b7b565b600073ffffffffffffffffffffffffffffffffffffffff16600660019054906101000a900473ffffffffffffffffffffffffffffffffffffffff1673ffffffffffffffffffffffffffffffffffffffff16036104cf576040517f08c379a00000000000000000000000000000000000000000000000000000000081526004016104c6906110d4565b60405180910390fd5b6000600660019054906101000a900473ffffffffffffffffffffffffffffffffffffffff1673ffffffffffffffffffffffffffffffffffffffff164760405161051790611125565b60006040518083038185875af1925050503d8060008114610554576040519150601f19603f3d011682016040523d82523d6000602084013e610559565b606091505b505090508061059d576040517f08c379a0000000000000000000000000000000000000000000000000000000008152600401610594906111ac565b60405180910390fd5b50565b60045481565b7f000000000000000000000000000000000000000000000000000000000000000081565b6105d2610b7b565b80600160006101000a81548173ffffffffffffffffffffffffffffffffffffffff021916908373ffffffffffffffffffffffffffffffffffffffff16021790555050565b61061e610b7b565b6106286000610bf9565b565b60008060009054906101000a900473ffffffffffffffffffffffffffffffffffffffff16905090565b60025481565b600080600281111561066e5761066d610f31565b5b600660009054906101000a900460ff1660028111156106905761068f610f31565b5b036106d0576040517f08c379a00000000000000000000000000000000000000000000000000000000081526004016106c790611218565b60405180910390fd5b600160028111156106e4576106e3610f31565b5b600660009054906101000a900460ff16600281111561070657610705610f31565b5b036107e85760007f000000000000000000000000000000000000000000000000000000000000000073ffffffffffffffffffffffffffffffffffffffff166370a08231336040518263ffffffff1660e01b81526004016107669190610e7d565b602060405180830381865afa158015610783573d6000803e3d6000fd5b505050506040513d601f19601f820116820180604052508101906107a7919061124d565b116107e7576040517f08c379a00000000000000000000000000000000000000000000000000000000081526004016107de906112c6565b60405180910390fd5b5b60045482600160009054906101000a900473ffffffffffffffffffffffffffffffffffffffff1673ffffffffffffffffffffffffffffffffffffffff166396178c206040518163ffffffff1660e01b81526004016020604051808303816000875af115801561085b573d6000803e3d6000fd5b505050506040513d601f19601f8201168201806040525081019061087f919061124d565b6108899190611315565b11156108ca576040517f08c379a00000000000000000000000000000000000000000000000000000000081526004016108c190611395565b60405180910390fd5b60008084036108dd5760035490506108e3565b60025490505b82816108ef91906113b5565b341015610931576040517f08c379a000000000000000000000000000000000000000000000000000000000815260040161092890611443565b60405180910390fd5b600160009054906101000a900473ffffffffffffffffffffffffffffffffffffffff1673ffffffffffffffffffffffffffffffffffffffff166337fbf5783386866040518463ffffffff1660e01b815260040161099093929190611463565b6020604051808303816000875af11580156109af573d6000803e3d6000fd5b505050506040513d601f19601f820116820180604052508101906109d3919061124d565b91505092915050565b60056020528060005260406000206000915090505481565b6109fc610b7b565b8060048190555050565b600660009054906101000a900460ff1681565b610a21610b7b565b8060028190555050565b610a33610b7b565b80600660006101000a81548160ff02191690836002811115610a5857610a57610f31565b5b021790555050565b610a68610b7b565b80600660016101000a81548173ffffffffffffffffffffffffffffffffffffffff021916908373ffffffffffffffffffffffffffffffffffffffff16021790555050565b610ab4610b7b565b600073ffffffffffffffffffffffffffffffffffffffff168173ffffffffffffffffffffffffffffffffffffffff1603610b23576040517f08c379a0000000000000000000000000000000000000000000000000000000008152600401610b1a9061150c565b60405180910390fd5b610b2c81610bf9565b50565b600160009054906101000a900473ffffffffffffffffffffffffffffffffffffffff1681565b600660019054906101000a900473ffffffffffffffffffffffffffffffffffffffff1681565b610b83610cbd565b73ffffffffffffffffffffffffffffffffffffffff16610ba161062a565b73ffffffffffffffffffffffffffffffffffffffff1614610bf7576040517f08c379a0000000000000000000000000000000000000000000000000000000008152600401610bee90611578565b60405180910390fd5b565b60008060009054906101000a900473ffffffffffffffffffffffffffffffffffffffff169050816000806101000a81548173ffffffffffffffffffffffffffffffffffffffff021916908373ffffffffffffffffffffffffffffffffffffffff1602179055508173ffffffffffffffffffffffffffffffffffffffff168173ffffffffffffffffffffffffffffffffffffffff167f8be0079c531659141344cd1fd0a4f28419497f9722a3daafe3b4186f6b6457e060405160405180910390a35050565b600033905090565b600080fd5b6000819050919050565b610cdd81610cca565b8114610ce857600080fd5b50565b600081359050610cfa81610cd4565b92915050565b600060208284031215610d1657610d15610cc5565b5b6000610d2484828501610ceb565b91505092915050565b610d3681610cca565b82525050565b6000602082019050610d516000830184610d2d565b92915050565b600073ffffffffffffffffffffffffffffffffffffffff82169050919050565b6000819050919050565b6000610d9c610d97610d9284610d57565b610d77565b610d57565b9050919050565b6000610dae82610d81565b9050919050565b6000610dc082610da3565b9050919050565b610dd081610db5565b82525050565b6000602082019050610deb6000830184610dc7565b92915050565b6000610dfc82610d57565b9050919050565b6000610e0e82610df1565b9050919050565b610e1e81610e03565b8114610e2957600080fd5b50565b600081359050610e3b81610e15565b92915050565b600060208284031215610e5757610e56610cc5565b5b6000610e6584828501610e2c565b91505092915050565b610e7781610df1565b82525050565b6000602082019050610e926000830184610e6e565b92915050565b60008060408385031215610eaf57610eae610cc5565b5b6000610ebd85828601610ceb565b9250506020610ece85828601610ceb565b9150509250929050565b610ee181610df1565b8114610eec57600080fd5b50565b600081359050610efe81610ed8565b92915050565b600060208284031215610f1a57610f19610cc5565b5b6000610f2884828501610eef565b91505092915050565b7f4e487b7100000000000000000000000000000000000000000000000000000000600052602160045260246000fd5b60038110610f7157610f70610f31565b5b50565b6000819050610f8282610f60565b919050565b6000610f9282610f74565b9050919050565b610fa281610f87565b82525050565b6000602082019050610fbd6000830184610f99565b92915050565b60038110610fd057600080fd5b50565b600081359050610fe281610fc3565b92915050565b600060208284031215610ffe57610ffd610cc5565b5b600061100c84828501610fd3565b91505092915050565b600061102082610da3565b9050919050565b61103081611015565b82525050565b600060208201905061104b6000830184611027565b92915050565b600082825260208201905092915050565b7f61646d696e6973747261746f7273416464726573732073686f756c646e27742060008201527f6265203000000000000000000000000000000000000000000000000000000000602082015250565b60006110be602483611051565b91506110c982611062565b604082019050919050565b600060208201905081810360008301526110ed816110b1565b9050919050565b600081905092915050565b50565b600061110f6000836110f4565b915061111a826110ff565b600082019050919050565b600061113082611102565b9150819050919050565b7f6661696c656420746f206d6f76652066756e6420746f2061646d696e6973747260008201527f61746f72734164647265737320636f6e74726163740000000000000000000000602082015250565b6000611196603583611051565b91506111a18261113a565b604082019050919050565b600060208201905081810360008301526111c581611189565b9050919050565b7f53616c65206973206c6f636b6564000000000000000000000000000000000000600082015250565b6000611202600e83611051565b915061120d826111cc565b602082019050919050565b60006020820190508181036000830152611231816111f5565b9050919050565b60008151905061124781610cd4565b92915050565b60006020828403121561126357611262610cc5565b5b600061127184828501611238565b91505092915050565b7f546f6b656e4761746520746f6b656e206973206e656564656400000000000000600082015250565b60006112b0601983611051565b91506112bb8261127a565b602082019050919050565b600060208201905081810360008301526112df816112a3565b9050919050565b7f4e487b7100000000000000000000000000000000000000000000000000000000600052601160045260246000fd5b600061132082610cca565b915061132b83610cca565b9250828201905080821115611343576113426112e6565b5b92915050565b7f4f76657220746865206d696e74206c696d697400000000000000000000000000600082015250565b600061137f601383611051565b915061138a82611349565b602082019050919050565b600060208201905081810360008301526113ae81611372565b9050919050565b60006113c082610cca565b91506113cb83610cca565b92508282026113d981610cca565b915082820484148315176113f0576113ef6112e6565b5b5092915050565b7f4d7573742073656e6420746865206d696e742070726963650000000000000000600082015250565b600061142d601883611051565b9150611438826113f7565b602082019050919050565b6000602082019050818103600083015261145c81611420565b9050919050565b60006060820190506114786000830186610e6e565b6114856020830185610d2d565b6114926040830184610d2d565b949350505050565b7f4f776e61626c653a206e6577206f776e657220697320746865207a65726f206160008201527f6464726573730000000000000000000000000000000000000000000000000000602082015250565b60006114f6602683611051565b91506115018261149a565b604082019050919050565b60006020820190508181036000830152611525816114e9565b9050919050565b7f4f776e61626c653a2063616c6c6572206973206e6f7420746865206f776e6572600082015250565b6000611562602083611051565b915061156d8261152c565b602082019050919050565b6000602082019050818103600083015261159181611555565b905091905056fea26469706673582212206a28b528275224af0b5fcb639238d8006b56d774add6145385be42a900e4553564736f6c63430008110033",
  "linkReferences": {},
  "deployedLinkReferences": {}
}