{
  "_format": "hh-sol-artifact-1",
  "contractName": "LocalNounsMinter",
  "sourceName": "contracts/localNouns/LocalNounsMinter.sol",
  "abi": [
    {
      "inputs": [
        {
          "internalType": "contract ILocalNounsToken",
          "name": "_token",
          "type": "address"
        },
        {
          "internalType": "contract ITokenGate",
          "name": "_tokenGate",
          "type": "address"
        }
      ],
      "stateMutability": "nonpayable",
      "type": "constructor"
    },
    {
      "anonymous": false,
      "inputs": [
        {
          "indexed": false,
          "internalType": "uint256",
          "name": "prefectureId",
          "type": "uint256"
        },
        {
          "indexed": false,
          "internalType": "uint256",
          "name": "amount",
          "type": "uint256"
        },
        {
          "indexed": false,
          "internalType": "address",
          "name": "minter",
          "type": "address"
        }
      ],
      "name": "MintSelectedPrefecture",
      "type": "event"
    },
    {
      "anonymous": false,
      "inputs": [
        {
          "indexed": true,
          "internalType": "address",
          "name": "previousOwner",
          "type": "address"
        },
        {
          "indexed": true,
          "internalType": "address",
          "name": "newOwner",
          "type": "address"
        }
      ],
      "name": "OwnershipTransferred",
      "type": "event"
    },
    {
      "inputs": [],
      "name": "administratorsAddress",
      "outputs": [
        {
          "internalType": "address",
          "name": "",
          "type": "address"
        }
      ],
      "stateMutability": "view",
      "type": "function"
    },
    {
      "inputs": [],
      "name": "mintMax",
      "outputs": [
        {
          "internalType": "uint256",
          "name": "",
          "type": "uint256"
        }
      ],
      "stateMutability": "view",
      "type": "function"
    },
    {
      "inputs": [],
      "name": "mintPriceForNotSpecified",
      "outputs": [
        {
          "internalType": "uint256",
          "name": "",
          "type": "uint256"
        }
      ],
      "stateMutability": "view",
      "type": "function"
    },
    {
      "inputs": [],
      "name": "mintPriceForSpecified",
      "outputs": [
        {
          "internalType": "uint256",
          "name": "",
          "type": "uint256"
        }
      ],
      "stateMutability": "view",
      "type": "function"
    },
    {
      "inputs": [
        {
          "internalType": "uint256",
          "name": "_prefectureId",
          "type": "uint256"
        },
        {
          "internalType": "uint256",
          "name": "_amount",
          "type": "uint256"
        }
      ],
      "name": "mintSelectedPrefecture",
      "outputs": [
        {
          "internalType": "uint256",
          "name": "tokenId",
          "type": "uint256"
        }
      ],
      "stateMutability": "payable",
      "type": "function"
    },
    {
      "inputs": [],
      "name": "owner",
      "outputs": [
        {
          "internalType": "address",
          "name": "",
          "type": "address"
        }
      ],
      "stateMutability": "view",
      "type": "function"
    },
    {
      "inputs": [],
      "name": "phase",
      "outputs": [
        {
          "internalType": "enum LocalNounsMinter.SalePhase",
          "name": "",
          "type": "uint8"
        }
      ],
      "stateMutability": "view",
      "type": "function"
    },
    {
      "inputs": [
        {
          "internalType": "address",
          "name": "",
          "type": "address"
        }
      ],
      "name": "preferentialPurchacedCount",
      "outputs": [
        {
          "internalType": "uint256",
          "name": "",
          "type": "uint256"
        }
      ],
      "stateMutability": "view",
      "type": "function"
    },
    {
      "inputs": [],
      "name": "renounceOwnership",
      "outputs": [],
      "stateMutability": "nonpayable",
      "type": "function"
    },
    {
      "inputs": [
        {
          "internalType": "address",
          "name": "_admin",
          "type": "address"
        }
      ],
      "name": "setAdministratorsAddress",
      "outputs": [],
      "stateMutability": "nonpayable",
      "type": "function"
    },
    {
      "inputs": [
        {
          "internalType": "contract ILocalNounsToken",
          "name": "_token",
          "type": "address"
        }
      ],
      "name": "setLocalNounsToken",
      "outputs": [],
      "stateMutability": "nonpayable",
      "type": "function"
    },
    {
      "inputs": [
        {
          "internalType": "uint256",
          "name": "_mintMax",
          "type": "uint256"
        }
      ],
      "name": "setMintMax",
      "outputs": [],
      "stateMutability": "nonpayable",
      "type": "function"
    },
    {
      "inputs": [
        {
          "internalType": "uint256",
          "name": "_price",
          "type": "uint256"
        }
      ],
      "name": "setMintPriceForNotSpecified",
      "outputs": [],
      "stateMutability": "nonpayable",
      "type": "function"
    },
    {
      "inputs": [
        {
          "internalType": "uint256",
          "name": "_price",
          "type": "uint256"
        }
      ],
      "name": "setMintPriceForSpecified",
      "outputs": [],
      "stateMutability": "nonpayable",
      "type": "function"
    },
    {
      "inputs": [
        {
          "internalType": "enum LocalNounsMinter.SalePhase",
          "name": "_phase",
          "type": "uint8"
        }
      ],
      "name": "setPhase",
      "outputs": [],
      "stateMutability": "nonpayable",
      "type": "function"
    },
    {
      "inputs": [],
      "name": "token",
      "outputs": [
        {
          "internalType": "contract ILocalNounsToken",
          "name": "",
          "type": "address"
        }
      ],
      "stateMutability": "view",
      "type": "function"
    },
    {
      "inputs": [],
      "name": "tokenGate",
      "outputs": [
        {
          "internalType": "contract ITokenGate",
          "name": "",
          "type": "address"
        }
      ],
      "stateMutability": "view",
      "type": "function"
    },
    {
      "inputs": [
        {
          "internalType": "address",
          "name": "newOwner",
          "type": "address"
        }
      ],
      "name": "transferOwnership",
      "outputs": [],
      "stateMutability": "nonpayable",
      "type": "function"
    },
    {
      "inputs": [],
      "name": "withdraw",
      "outputs": [],
      "stateMutability": "payable",
      "type": "function"
    }
  ],
  "bytecode": "0x60a0604052666a94d74f430000600255662386f26fc100006003556105dc6004556006805460ff191690553480156200003757600080fd5b5060405162000f0238038062000f028339810160408190526200005a9162000139565b6200006533620000a2565b600180546001600160a01b0319166001600160a01b0393841617905560068054610100600160a81b0319166101003302179055166080526200017c565b600080546001600160a01b038381166001600160a01b0319831681178455604051919092169283917f8be0079c531659141344cd1fd0a4f28419497f9722a3daafe3b4186f6b6457e09190a35050565b60006001600160a01b0382165b92915050565b6000620000ff82620000f2565b6200011d8162000105565b81146200012957600080fd5b50565b8051620000ff8162000112565b60008060408385031215620001515762000151600080fd5b60006200015f85856200012c565b925050602062000172858286016200012c565b9150509250929050565b608051610d636200019f6000396000818161019701526104f70152610d636000f3fe6080604052600436106101145760003560e01c8063a3477d1b116100a0578063c03afb5911610064578063c03afb59146102df578063eba145eb146102ff578063f2fde38b1461031f578063fc0c546a1461033f578063febced5d1461035f57600080fd5b8063a3477d1b14610238578063a869703c1461024b578063afc3cb4914610278578063b1c9fe6e14610298578063ba5feb26146102bf57600080fd5b806350008e4a116100e757806350008e4a146101855780635e52f06a146101c6578063715018a6146101e65780638da5cb5b146101fb5780639d3da28a1461022257600080fd5b80631133d2fa14610119578063339860c11461013b5780633ccfd60b146101675780634d1555611461016f575b600080fd5b34801561012557600080fd5b50610139610134366004610873565b610384565b005b34801561014757600080fd5b5061015160035481565b60405161015e91906108a4565b60405180910390f35b610139610391565b34801561017b57600080fd5b5061015160045481565b34801561019157600080fd5b506101b97f000000000000000000000000000000000000000000000000000000000000000081565b60405161015e91906108e2565b3480156101d257600080fd5b506101396101e1366004610904565b61044a565b3480156101f257600080fd5b50610139610474565b34801561020757600080fd5b506000546001600160a01b03165b60405161015e919061092e565b34801561022e57600080fd5b5061015160025481565b61015161024636600461093c565b610488565b34801561025757600080fd5b5061015161026636600461098d565b60056020526000908152604090205481565b34801561028457600080fd5b50610139610293366004610873565b61072b565b3480156102a457600080fd5b506006546102b29060ff1681565b60405161015e91906109f7565b3480156102cb57600080fd5b506101396102da366004610873565b610738565b3480156102eb57600080fd5b506101396102fa366004610a1d565b610745565b34801561030b57600080fd5b5061013961031a36600461098d565b610774565b34801561032b57600080fd5b5061013961033a36600461098d565b6107a4565b34801561034b57600080fd5b506001546101b9906001600160a01b031681565b34801561036b57600080fd5b506006546102159061010090046001600160a01b031681565b61038c6107db565b600355565b6103996107db565b60065461010090046001600160a01b03166103cf5760405162461bcd60e51b81526004016103c690610a7f565b60405180910390fd5b60065460405160009161010090046001600160a01b03169047908381818185875af1925050503d8060008114610421576040519150601f19603f3d011682016040523d82523d6000602084013e610426565b606091505b50509050806104475760405162461bcd60e51b81526004016103c690610adf565b50565b6104526107db565b600180546001600160a01b0319166001600160a01b0392909216919091179055565b61047c6107db565b6104866000610805565b565b60008060065460ff1660028111156104a2576104a26109ae565b036104bf5760405162461bcd60e51b81526004016103c690610b14565b600160065460ff1660028111156104d8576104d86109ae565b0361058a576040516370a0823160e01b81526000906001600160a01b037f000000000000000000000000000000000000000000000000000000000000000016906370a082319061052c90339060040161092e565b602060405180830381865afa158015610549573d6000803e3d6000fd5b505050506040513d601f19601f8201168201806040525081019061056d9190610b2f565b1161058a5760405162461bcd60e51b81526004016103c690610b82565b60045482600160009054906101000a90046001600160a01b03166001600160a01b03166396178c206040518163ffffffff1660e01b81526004016020604051808303816000875af11580156105e3573d6000803e3d6000fd5b505050506040513d601f19601f820116820180604052508101906106079190610b2f565b6106119190610ba8565b111561062f5760405162461bcd60e51b81526004016103c690610be3565b6000836000036106425750600354610647565b506002545b6106518382610bf3565b3410156106705760405162461bcd60e51b81526004016103c690610c3c565b6001546040516306ff7eaf60e31b81526001600160a01b03909116906337fbf578906106a490339088908890600401610c4c565b6020604051808303816000875af11580156106c3573d6000803e3d6000fd5b505050506040513d601f19601f820116820180604052508101906106e79190610b2f565b91507f2fe12938c13ec72b32a79334e19b236fff49d12ce10bc75c28554dd13452537284843360405161071c93929190610c74565b60405180910390a15092915050565b6107336107db565b600455565b6107406107db565b600255565b61074d6107db565b6006805482919060ff1916600183600281111561076c5761076c6109ae565b021790555050565b61077c6107db565b600680546001600160a01b0390921661010002610100600160a81b0319909216919091179055565b6107ac6107db565b6001600160a01b0381166107d25760405162461bcd60e51b81526004016103c690610cdd565b61044781610805565b6000546001600160a01b031633146104865760405162461bcd60e51b81526004016103c690610d1d565b600080546001600160a01b038381166001600160a01b0319831681178455604051919092169283917f8be0079c531659141344cd1fd0a4f28419497f9722a3daafe3b4186f6b6457e09190a35050565b805b811461044757600080fd5b803561086d81610855565b92915050565b60006020828403121561088857610888600080fd5b60006108948484610862565b949350505050565b805b82525050565b6020810161086d828461089c565b60006001600160a01b03821661086d565b600061086d826108b2565b600061086d826108c3565b61089e816108ce565b6020810161086d82846108d9565b610857816108c3565b803561086d816108f0565b60006020828403121561091957610919600080fd5b600061089484846108f9565b61089e816108b2565b6020810161086d8284610925565b6000806040838503121561095257610952600080fd5b600061095e8585610862565b925050602061096f85828601610862565b9150509250929050565b610857816108b2565b803561086d81610979565b6000602082840312156109a2576109a2600080fd5b60006108948484610982565b634e487b7160e01b600052602160045260246000fd5b60038110610447576104476109ae565b806109de816109c4565b919050565b600061086d826109d4565b61089e816109e3565b6020810161086d82846109ee565b6003811061044757600080fd5b803561086d81610a05565b600060208284031215610a3257610a32600080fd5b60006108948484610a12565b60248152602081017f61646d696e6973747261746f7273416464726573732073686f756c646e2774208152630626520360e41b602082015290505b60400190565b6020808252810161086d81610a3e565b60358152602081017f6661696c656420746f206d6f76652066756e6420746f2061646d696e69737472815274185d1bdc9cd059191c995cdcc818dbdb9d1c9858dd605a1b60208201529050610a79565b6020808252810161086d81610a8f565b600e8152602081016d14d85b19481a5cc81b1bd8dad95960921b815290505b60200190565b6020808252810161086d81610aef565b805161086d81610855565b600060208284031215610b4457610b44600080fd5b60006108948484610b24565b60198152602081017f546f6b656e4761746520746f6b656e206973206e65656465640000000000000081529050610b0e565b6020808252810161086d81610b50565b634e487b7160e01b600052601160045260246000fd5b8082018082111561086d5761086d610b92565b60138152602081017213dd995c881d1a19481b5a5b9d081b1a5b5a5d606a1b81529050610b0e565b6020808252810161086d81610bbb565b818102811582820484141761086d5761086d610b92565b60188152602081017f4d7573742073656e6420746865206d696e74207072696365000000000000000081529050610b0e565b6020808252810161086d81610c0a565b60608101610c5a8286610925565b610c67602083018561089c565b610894604083018461089c565b60608101610c82828661089c565b610c8f602083018561089c565b6108946040830184610925565b60268152602081017f4f776e61626c653a206e6577206f776e657220697320746865207a65726f206181526564647265737360d01b60208201529050610a79565b6020808252810161086d81610c9c565b60208082527f4f776e61626c653a2063616c6c6572206973206e6f7420746865206f776e65729101908152610b0e565b6020808252810161086d81610ced56fea2646970667358221220bf5f9ee6919b9e4d3bad6e5378362001e925c102c93ce28c1f92c883a579846264736f6c63430008110033",
  "linkReferences": {},
  "deployedLinkReferences": {}
}